{
  "contractName": "MachuPicchuPaymentmaster",
  "abi": [
    {
      "inputs": [
        {
          "internalType": "address",
          "name": "_mainC",
          "type": "address"
        },
        {
          "internalType": "address payable",
          "name": "_userC",
          "type": "address"
        }
      ],
      "stateMutability": "nonpayable",
      "type": "constructor"
    },
    {
      "anonymous": false,
      "inputs": [
        {
          "indexed": true,
          "internalType": "address",
          "name": "previousOwner",
          "type": "address"
        },
        {
          "indexed": true,
          "internalType": "address",
          "name": "newOwner",
          "type": "address"
        }
      ],
      "name": "OwnershipTransferred",
      "type": "event"
    },
    {
      "anonymous": false,
      "inputs": [
        {
          "indexed": false,
          "internalType": "uint256",
          "name": "",
          "type": "uint256"
        }
      ],
      "name": "PostRelayed",
      "type": "event"
    },
    {
      "anonymous": false,
      "inputs": [
        {
          "indexed": false,
          "internalType": "uint256",
          "name": "",
          "type": "uint256"
        }
      ],
      "name": "PreRelayed",
      "type": "event"
    },
    {
      "anonymous": false,
      "inputs": [
        {
          "indexed": false,
          "internalType": "address",
          "name": "target",
          "type": "address"
        }
      ],
      "name": "TargetSet",
      "type": "event"
    },
    {
      "inputs": [],
      "name": "FORWARDER_HUB_OVERHEAD",
      "outputs": [
        {
          "internalType": "uint256",
          "name": "",
          "type": "uint256"
        }
      ],
      "stateMutability": "view",
      "type": "function",
      "constant": true
    },
    {
      "inputs": [],
      "name": "PAYMASTER_ACCEPTANCE_BUDGET",
      "outputs": [
        {
          "internalType": "uint256",
          "name": "",
          "type": "uint256"
        }
      ],
      "stateMutability": "view",
      "type": "function",
      "constant": true
    },
    {
      "inputs": [],
      "name": "POST_RELAYED_CALL_GAS_LIMIT",
      "outputs": [
        {
          "internalType": "uint256",
          "name": "",
          "type": "uint256"
        }
      ],
      "stateMutability": "view",
      "type": "function",
      "constant": true
    },
    {
      "inputs": [],
      "name": "PRE_RELAYED_CALL_GAS_LIMIT",
      "outputs": [
        {
          "internalType": "uint256",
          "name": "",
          "type": "uint256"
        }
      ],
      "stateMutability": "view",
      "type": "function",
      "constant": true
    },
    {
      "inputs": [
        {
          "components": [
            {
              "components": [
                {
                  "internalType": "address",
                  "name": "from",
                  "type": "address"
                },
                {
                  "internalType": "address",
                  "name": "to",
                  "type": "address"
                },
                {
                  "internalType": "uint256",
                  "name": "value",
                  "type": "uint256"
                },
                {
                  "internalType": "uint256",
                  "name": "gas",
                  "type": "uint256"
                },
                {
                  "internalType": "uint256",
                  "name": "nonce",
                  "type": "uint256"
                },
                {
                  "internalType": "bytes",
                  "name": "data",
                  "type": "bytes"
                }
              ],
              "internalType": "struct IForwarder.ForwardRequest",
              "name": "request",
              "type": "tuple"
            },
            {
              "components": [
                {
                  "internalType": "uint256",
                  "name": "gasPrice",
                  "type": "uint256"
                },
                {
                  "internalType": "uint256",
                  "name": "pctRelayFee",
                  "type": "uint256"
                },
                {
                  "internalType": "uint256",
                  "name": "baseRelayFee",
                  "type": "uint256"
                },
                {
                  "internalType": "address",
                  "name": "relayWorker",
                  "type": "address"
                },
                {
                  "internalType": "address",
                  "name": "paymaster",
                  "type": "address"
                },
                {
                  "internalType": "bytes",
                  "name": "paymasterData",
                  "type": "bytes"
                },
                {
                  "internalType": "uint256",
                  "name": "clientId",
                  "type": "uint256"
                },
                {
                  "internalType": "address",
                  "name": "forwarder",
                  "type": "address"
                }
              ],
              "internalType": "struct GsnTypes.RelayData",
              "name": "relayData",
              "type": "tuple"
            }
          ],
          "internalType": "struct GsnTypes.RelayRequest",
          "name": "relayRequest",
          "type": "tuple"
        }
      ],
      "name": "_verifyForwarder",
      "outputs": [],
      "stateMutability": "view",
      "type": "function",
      "constant": true
    },
    {
      "inputs": [],
      "name": "getGasLimits",
      "outputs": [
        {
          "components": [
            {
              "internalType": "uint256",
              "name": "acceptanceBudget",
              "type": "uint256"
            },
            {
              "internalType": "uint256",
              "name": "preRelayedCallGasLimit",
              "type": "uint256"
            },
            {
              "internalType": "uint256",
              "name": "postRelayedCallGasLimit",
              "type": "uint256"
            }
          ],
          "internalType": "struct IPaymaster.GasLimits",
          "name": "limits",
          "type": "tuple"
        }
      ],
      "stateMutability": "view",
      "type": "function",
      "constant": true
    },
    {
      "inputs": [],
      "name": "getHubAddr",
      "outputs": [
        {
          "internalType": "address",
          "name": "",
          "type": "address"
        }
      ],
      "stateMutability": "view",
      "type": "function",
      "constant": true
    },
    {
      "inputs": [],
      "name": "getRelayHubDeposit",
      "outputs": [
        {
          "internalType": "uint256",
          "name": "",
          "type": "uint256"
        }
      ],
      "stateMutability": "view",
      "type": "function",
      "constant": true
    },
    {
      "inputs": [],
      "name": "mainContract",
      "outputs": [
        {
          "internalType": "address",
          "name": "",
          "type": "address"
        }
      ],
      "stateMutability": "view",
      "type": "function",
      "constant": true
    },
    {
      "inputs": [],
      "name": "owner",
      "outputs": [
        {
          "internalType": "address",
          "name": "",
          "type": "address"
        }
      ],
      "stateMutability": "view",
      "type": "function",
      "constant": true
    },
    {
      "inputs": [],
      "name": "renounceOwnership",
      "outputs": [],
      "stateMutability": "nonpayable",
      "type": "function"
    },
    {
      "inputs": [
        {
          "internalType": "contract IRelayHub",
          "name": "hub",
          "type": "address"
        }
      ],
      "name": "setRelayHub",
      "outputs": [],
      "stateMutability": "nonpayable",
      "type": "function"
    },
    {
      "inputs": [
        {
          "internalType": "contract IForwarder",
          "name": "forwarder",
          "type": "address"
        }
      ],
      "name": "setTrustedForwarder",
      "outputs": [],
      "stateMutability": "nonpayable",
      "type": "function"
    },
    {
      "inputs": [
        {
          "internalType": "address",
          "name": "newOwner",
          "type": "address"
        }
      ],
      "name": "transferOwnership",
      "outputs": [],
      "stateMutability": "nonpayable",
      "type": "function"
    },
    {
      "inputs": [],
      "name": "trustedForwarder",
      "outputs": [
        {
          "internalType": "contract IForwarder",
          "name": "",
          "type": "address"
        }
      ],
      "stateMutability": "view",
      "type": "function",
      "constant": true
    },
    {
      "inputs": [
        {
          "internalType": "uint256",
          "name": "amount",
          "type": "uint256"
        },
        {
          "internalType": "address payable",
          "name": "target",
          "type": "address"
        }
      ],
      "name": "withdrawRelayHubDepositTo",
      "outputs": [],
      "stateMutability": "nonpayable",
      "type": "function"
    },
    {
      "stateMutability": "payable",
      "type": "receive",
      "payable": true
    },
    {
      "inputs": [
        {
          "components": [
            {
              "components": [
                {
                  "internalType": "address",
                  "name": "from",
                  "type": "address"
                },
                {
                  "internalType": "address",
                  "name": "to",
                  "type": "address"
                },
                {
                  "internalType": "uint256",
                  "name": "value",
                  "type": "uint256"
                },
                {
                  "internalType": "uint256",
                  "name": "gas",
                  "type": "uint256"
                },
                {
                  "internalType": "uint256",
                  "name": "nonce",
                  "type": "uint256"
                },
                {
                  "internalType": "bytes",
                  "name": "data",
                  "type": "bytes"
                }
              ],
              "internalType": "struct IForwarder.ForwardRequest",
              "name": "request",
              "type": "tuple"
            },
            {
              "components": [
                {
                  "internalType": "uint256",
                  "name": "gasPrice",
                  "type": "uint256"
                },
                {
                  "internalType": "uint256",
                  "name": "pctRelayFee",
                  "type": "uint256"
                },
                {
                  "internalType": "uint256",
                  "name": "baseRelayFee",
                  "type": "uint256"
                },
                {
                  "internalType": "address",
                  "name": "relayWorker",
                  "type": "address"
                },
                {
                  "internalType": "address",
                  "name": "paymaster",
                  "type": "address"
                },
                {
                  "internalType": "bytes",
                  "name": "paymasterData",
                  "type": "bytes"
                },
                {
                  "internalType": "uint256",
                  "name": "clientId",
                  "type": "uint256"
                },
                {
                  "internalType": "address",
                  "name": "forwarder",
                  "type": "address"
                }
              ],
              "internalType": "struct GsnTypes.RelayData",
              "name": "relayData",
              "type": "tuple"
            }
          ],
          "internalType": "struct GsnTypes.RelayRequest",
          "name": "relayRequest",
          "type": "tuple"
        },
        {
          "internalType": "bytes",
          "name": "signature",
          "type": "bytes"
        },
        {
          "internalType": "bytes",
          "name": "approvalData",
          "type": "bytes"
        },
        {
          "internalType": "uint256",
          "name": "maxPossibleGas",
          "type": "uint256"
        }
      ],
      "name": "preRelayedCall",
      "outputs": [
        {
          "internalType": "bytes",
          "name": "context",
          "type": "bytes"
        },
        {
          "internalType": "bool",
          "name": "",
          "type": "bool"
        }
      ],
      "stateMutability": "nonpayable",
      "type": "function"
    },
    {
      "inputs": [
        {
          "internalType": "bytes",
          "name": "context",
          "type": "bytes"
        },
        {
          "internalType": "bool",
          "name": "success",
          "type": "bool"
        },
        {
          "internalType": "uint256",
          "name": "gasUseWithoutPost",
          "type": "uint256"
        },
        {
          "components": [
            {
              "internalType": "uint256",
              "name": "gasPrice",
              "type": "uint256"
            },
            {
              "internalType": "uint256",
              "name": "pctRelayFee",
              "type": "uint256"
            },
            {
              "internalType": "uint256",
              "name": "baseRelayFee",
              "type": "uint256"
            },
            {
              "internalType": "address",
              "name": "relayWorker",
              "type": "address"
            },
            {
              "internalType": "address",
              "name": "paymaster",
              "type": "address"
            },
            {
              "internalType": "bytes",
              "name": "paymasterData",
              "type": "bytes"
            },
            {
              "internalType": "uint256",
              "name": "clientId",
              "type": "uint256"
            },
            {
              "internalType": "address",
              "name": "forwarder",
              "type": "address"
            }
          ],
          "internalType": "struct GsnTypes.RelayData",
          "name": "relayData",
          "type": "tuple"
        }
      ],
      "name": "postRelayedCall",
      "outputs": [],
      "stateMutability": "nonpayable",
      "type": "function"
    },
    {
      "inputs": [],
      "name": "versionPaymaster",
      "outputs": [
        {
          "internalType": "string",
          "name": "",
          "type": "string"
        }
      ],
      "stateMutability": "view",
      "type": "function",
      "constant": true
    }
  ],
  "bytecode": "0x60806040523480156200001157600080fd5b50604051620022a5380380620022a58339818101604052810190620000379190620001a7565b6000620000496200017160201b60201c565b9050806000806101000a81548173ffffffffffffffffffffffffffffffffffffffff021916908373ffffffffffffffffffffffffffffffffffffffff1602179055508073ffffffffffffffffffffffffffffffffffffffff16600073ffffffffffffffffffffffffffffffffffffffff167f8be0079c531659141344cd1fd0a4f28419497f9722a3daafe3b4186f6b6457e060405160405180910390a35081600360006101000a81548173ffffffffffffffffffffffffffffffffffffffff021916908373ffffffffffffffffffffffffffffffffffffffff16021790555080600460006101000a81548173ffffffffffffffffffffffffffffffffffffffff021916908373ffffffffffffffffffffffffffffffffffffffff160217905550505062000264565b600033905090565b6000815190506200018a8162000230565b92915050565b600081519050620001a1816200024a565b92915050565b60008060408385031215620001bb57600080fd5b6000620001cb8582860162000179565b9250506020620001de8582860162000190565b9150509250929050565b6000620001f58262000210565b9050919050565b6000620002098262000210565b9050919050565b600073ffffffffffffffffffffffffffffffffffffffff82169050919050565b6200023b81620001e8565b81146200024757600080fd5b50565b6200025581620001fc565b81146200026157600080fd5b50565b61203180620002746000396000f3fe6080604052600436106101185760003560e01c8063921276ea116100a0578063da74222811610064578063da74222814610482578063df463a66146104ab578063e5c12446146104d6578063f2fde38b14610514578063f9c002f71461053d5761023f565b8063921276ea146103ad5780639ea09211146103d8578063b90b41cf14610401578063bbdaa3c91461042c578063d270e7ab146104575761023f565b806374e861d6116100e757806374e861d6146102da5780637bb05264146103055780637da0a8771461032e5780638da5cb5b146103595780638e9483b0146103845761023f565b80632afe31c1146102445780632d14c4b71461026f5780635ea54eee14610298578063715018a6146102c35761023f565b3661023f57600073ffffffffffffffffffffffffffffffffffffffff16600160009054906101000a900473ffffffffffffffffffffffffffffffffffffffff1673ffffffffffffffffffffffffffffffffffffffff1614156101af576040517f08c379a00000000000000000000000000000000000000000000000000000000081526004016101a690611c58565b60405180910390fd5b600160009054906101000a900473ffffffffffffffffffffffffffffffffffffffff1673ffffffffffffffffffffffffffffffffffffffff1663aa67c91934306040518363ffffffff1660e01b815260040161020b9190611b67565b6000604051808303818588803b15801561022457600080fd5b505af1158015610238573d6000803e3d6000fd5b5050505050005b600080fd5b34801561025057600080fd5b50610259610568565b6040516102669190611d53565b60405180910390f35b34801561027b57600080fd5b5061029660048036038101906102919190611710565b61061a565b005b3480156102a457600080fd5b506102ad610741565b6040516102ba9190611d38565b60405180910390f35b3480156102cf57600080fd5b506102d8610776565b005b3480156102e657600080fd5b506102ef6108c9565b6040516102fc9190611b4c565b60405180910390f35b34801561031157600080fd5b5061032c600480360381019061032791906115a1565b6108f3565b005b34801561033a57600080fd5b506103436109cc565b6040516103509190611bdb565b60405180910390f35b34801561036557600080fd5b5061036e6109f2565b60405161037b9190611b4c565b60405180910390f35b34801561039057600080fd5b506103ab60048036038101906103a691906114e0565b610a1b565b005b3480156103b957600080fd5b506103c2610a67565b6040516103cf9190611bf6565b60405180910390f35b3480156103e457600080fd5b506103ff60048036038101906103fa91906115ca565b610aa4565b005b34801561040d57600080fd5b50610416610b61565b6040516104239190611d53565b60405180910390f35b34801561043857600080fd5b50610441610b67565b60405161044e9190611d53565b60405180910390f35b34801561046357600080fd5b5061046c610b6e565b6040516104799190611b4c565b60405180910390f35b34801561048e57600080fd5b506104a960048036038101906104a49190611578565b610b94565b005b3480156104b757600080fd5b506104c0610c6d565b6040516104cd9190611d53565b60405180910390f35b3480156104e257600080fd5b506104fd60048036038101906104f8919061160b565b610c78565b60405161050b929190611bab565b60405180910390f35b34801561052057600080fd5b5061053b6004803603810190610536919061148e565b610f72565b005b34801561054957600080fd5b50610552611134565b60405161055f9190611d53565b60405180910390f35b6000600160009054906101000a900473ffffffffffffffffffffffffffffffffffffffff1673ffffffffffffffffffffffffffffffffffffffff166370a08231306040518263ffffffff1660e01b81526004016105c59190611b67565b60206040518083038186803b1580156105dd57600080fd5b505afa1580156105f1573d6000803e3d6000fd5b505050506040513d601f19601f8201168201806040525081019061061591906116e7565b905090565b61062261113b565b73ffffffffffffffffffffffffffffffffffffffff1660008054906101000a900473ffffffffffffffffffffffffffffffffffffffff1673ffffffffffffffffffffffffffffffffffffffff16146106af576040517f08c379a00000000000000000000000000000000000000000000000000000000081526004016106a690611cf8565b60405180910390fd5b600160009054906101000a900473ffffffffffffffffffffffffffffffffffffffff1673ffffffffffffffffffffffffffffffffffffffff1662f714ce83836040518363ffffffff1660e01b815260040161070b929190611d6e565b600060405180830381600087803b15801561072557600080fd5b505af1158015610739573d6000803e3d6000fd5b505050505050565b610749611344565b604051806060016040528061c350620186a0018152602001620186a081526020016201adb0815250905090565b61077e61113b565b73ffffffffffffffffffffffffffffffffffffffff1660008054906101000a900473ffffffffffffffffffffffffffffffffffffffff1673ffffffffffffffffffffffffffffffffffffffff161461080b576040517f08c379a000000000000000000000000000000000000000000000000000000000815260040161080290611cf8565b60405180910390fd5b600073ffffffffffffffffffffffffffffffffffffffff1660008054906101000a900473ffffffffffffffffffffffffffffffffffffffff1673ffffffffffffffffffffffffffffffffffffffff167f8be0079c531659141344cd1fd0a4f28419497f9722a3daafe3b4186f6b6457e060405160405180910390a360008060006101000a81548173ffffffffffffffffffffffffffffffffffffffff021916908373ffffffffffffffffffffffffffffffffffffffff160217905550565b6000600160009054906101000a900473ffffffffffffffffffffffffffffffffffffffff16905090565b6108fb61113b565b73ffffffffffffffffffffffffffffffffffffffff1660008054906101000a900473ffffffffffffffffffffffffffffffffffffffff1673ffffffffffffffffffffffffffffffffffffffff1614610988576040517f08c379a000000000000000000000000000000000000000000000000000000000815260040161097f90611cf8565b60405180910390fd5b80600160006101000a81548173ffffffffffffffffffffffffffffffffffffffff021916908373ffffffffffffffffffffffffffffffffffffffff16021790555050565b600260009054906101000a900473ffffffffffffffffffffffffffffffffffffffff1681565b60008060009054906101000a900473ffffffffffffffffffffffffffffffffffffffff16905090565b7f142c6d2c03c5b3fcbb162bc0e230bbaae8c9032eb624a8fd44658e00efa63c908585810190610a4b91906116be565b604051610a589190611d53565b60405180910390a15050505050565b60606040518060400160405280600381526020017f312e300000000000000000000000000000000000000000000000000000000000815250905090565b808060200190610ab49190611dbb565b60e0016020810190610ac6919061148e565b73ffffffffffffffffffffffffffffffffffffffff16600260009054906101000a900473ffffffffffffffffffffffffffffffffffffffff1673ffffffffffffffffffffffffffffffffffffffff1614610b55576040517f08c379a0000000000000000000000000000000000000000000000000000000008152600401610b4c90611c78565b60405180910390fd5b610b5e81611143565b50565b61c35081565b6201adb081565b600360009054906101000a900473ffffffffffffffffffffffffffffffffffffffff1681565b610b9c61113b565b73ffffffffffffffffffffffffffffffffffffffff1660008054906101000a900473ffffffffffffffffffffffffffffffffffffffff1673ffffffffffffffffffffffffffffffffffffffff1614610c29576040517f08c379a0000000000000000000000000000000000000000000000000000000008152600401610c2090611cf8565b60405180910390fd5b80600260006101000a81548173ffffffffffffffffffffffffffffffffffffffff021916908373ffffffffffffffffffffffffffffffffffffffff16021790555050565b61c350620186a00181565b60606000610c8588610aa4565b600360009054906101000a900473ffffffffffffffffffffffffffffffffffffffff1673ffffffffffffffffffffffffffffffffffffffff16888060000190610cce9190611d97565b6020016020810190610ce0919061148e565b73ffffffffffffffffffffffffffffffffffffffff161480610d705750600460009054906101000a900473ffffffffffffffffffffffffffffffffffffffff1673ffffffffffffffffffffffffffffffffffffffff16888060000190610d469190611d97565b6020016020810190610d58919061148e565b73ffffffffffffffffffffffffffffffffffffffff16145b610daf576040517f08c379a0000000000000000000000000000000000000000000000000000000008152600401610da690611cd8565b60405180910390fd5b600360009054906101000a900473ffffffffffffffffffffffffffffffffffffffff1673ffffffffffffffffffffffffffffffffffffffff16888060000190610df89190611d97565b6020016020810190610e0a919061148e565b73ffffffffffffffffffffffffffffffffffffffff161415610f4157600460009054906101000a900473ffffffffffffffffffffffffffffffffffffffff1673ffffffffffffffffffffffffffffffffffffffff166342584166898060000190610e749190611d97565b6000016020810190610e86919061148e565b60016002811115610e9357fe5b6040518363ffffffff1660e01b8152600401610eb0929190611b82565b60206040518083038186803b158015610ec857600080fd5b505afa158015610edc573d6000803e3d6000fd5b505050506040513d601f19601f82011682018060405250810190610f0091906114b7565b15610f40576040517f08c379a0000000000000000000000000000000000000000000000000000000008152600401610f3790611d18565b60405180910390fd5b5b42604051602001610f529190611d53565b604051602081830303815290604052600091509150965096945050505050565b610f7a61113b565b73ffffffffffffffffffffffffffffffffffffffff1660008054906101000a900473ffffffffffffffffffffffffffffffffffffffff1673ffffffffffffffffffffffffffffffffffffffff1614611007576040517f08c379a0000000000000000000000000000000000000000000000000000000008152600401610ffe90611cf8565b60405180910390fd5b600073ffffffffffffffffffffffffffffffffffffffff168173ffffffffffffffffffffffffffffffffffffffff161415611077576040517f08c379a000000000000000000000000000000000000000000000000000000000815260040161106e90611c38565b60405180910390fd5b8073ffffffffffffffffffffffffffffffffffffffff1660008054906101000a900473ffffffffffffffffffffffffffffffffffffffff1673ffffffffffffffffffffffffffffffffffffffff167f8be0079c531659141344cd1fd0a4f28419497f9722a3daafe3b4186f6b6457e060405160405180910390a3806000806101000a81548173ffffffffffffffffffffffffffffffffffffffff021916908373ffffffffffffffffffffffffffffffffffffffff16021790555050565b620186a081565b600033905090565b600060608280600001906111579190611d97565b6020016020810190611169919061148e565b73ffffffffffffffffffffffffffffffffffffffff1663572b6c0560e01b8480602001906111979190611dbb565b60e00160208101906111a9919061148e565b6040516024016111b99190611b4c565b604051602081830303815290604052907bffffffffffffffffffffffffffffffffffffffffffffffffffffffff19166020820180517bffffffffffffffffffffffffffffffffffffffffffffffffffffffff83818316178352505050506040516112239190611b35565b600060405180830381855afa9150503d806000811461125e576040519150601f19603f3d011682016040523d82523d6000602084013e611263565b606091505b5091509150816112a8576040517f08c379a000000000000000000000000000000000000000000000000000000000815260040161129f90611cb8565b60405180910390fd5b60208151146112ec576040517f08c379a00000000000000000000000000000000000000000000000000000000081526004016112e390611c98565b60405180910390fd5b8080602001905181019061130091906114b7565b61133f576040517f08c379a000000000000000000000000000000000000000000000000000000000815260040161133690611c18565b60405180910390fd5b505050565b60405180606001604052806000815260200160008152602001600081525090565b60008135905061137481611f71565b92915050565b60008135905061138981611f88565b92915050565b60008135905061139e81611f9f565b92915050565b6000815190506113b381611f9f565b92915050565b60008083601f8401126113cb57600080fd5b8235905067ffffffffffffffff8111156113e457600080fd5b6020830191508360018202830111156113fc57600080fd5b9250929050565b60008135905061141281611fb6565b92915050565b60008135905061142781611fcd565b92915050565b6000610100828403121561144057600080fd5b81905092915050565b60006040828403121561145b57600080fd5b81905092915050565b60008135905061147381611fe4565b92915050565b60008151905061148881611fe4565b92915050565b6000602082840312156114a057600080fd5b60006114ae84828501611365565b91505092915050565b6000602082840312156114c957600080fd5b60006114d7848285016113a4565b91505092915050565b6000806000806000608086880312156114f857600080fd5b600086013567ffffffffffffffff81111561151257600080fd5b61151e888289016113b9565b955095505060206115318882890161138f565b935050604061154288828901611464565b925050606086013567ffffffffffffffff81111561155f57600080fd5b61156b8882890161142d565b9150509295509295909350565b60006020828403121561158a57600080fd5b600061159884828501611403565b91505092915050565b6000602082840312156115b357600080fd5b60006115c184828501611418565b91505092915050565b6000602082840312156115dc57600080fd5b600082013567ffffffffffffffff8111156115f657600080fd5b61160284828501611449565b91505092915050565b6000806000806000806080878903121561162457600080fd5b600087013567ffffffffffffffff81111561163e57600080fd5b61164a89828a01611449565b965050602087013567ffffffffffffffff81111561166757600080fd5b61167389828a016113b9565b9550955050604087013567ffffffffffffffff81111561169257600080fd5b61169e89828a016113b9565b935093505060606116b189828a01611464565b9150509295509295509295565b6000602082840312156116d057600080fd5b60006116de84828501611464565b91505092915050565b6000602082840312156116f957600080fd5b600061170784828501611479565b91505092915050565b6000806040838503121561172357600080fd5b600061173185828601611464565b92505060206117428582860161137a565b9150509250929050565b61175581611eb4565b82525050565b61176481611e35565b82525050565b61177381611e23565b82525050565b61178281611e47565b82525050565b600061179382611de0565b61179d8185611df6565b93506117ad818560208601611f20565b6117b681611f53565b840191505092915050565b60006117cc82611de0565b6117d68185611e07565b93506117e6818560208601611f20565b80840191505092915050565b6117fb81611ec6565b82525050565b61180a81611eea565b82525050565b600061181b82611deb565b6118258185611e12565b9350611835818560208601611f20565b61183e81611f53565b840191505092915050565b6000611856601f83611e12565b91507f696e76616c696420666f7277617264657220666f7220726563697069656e74006000830152602082019050919050565b6000611896602683611e12565b91507f4f776e61626c653a206e6577206f776e657220697320746865207a65726f206160008301527f64647265737300000000000000000000000000000000000000000000000000006020830152604082019050919050565b60006118fc601983611e12565b91507f72656c6179206875622061646472657373206e6f7420736574000000000000006000830152602082019050919050565b600061193c601883611e12565b91507f466f72776172646572206973206e6f74207472757374656400000000000000006000830152602082019050919050565b600061197c602c83611e12565b91507f697354727573746564466f727761726465722072657475726e656420696e766160008301527f6c696420726573706f6e736500000000000000000000000000000000000000006020830152604082019050919050565b60006119e2601b83611e12565b91507f697354727573746564466f7277617264657220726576657274656400000000006000830152602082019050919050565b6000611a22600b83611e12565b91507f4e6f7420616c6c6f7765640000000000000000000000000000000000000000006000830152602082019050919050565b6000611a62602083611e12565b91507f4f776e61626c653a2063616c6c6572206973206e6f7420746865206f776e65726000830152602082019050919050565b6000611aa2601383611e12565b91507f57617463686572206e6f7420616c6c6f776564000000000000000000000000006000830152602082019050919050565b606082016000820151611aeb6000850182611b17565b506020820151611afe6020850182611b17565b506040820151611b116040850182611b17565b50505050565b611b2081611eaa565b82525050565b611b2f81611eaa565b82525050565b6000611b4182846117c1565b915081905092915050565b6000602082019050611b61600083018461176a565b92915050565b6000602082019050611b7c600083018461174c565b92915050565b6000604082019050611b97600083018561176a565b611ba46020830184611801565b9392505050565b60006040820190508181036000830152611bc58185611788565b9050611bd46020830184611779565b9392505050565b6000602082019050611bf060008301846117f2565b92915050565b60006020820190508181036000830152611c108184611810565b905092915050565b60006020820190508181036000830152611c3181611849565b9050919050565b60006020820190508181036000830152611c5181611889565b9050919050565b60006020820190508181036000830152611c71816118ef565b9050919050565b60006020820190508181036000830152611c918161192f565b9050919050565b60006020820190508181036000830152611cb18161196f565b9050919050565b60006020820190508181036000830152611cd1816119d5565b9050919050565b60006020820190508181036000830152611cf181611a15565b9050919050565b60006020820190508181036000830152611d1181611a55565b9050919050565b60006020820190508181036000830152611d3181611a95565b9050919050565b6000606082019050611d4d6000830184611ad5565b92915050565b6000602082019050611d686000830184611b26565b92915050565b6000604082019050611d836000830185611b26565b611d90602083018461175b565b9392505050565b60008235600160c003833603038112611daf57600080fd5b80830191505092915050565b60008235600161010003833603038112611dd457600080fd5b80830191505092915050565b600081519050919050565b600081519050919050565b600082825260208201905092915050565b600081905092915050565b600082825260208201905092915050565b6000611e2e82611e8a565b9050919050565b6000611e4082611e8a565b9050919050565b60008115159050919050565b6000611e5e82611e23565b9050919050565b6000611e7082611e23565b9050919050565b6000819050611e8582611f64565b919050565b600073ffffffffffffffffffffffffffffffffffffffff82169050919050565b6000819050919050565b6000611ebf82611efc565b9050919050565b6000611ed182611ed8565b9050919050565b6000611ee382611e8a565b9050919050565b6000611ef582611e77565b9050919050565b6000611f0782611f0e565b9050919050565b6000611f1982611e8a565b9050919050565b60005b83811015611f3e578082015181840152602081019050611f23565b83811115611f4d576000848401525b50505050565b6000601f19601f8301169050919050565b60038110611f6e57fe5b50565b611f7a81611e23565b8114611f8557600080fd5b50565b611f9181611e35565b8114611f9c57600080fd5b50565b611fa881611e47565b8114611fb357600080fd5b50565b611fbf81611e53565b8114611fca57600080fd5b50565b611fd681611e65565b8114611fe157600080fd5b50565b611fed81611eaa565b8114611ff857600080fd5b5056fea2646970667358221220bcf4aa092041024dfd7e254de61841b6214c01b554b5e69fdbe4a190d1f50b4964736f6c634300060c0033",
  "immutableReferences": {},
  "source": "pragma solidity >0.6.0 <=0.7.1;\npragma experimental ABIEncoderV2;\n\n// SPDX-License-Identifier: MIT OR Apache-2.0\n\nimport {User} from \"../User.sol\";\nimport \"@opengsn/gsn/contracts/forwarder/IForwarder.sol\";\nimport \"@opengsn/gsn/contracts/BasePaymaster.sol\";\n\ncontract MachuPicchuPaymentmaster is BasePaymaster {\n    address public mainContract;\n    User userContract;\n\n    // allow the owner to set ourTarget\n    event TargetSet(address target);\n\n    constructor(address _mainC, address payable _userC) public {\n        mainContract = _mainC;\n        userContract = User(_userC);\n    }\n\n    event PreRelayed(uint256);\n    event PostRelayed(uint256);\n\n    function preRelayedCall(\n        GsnTypes.RelayRequest calldata relayRequest,\n        bytes calldata signature,\n        bytes calldata approvalData,\n        uint256 maxPossibleGas\n    ) external virtual override returns (bytes memory context, bool) {\n        _verifyForwarder(relayRequest);\n        (signature, approvalData, maxPossibleGas);\n\n        require(\n            relayRequest.request.to == mainContract ||\n                relayRequest.request.to == address(userContract),\n            \"Not allowed\"\n        );\n\n        if (relayRequest.request.to == mainContract) {\n            if (\n                userContract.checkUserRole(\n                    relayRequest.request.from,\n                    User.UserType(1)\n                )\n            ) {\n                revert(\"Watcher not allowed\");\n            }\n        }\n\n        return (abi.encode(now), false);\n    }\n\n    function postRelayedCall(\n        bytes calldata context,\n        bool success,\n        uint256 gasUseWithoutPost,\n        GsnTypes.RelayData calldata relayData\n    ) external virtual override {\n        (context, success, gasUseWithoutPost, relayData);\n        emit PostRelayed(abi.decode(context, (uint256)));\n    }\n\n    function versionPaymaster()\n        external\n        virtual\n        override\n        view\n        returns (string memory)\n    {\n        return \"1.0\";\n    }\n}\n",
  "sourcePath": "/home/kuldeep/ETHEREUM/MachuPichu/hackathon/contracts/opengsn/paymaster.sol",
  "compiler": {
    "name": "solc",
    "version": "0.6.12+commit.27d51765.Emscripten.clang"
  },
  "schemaVersion": "3.2.5",
  "updatedAt": "2020-10-19T18:40:41.839Z",
  "networkType": "ethereum",
  "devdoc": {
    "kind": "dev",
    "methods": {
      "owner()": {
        "details": "Returns the address of the current owner."
      },
      "postRelayedCall(bytes,bool,uint256,(uint256,uint256,uint256,address,address,bytes,uint256,address))": {
        "params": {
          "context": "- the call context, as returned by the preRelayedCall",
          "gasUseWithoutPost": "- the actual amount of gas used by the entire transaction, EXCEPT        the gas used by the postRelayedCall itself.",
          "relayData": "- the relay params of the request. can be used by relayHub.calculateCharge() Revert in this functions causes a revert of the client's relayed call (and preRelayedCall(), but the Paymaster is still committed to pay the relay for the entire transaction.",
          "success": "- true if the relayed call succeeded, false if it reverted"
        }
      },
      "preRelayedCall(((address,address,uint256,uint256,uint256,bytes),(uint256,uint256,uint256,address,address,bytes,uint256,address)),bytes,bytes,uint256)": {
        "params": {
          "approvalData": "- extra dapp-specific data (e.g. signature from trusted party)",
          "maxPossibleGas": "- based on values returned from {@link getGasLimits},         the RelayHub will calculate the maximum possible amount of gas the user may be charged for.         In order to convert this value to wei, the Paymaster has to call \"relayHub.calculateCharge()\"  return:      a context to be passed to postRelayedCall      rejectOnRecipientRevert - TRUE if paymaster want to reject the TX if the recipient reverts.          FALSE means that rejects by the recipient will be completed on chain, and paid by the paymaster.          (note that in the latter case, the preRelayedCall and postRelayedCall are not reverted).",
          "relayRequest": "- the full relay request structure",
          "signature": "- user's EIP712-compatible signature of the {@link relayRequest}.              Note that in most cases the paymaster shouldn't try use it at all. It is always checked              by the forwarder immediately after preRelayedCall returns."
        }
      },
      "renounceOwnership()": {
        "details": "Leaves the contract without owner. It will not be possible to call `onlyOwner` functions anymore. Can only be called by the current owner. NOTE: Renouncing ownership will leave the contract without an owner, thereby removing any functionality that is only available to the owner."
      },
      "transferOwnership(address)": {
        "details": "Transfers ownership of the contract to a new account (`newOwner`). Can only be called by the current owner."
      }
    },
    "version": 1
  },
  "userdoc": {
    "kind": "user",
    "methods": {
      "getGasLimits()": {
        "notice": "Return the GasLimits constants used by the Paymaster."
      },
      "getHubAddr()": {
        "notice": "return the relayHub of this contract."
      },
      "getRelayHubDeposit()": {
        "notice": "check current deposit on relay hub."
      },
      "postRelayedCall(bytes,bool,uint256,(uint256,uint256,uint256,address,address,bytes,uint256,address))": {
        "notice": "This method is called after the actual relayed function call. It may be used to record the transaction (e.g. charge the caller by some contract logic) for this call. MUST be protected with relayHubOnly() in case it modifies state."
      },
      "preRelayedCall(((address,address,uint256,uint256,uint256,bytes),(uint256,uint256,uint256,address,address,bytes,uint256,address)),bytes,bytes,uint256)": {
        "notice": "Called by Relay (and RelayHub), to validate if the paymaster agrees to pay for this call. MUST be protected with relayHubOnly() in case it modifies state. The Paymaster rejects by the following \"revert\" operations  - preRelayedCall() method reverts  - the forwarder reverts because of nonce or signature error  - the paymaster returned \"rejectOnRecipientRevert\", and the recipient contract reverted. In any of the above cases, all paymaster calls (and recipient call) are reverted. In any other case, the paymaster agrees to pay for the gas cost of the transaction (note  that this includes also postRelayedCall revert) The rejectOnRecipientRevert flag means the Paymaster \"delegate\" the rejection to the recipient  code.  It also means the Paymaster trust the recipient to reject fast: both preRelayedCall,  forwarder check and receipient checks must fit into the GasLimits.acceptanceBudget,  otherwise the TX is paid by the Paymaster."
      },
      "withdrawRelayHubDepositTo(uint256,address)": {
        "notice": "withdraw deposit from relayHub"
      }
    },
    "version": 1
  }
}