{
  "contractName": "MachuPicchu",
  "abi": [
    {
      "inputs": [
        {
          "internalType": "address payable",
          "name": "_userContract",
          "type": "address"
        },
        {
          "internalType": "address",
          "name": "_tokenContract",
          "type": "address"
        }
      ],
      "stateMutability": "nonpayable",
      "type": "constructor"
    },
    {
      "anonymous": false,
      "inputs": [
        {
          "indexed": false,
          "internalType": "address",
          "name": "member",
          "type": "address"
        },
        {
          "indexed": false,
          "internalType": "uint256",
          "name": "amount",
          "type": "uint256"
        }
      ],
      "name": "CompensationTransfer",
      "type": "event"
    },
    {
      "anonymous": false,
      "inputs": [
        {
          "indexed": false,
          "internalType": "address",
          "name": "memberAddress",
          "type": "address"
        },
        {
          "indexed": false,
          "internalType": "uint256",
          "name": "amount",
          "type": "uint256"
        }
      ],
      "name": "NewContribution",
      "type": "event"
    },
    {
      "anonymous": false,
      "inputs": [
        {
          "indexed": false,
          "internalType": "address",
          "name": "memberAddress",
          "type": "address"
        }
      ],
      "name": "NewMember",
      "type": "event"
    },
    {
      "anonymous": false,
      "inputs": [
        {
          "indexed": true,
          "internalType": "address",
          "name": "",
          "type": "address"
        },
        {
          "indexed": true,
          "internalType": "uint24",
          "name": "",
          "type": "uint24"
        }
      ],
      "name": "watcherAssessedGroup",
      "type": "event"
    },
    {
      "anonymous": false,
      "inputs": [
        {
          "indexed": true,
          "internalType": "address",
          "name": "",
          "type": "address"
        },
        {
          "indexed": true,
          "internalType": "uint8",
          "name": "",
          "type": "uint8"
        },
        {
          "indexed": false,
          "internalType": "uint256",
          "name": "",
          "type": "uint256"
        }
      ],
      "name": "watcherStakedForMonth",
      "type": "event"
    },
    {
      "inputs": [],
      "name": "assessmentId",
      "outputs": [
        {
          "internalType": "uint256",
          "name": "",
          "type": "uint256"
        }
      ],
      "stateMutability": "view",
      "type": "function",
      "constant": true
    },
    {
      "inputs": [
        {
          "internalType": "uint8",
          "name": "",
          "type": "uint8"
        },
        {
          "internalType": "address",
          "name": "",
          "type": "address"
        }
      ],
      "name": "compensationAmount",
      "outputs": [
        {
          "internalType": "uint256",
          "name": "",
          "type": "uint256"
        }
      ],
      "stateMutability": "view",
      "type": "function",
      "constant": true
    },
    {
      "inputs": [],
      "name": "currentMonth",
      "outputs": [
        {
          "internalType": "uint8",
          "name": "",
          "type": "uint8"
        }
      ],
      "stateMutability": "view",
      "type": "function",
      "constant": true
    },
    {
      "inputs": [],
      "name": "group1Loss",
      "outputs": [
        {
          "internalType": "uint256",
          "name": "",
          "type": "uint256"
        }
      ],
      "stateMutability": "view",
      "type": "function",
      "constant": true
    },
    {
      "inputs": [],
      "name": "group2Loss",
      "outputs": [
        {
          "internalType": "uint256",
          "name": "",
          "type": "uint256"
        }
      ],
      "stateMutability": "view",
      "type": "function",
      "constant": true
    },
    {
      "inputs": [],
      "name": "group3Loss",
      "outputs": [
        {
          "internalType": "uint256",
          "name": "",
          "type": "uint256"
        }
      ],
      "stateMutability": "view",
      "type": "function",
      "constant": true
    },
    {
      "inputs": [
        {
          "internalType": "address",
          "name": "",
          "type": "address"
        }
      ],
      "name": "members",
      "outputs": [
        {
          "internalType": "string",
          "name": "name",
          "type": "string"
        },
        {
          "internalType": "string",
          "name": "village",
          "type": "string"
        },
        {
          "internalType": "uint256",
          "name": "lat",
          "type": "uint256"
        },
        {
          "internalType": "uint256",
          "name": "lng",
          "type": "uint256"
        },
        {
          "internalType": "uint256",
          "name": "contribution",
          "type": "uint256"
        },
        {
          "internalType": "uint256",
          "name": "onboardingDate",
          "type": "uint256"
        },
        {
          "internalType": "uint256",
          "name": "mobileNo",
          "type": "uint256"
        },
        {
          "internalType": "uint24",
          "name": "groupId",
          "type": "uint24"
        },
        {
          "internalType": "uint256",
          "name": "merit",
          "type": "uint256"
        }
      ],
      "stateMutability": "view",
      "type": "function",
      "constant": true
    },
    {
      "inputs": [
        {
          "internalType": "uint256",
          "name": "",
          "type": "uint256"
        }
      ],
      "name": "membersAddresses",
      "outputs": [
        {
          "internalType": "address",
          "name": "",
          "type": "address"
        }
      ],
      "stateMutability": "view",
      "type": "function",
      "constant": true
    },
    {
      "inputs": [],
      "name": "owner",
      "outputs": [
        {
          "internalType": "address payable",
          "name": "",
          "type": "address"
        }
      ],
      "stateMutability": "view",
      "type": "function",
      "constant": true
    },
    {
      "inputs": [],
      "name": "pot",
      "outputs": [
        {
          "internalType": "uint256",
          "name": "",
          "type": "uint256"
        }
      ],
      "stateMutability": "view",
      "type": "function",
      "constant": true
    },
    {
      "inputs": [],
      "name": "startTime",
      "outputs": [
        {
          "internalType": "uint256",
          "name": "",
          "type": "uint256"
        }
      ],
      "stateMutability": "view",
      "type": "function",
      "constant": true
    },
    {
      "inputs": [],
      "name": "totalGroups",
      "outputs": [
        {
          "internalType": "uint8",
          "name": "",
          "type": "uint8"
        }
      ],
      "stateMutability": "view",
      "type": "function",
      "constant": true
    },
    {
      "inputs": [
        {
          "internalType": "string",
          "name": "_name",
          "type": "string"
        },
        {
          "internalType": "string",
          "name": "_village",
          "type": "string"
        },
        {
          "internalType": "uint256",
          "name": "_lat",
          "type": "uint256"
        },
        {
          "internalType": "uint256",
          "name": "_lng",
          "type": "uint256"
        },
        {
          "internalType": "uint256",
          "name": "_mobileNo",
          "type": "uint256"
        }
      ],
      "name": "onboardMember",
      "outputs": [],
      "stateMutability": "nonpayable",
      "type": "function"
    },
    {
      "inputs": [
        {
          "internalType": "uint256",
          "name": "amount",
          "type": "uint256"
        }
      ],
      "name": "contribute",
      "outputs": [],
      "stateMutability": "nonpayable",
      "type": "function"
    },
    {
      "inputs": [
        {
          "internalType": "uint24",
          "name": "groupId",
          "type": "uint24"
        },
        {
          "internalType": "uint8",
          "name": "_all",
          "type": "uint8"
        }
      ],
      "name": "doAssessmentForAGroup",
      "outputs": [],
      "stateMutability": "nonpayable",
      "type": "function"
    },
    {
      "inputs": [
        {
          "internalType": "uint8",
          "name": "monthId",
          "type": "uint8"
        },
        {
          "internalType": "uint24",
          "name": "groupId",
          "type": "uint24"
        }
      ],
      "name": "getAssessmentsOfAGroup",
      "outputs": [
        {
          "internalType": "uint256[]",
          "name": "",
          "type": "uint256[]"
        }
      ],
      "stateMutability": "view",
      "type": "function",
      "constant": true
    },
    {
      "inputs": [
        {
          "internalType": "uint8",
          "name": "monthId",
          "type": "uint8"
        }
      ],
      "name": "getAssessmentsDoneByAWatcher",
      "outputs": [
        {
          "internalType": "uint256[]",
          "name": "",
          "type": "uint256[]"
        }
      ],
      "stateMutability": "view",
      "type": "function",
      "constant": true
    },
    {
      "inputs": [
        {
          "internalType": "uint256",
          "name": "_id",
          "type": "uint256"
        }
      ],
      "name": "getAssessmentDetail",
      "outputs": [
        {
          "components": [
            {
              "internalType": "uint256",
              "name": "id",
              "type": "uint256"
            },
            {
              "internalType": "uint24",
              "name": "groupId",
              "type": "uint24"
            },
            {
              "internalType": "uint8",
              "name": "all",
              "type": "uint8"
            },
            {
              "internalType": "uint256",
              "name": "time",
              "type": "uint256"
            }
          ],
          "internalType": "struct MachuPicchu.Assessment",
          "name": "",
          "type": "tuple"
        }
      ],
      "stateMutability": "view",
      "type": "function",
      "constant": true
    },
    {
      "inputs": [
        {
          "internalType": "uint256",
          "name": "amount",
          "type": "uint256"
        }
      ],
      "name": "stake",
      "outputs": [],
      "stateMutability": "nonpayable",
      "type": "function"
    },
    {
      "inputs": [],
      "name": "getTotalStakeAmounts",
      "outputs": [
        {
          "internalType": "uint256",
          "name": "",
          "type": "uint256"
        }
      ],
      "stateMutability": "view",
      "type": "function",
      "constant": true
    },
    {
      "inputs": [
        {
          "internalType": "uint8",
          "name": "monthId",
          "type": "uint8"
        }
      ],
      "name": "getStakedAmountInAMonth",
      "outputs": [
        {
          "internalType": "uint256",
          "name": "",
          "type": "uint256"
        }
      ],
      "stateMutability": "view",
      "type": "function",
      "constant": true
    },
    {
      "inputs": [],
      "name": "getCurrentMonth",
      "outputs": [
        {
          "internalType": "uint8",
          "name": "",
          "type": "uint8"
        }
      ],
      "stateMutability": "view",
      "type": "function",
      "constant": true
    },
    {
      "inputs": [],
      "name": "monthlyLossCalculation",
      "outputs": [],
      "stateMutability": "nonpayable",
      "type": "function"
    },
    {
      "inputs": [],
      "name": "calcCompensation",
      "outputs": [],
      "stateMutability": "nonpayable",
      "type": "function"
    },
    {
      "inputs": [],
      "name": "payoutCompensation",
      "outputs": [],
      "stateMutability": "nonpayable",
      "type": "function"
    }
  ],
  "bytecode": "0x60806040526003600460006101000a81548160ff021916908360ff16021790555060006005556000600655600060075560306008553480156200004157600080fd5b50604051620034de380380620034de83398181016040528101906200006791906200018a565b6000600381905550426001819055506000600260006101000a81548160ff021916908360ff16021790555081600960006101000a81548173ffffffffffffffffffffffffffffffffffffffff021916908373ffffffffffffffffffffffffffffffffffffffff16021790555080600a60006101000a81548173ffffffffffffffffffffffffffffffffffffffff021916908373ffffffffffffffffffffffffffffffffffffffff160217905550336000806101000a81548173ffffffffffffffffffffffffffffffffffffffff021916908373ffffffffffffffffffffffffffffffffffffffff160217905550505062000247565b6000815190506200016d8162000213565b92915050565b60008151905062000184816200022d565b92915050565b600080604083850312156200019e57600080fd5b6000620001ae8582860162000173565b9250506020620001c1858286016200015c565b9150509250929050565b6000620001d882620001f3565b9050919050565b6000620001ec82620001f3565b9050919050565b600073ffffffffffffffffffffffffffffffffffffffff82169050919050565b6200021e81620001cb565b81146200022a57600080fd5b50565b6200023881620001df565b81146200024457600080fd5b50565b61328780620002576000396000f3fe608060405234801561001057600080fd5b50600436106101735760003560e01c806378e97925116100de578063bd20321911610097578063d5fb94ea11610071578063d5fb94ea1461040c578063ddd1b67e1461043c578063e2fc1ab41461045a578063e972e2781461048a57610173565b8063bd203219146103b4578063c1cbbca7146103d2578063c75f2893146103ee57610173565b806378e97925146102f0578063839b42991461030e578063862a4d471461033e5780638da5cb5b1461035c578063969109d61461037a578063a694fc3a1461039857610173565b806348efb8081161013057806348efb8081461021a5780634ba2363a1461024a5780634f6e8388146102685780635ee5a3c61461028457806363fe0413146102b457806369d1dca3146102d257610173565b806308ae4b0c146101785780630b98e590146101b057806310251063146101ba57806318c9b979146101c45780632ac8df54146101e05780632b740d44146101ea575b600080fd5b610192600480360381019061018d91906127ee565b6104a8565b6040516101a799989796959493929190612e9b565b60405180910390f35b6101b8610635565b005b6101c26108e5565b005b6101de60048036038101906101d99190612840565b610bd2565b005b6101e8611022565b005b61020460048036038101906101ff9190612955565b6114da565b6040516102119190613031565b60405180910390f35b610234600480360381019061022f9190612955565b611640565b6040516102419190612e79565b60405180910390f35b6102526117ee565b60405161025f9190613031565b60405180910390f35b610282600480360381019061027d91906128f0565b6117f4565b005b61029e6004803603810190610299919061292c565b611be3565b6040516102ab9190612d76565b60405180910390f35b6102bc611c1f565b6040516102c99190613031565b60405180910390f35b6102da611c25565b6040516102e79190613031565b60405180910390f35b6102f8611db0565b6040516103059190613031565b60405180910390f35b610328600480360381019061032391906129ba565b611db6565b6040516103359190612e79565b60405180910390f35b610346611e43565b604051610353919061304c565b60405180910390f35b610364611e56565b6040516103719190612dac565b60405180910390f35b610382611e7a565b60405161038f9190613031565b60405180910390f35b6103b260048036038101906103ad919061292c565b611e80565b005b6103bc612192565b6040516103c99190613031565b60405180910390f35b6103ec60048036038101906103e7919061292c565b612198565b005b6103f66123c3565b604051610403919061304c565b60405180910390f35b6104266004803603810190610421919061297e565b6123d6565b6040516104339190613031565b60405180910390f35b6104446123fb565b604051610451919061304c565b60405180910390f35b610474600480360381019061046f919061292c565b61243b565b6040516104819190613016565b60405180910390f35b6104926124bc565b60405161049f9190613031565b60405180910390f35b600b602052806000526040600020600091509050806000018054600181600116156101000203166002900480601f0160208091040260200160405190810160405280929190818152602001828054600181600116156101000203166002900480156105545780601f1061052957610100808354040283529160200191610554565b820191906000526020600020905b81548152906001019060200180831161053757829003601f168201915b505050505090806001018054600181600116156101000203166002900480601f0160208091040260200160405190810160405280929190818152602001828054600181600116156101000203166002900480156105f25780601f106105c7576101008083540402835291602001916105f2565b820191906000526020600020905b8154815290600101906020018083116105d557829003601f168201915b5050505050908060020154908060030154908060040154908060050154908060060154908060070160009054906101000a900462ffffff16908060080154905089565b336000600960009054906101000a900473ffffffffffffffffffffffffffffffffffffffff1673ffffffffffffffffffffffffffffffffffffffff166342584166836000600281111561068457fe5b6040518363ffffffff1660e01b81526004016106a1929190612e27565b60206040518083038186803b1580156106b957600080fd5b505afa1580156106cd573d6000803e3d6000fd5b505050506040513d601f19601f820116820180604052508101906106f19190612817565b905080610733576040517f08c379a000000000000000000000000000000000000000000000000000000000815260040161072a90612fd6565b60405180910390fd5b600060116000600260009054906101000a900460ff1660ff1660ff16815260200190815260200160002060003373ffffffffffffffffffffffffffffffffffffffff1673ffffffffffffffffffffffffffffffffffffffff168152602001908152602001600020549050600060116000600260009054906101000a900460ff1660ff1660ff16815260200190815260200160002060003373ffffffffffffffffffffffffffffffffffffffff1673ffffffffffffffffffffffffffffffffffffffff1681526020019081526020016000208190555080601260008282540392505081905550600a60009054906101000a900473ffffffffffffffffffffffffffffffffffffffff1673ffffffffffffffffffffffffffffffffffffffff16636161eb1830836040518363ffffffff1660e01b8152600401610875929190612e50565b600060405180830381600087803b15801561088f57600080fd5b505af11580156108a3573d6000803e3d6000fd5b505050507fe80c8b490c4c971de833ac047f72f9c82c6d3fec94ce2b3bc0f2e51e54972c4333826040516108d8929190612dfe565b60405180910390a1505050565b60008054906101000a900473ffffffffffffffffffffffffffffffffffffffff1673ffffffffffffffffffffffffffffffffffffffff163373ffffffffffffffffffffffffffffffffffffffff1614610973576040517f08c379a000000000000000000000000000000000000000000000000000000000815260040161096a90612f56565b60405180910390fd5b6000600e6000600260009054906101000a900460ff1660ff1660ff1681526020019081526020016000209050600080600080600090505b846000600162ffffff16815260200190815260200160002080549050811015610a3257600f6000866000600162ffffff16815260200190815260200160002083815481106109f457fe5b9060005260206000200154815260200190815260200160002060010160039054906101000a900460ff1660ff168401935080806001019150506109aa565b5060005b846000600262ffffff16815260200190815260200160002080549050811015610abe57600f6000866000600262ffffff1681526020019081526020016000208381548110610a8057fe5b9060005260206000200154815260200190815260200160002060010160039054906101000a900460ff1660ff16830192508080600101915050610a36565b5060005b846000600362ffffff16815260200190815260200160002080549050811015610b4a57600f6000866000600362ffffff1681526020019081526020016000208381548110610b0c57fe5b9060005260206000200154815260200190815260200160002060010160039054906101000a900460ff1660ff16820191508080600101915050610ac2565b50836000600162ffffff168152602001908152602001600020805490508381610b6f57fe5b04600581905550836000600262ffffff168152602001908152602001600020805490508281610b9a57fe5b04600681905550836000600362ffffff168152602001908152602001600020805490508181610bc557fe5b0460078190555050505050565b336000600960009054906101000a900473ffffffffffffffffffffffffffffffffffffffff1673ffffffffffffffffffffffffffffffffffffffff1663425841668360006002811115610c2157fe5b6040518363ffffffff1660e01b8152600401610c3e929190612e27565b60206040518083038186803b158015610c5657600080fd5b505afa158015610c6a573d6000803e3d6000fd5b505050506040513d601f19601f82011682018060405250810190610c8e9190612817565b905080610cd0576040517f08c379a0000000000000000000000000000000000000000000000000000000008152600401610cc790612fd6565b60405180910390fd5b6000600b60003373ffffffffffffffffffffffffffffffffffffffff1673ffffffffffffffffffffffffffffffffffffffff1681526020019081526020016000206005015414610d55576040517f08c379a0000000000000000000000000000000000000000000000000000000008152600401610d4c90612fb6565b60405180910390fd5b8888600b60003373ffffffffffffffffffffffffffffffffffffffff1673ffffffffffffffffffffffffffffffffffffffff1681526020019081526020016000206000019190610da692919061261d565b508686600b60003373ffffffffffffffffffffffffffffffffffffffff1673ffffffffffffffffffffffffffffffffffffffff1681526020019081526020016000206001019190610df892919061261d565b5084600b60003373ffffffffffffffffffffffffffffffffffffffff1673ffffffffffffffffffffffffffffffffffffffff1681526020019081526020016000206002018190555083600b60003373ffffffffffffffffffffffffffffffffffffffff1673ffffffffffffffffffffffffffffffffffffffff1681526020019081526020016000206003018190555042600b60003373ffffffffffffffffffffffffffffffffffffffff1673ffffffffffffffffffffffffffffffffffffffff1681526020019081526020016000206005018190555082600b60003373ffffffffffffffffffffffffffffffffffffffff1673ffffffffffffffffffffffffffffffffffffffff16815260200190815260200160002060060181905550610f1f85856124c2565b600b60003373ffffffffffffffffffffffffffffffffffffffff1673ffffffffffffffffffffffffffffffffffffffff16815260200190815260200160002060070160006101000a81548162ffffff021916908362ffffff160217905550600c339080600181540180825580915050600190039060005260206000200160009091909190916101000a81548173ffffffffffffffffffffffffffffffffffffffff021916908373ffffffffffffffffffffffffffffffffffffffff1602179055507fb4dcb6dd550f27b5917ebf674899ea7046ff91790c6f9f01431617ad39819db23360405161100f9190612d91565b60405180910390a1505050505050505050565b336000600960009054906101000a900473ffffffffffffffffffffffffffffffffffffffff1673ffffffffffffffffffffffffffffffffffffffff1663425841668360028081111561107057fe5b6040518363ffffffff1660e01b815260040161108d929190612e27565b60206040518083038186803b1580156110a557600080fd5b505afa1580156110b9573d6000803e3d6000fd5b505050506040513d601f19601f820116820180604052508101906110dd9190612817565b90508061111f576040517f08c379a000000000000000000000000000000000000000000000000000000000815260040161111690612f76565b60405180910390fd5b60005b600c805490508110156114bd5761113761269d565b600b6000600c848154811061114857fe5b9060005260206000200160009054906101000a900473ffffffffffffffffffffffffffffffffffffffff1673ffffffffffffffffffffffffffffffffffffffff1673ffffffffffffffffffffffffffffffffffffffff16815260200190815260200160002060405180610120016040529081600082018054600181600116156101000203166002900480601f0160208091040260200160405190810160405280929190818152602001828054600181600116156101000203166002900480156112525780601f1061122757610100808354040283529160200191611252565b820191906000526020600020905b81548152906001019060200180831161123557829003601f168201915b50505050508152602001600182018054600181600116156101000203166002900480601f0160208091040260200160405190810160405280929190818152602001828054600181600116156101000203166002900480156112f45780601f106112c9576101008083540402835291602001916112f4565b820191906000526020600020905b8154815290600101906020018083116112d757829003601f168201915b5050505050815260200160028201548152602001600382015481526020016004820154815260200160058201548152602001600682015481526020016007820160009054906101000a900462ffffff1662ffffff1662ffffff1681526020016008820154815250509050600060018260e0015162ffffff16141561137c5760055490506113b2565b60028260e0015162ffffff1614156113985760065490506113b1565b60038260e0015162ffffff1614156113b05760075490505b5b5b60006113f4600c85815481106113c457fe5b9060005260206000200160009054906101000a900473ffffffffffffffffffffffffffffffffffffffff16612508565b905060006064600854838502028161140857fe5b0490508060116000600260009054906101000a900460ff1660ff1660ff1681526020019081526020016000206000600c888154811061144357fe5b9060005260206000200160009054906101000a900473ffffffffffffffffffffffffffffffffffffffff1673ffffffffffffffffffffffffffffffffffffffff1673ffffffffffffffffffffffffffffffffffffffff16815260200190815260200160002081905550505050508080600101915050611122565b506000600581905550600060068190555060006007819055505050565b6000336000600960009054906101000a900473ffffffffffffffffffffffffffffffffffffffff1673ffffffffffffffffffffffffffffffffffffffff166342584166836001600281111561152b57fe5b6040518363ffffffff1660e01b8152600401611548929190612e27565b60206040518083038186803b15801561156057600080fd5b505afa158015611574573d6000803e3d6000fd5b505050506040513d601f19601f820116820180604052508101906115989190612817565b9050806115da576040517f08c379a00000000000000000000000000000000000000000000000000000000081526004016115d190612f36565b60405180910390fd5b6000600d60003373ffffffffffffffffffffffffffffffffffffffff1673ffffffffffffffffffffffffffffffffffffffff16815260200190815260200160002090508060008660ff1660ff168152602001908152602001600020549350505050919050565b6060336000600960009054906101000a900473ffffffffffffffffffffffffffffffffffffffff1673ffffffffffffffffffffffffffffffffffffffff166342584166836001600281111561169157fe5b6040518363ffffffff1660e01b81526004016116ae929190612e27565b60206040518083038186803b1580156116c657600080fd5b505afa1580156116da573d6000803e3d6000fd5b505050506040513d601f19601f820116820180604052508101906116fe9190612817565b905080611740576040517f08c379a000000000000000000000000000000000000000000000000000000000815260040161173790612f36565b60405180910390fd5b601060008560ff1660ff16815260200190815260200160002060003373ffffffffffffffffffffffffffffffffffffffff1673ffffffffffffffffffffffffffffffffffffffff1681526020019081526020016000208054806020026020016040519081016040528092919081815260200182805480156117e057602002820191906000526020600020905b8154815260200190600101908083116117cc575b505050505092505050919050565b60125481565b336000600960009054906101000a900473ffffffffffffffffffffffffffffffffffffffff1673ffffffffffffffffffffffffffffffffffffffff166342584166836001600281111561184357fe5b6040518363ffffffff1660e01b8152600401611860929190612e27565b60206040518083038186803b15801561187857600080fd5b505afa15801561188c573d6000803e3d6000fd5b505050506040513d601f19601f820116820180604052508101906118b09190612817565b9050806118f2576040517f08c379a00000000000000000000000000000000000000000000000000000000081526004016118e990612f36565b60405180910390fd5b60006118fc6123fb565b9050600260009054906101000a900460ff1660ff168160ff1611156119375780600260006101000a81548160ff021916908360ff1602179055505b6014600d60003373ffffffffffffffffffffffffffffffffffffffff1673ffffffffffffffffffffffffffffffffffffffff1681526020019081526020016000206000600260009054906101000a900460ff1660ff1660ff16815260200190815260200160002054116119df576040517f08c379a00000000000000000000000000000000000000000000000000000000081526004016119d690612f96565b60405180910390fd5b6119e76126ee565b604051806080016040528060035481526020018762ffffff1681526020018660ff16815260200142815250905080600f600060035481526020019081526020016000206000820151816000015560208201518160010160006101000a81548162ffffff021916908362ffffff16021790555060408201518160010160036101000a81548160ff021916908360ff16021790555060608201518160020155905050600e6000600260009054906101000a900460ff1660ff1660ff16815260200190815260200160002060008762ffffff1662ffffff168152602001908152602001600020600354908060018154018082558091505060019003906000526020600020016000909190919091505560106000600260009054906101000a900460ff1660ff1660ff16815260200190815260200160002060003373ffffffffffffffffffffffffffffffffffffffff1673ffffffffffffffffffffffffffffffffffffffff16815260200190815260200160002060035490806001815401808255809150506001900390600052602060002001600090919091909150558562ffffff163373ffffffffffffffffffffffffffffffffffffffff167f92d22e89929e450e502266ea16c9dcc755d7c24516a06be8159306162162640b60405160405180910390a36001600360008282540192505081905550505050505050565b600c8181548110611bf057fe5b906000526020600020016000915054906101000a900473ffffffffffffffffffffffffffffffffffffffff1681565b60035481565b6000336000600960009054906101000a900473ffffffffffffffffffffffffffffffffffffffff1673ffffffffffffffffffffffffffffffffffffffff1663425841668360016002811115611c7657fe5b6040518363ffffffff1660e01b8152600401611c93929190612e27565b60206040518083038186803b158015611cab57600080fd5b505afa158015611cbf573d6000803e3d6000fd5b505050506040513d601f19601f82011682018060405250810190611ce39190612817565b905080611d25576040517f08c379a0000000000000000000000000000000000000000000000000000000008152600401611d1c90612f36565b60405180910390fd5b6000600d60003373ffffffffffffffffffffffffffffffffffffffff1673ffffffffffffffffffffffffffffffffffffffff1681526020019081526020016000209050600080600190505b600c8160ff1611611da5578260008260ff1660ff16815260200190815260200160002054820191508080600101915050611d70565b508094505050505090565b60015481565b6060600e60008460ff1660ff16815260200190815260200160002060008362ffffff1662ffffff168152602001908152602001600020805480602002602001604051908101604052809291908181526020018280548015611e3657602002820191906000526020600020905b815481526020019060010190808311611e22575b5050505050905092915050565b600260009054906101000a900460ff1681565b60008054906101000a900473ffffffffffffffffffffffffffffffffffffffff1681565b60075481565b336000600960009054906101000a900473ffffffffffffffffffffffffffffffffffffffff1673ffffffffffffffffffffffffffffffffffffffff1663425841668360016002811115611ecf57fe5b6040518363ffffffff1660e01b8152600401611eec929190612e27565b60206040518083038186803b158015611f0457600080fd5b505afa158015611f18573d6000803e3d6000fd5b505050506040513d601f19601f82011682018060405250810190611f3c9190612817565b905080611f7e576040517f08c379a0000000000000000000000000000000000000000000000000000000008152600401611f7590612f36565b60405180910390fd5b60148311611fc1576040517f08c379a0000000000000000000000000000000000000000000000000000000008152600401611fb890612ff6565b60405180910390fd5b6000611fcb6123fb565b9050600260009054906101000a900460ff1660ff168160ff1611156120065780600260006101000a81548160ff021916908360ff1602179055505b600a60009054906101000a900473ffffffffffffffffffffffffffffffffffffffff1673ffffffffffffffffffffffffffffffffffffffff166323b872dd3330876040518463ffffffff1660e01b815260040161206593929190612dc7565b602060405180830381600087803b15801561207f57600080fd5b505af1158015612093573d6000803e3d6000fd5b505050506040513d601f19601f820116820180604052508101906120b79190612817565b5083600d60003373ffffffffffffffffffffffffffffffffffffffff1673ffffffffffffffffffffffffffffffffffffffff1681526020019081526020016000206000600260009054906101000a900460ff1660ff1660ff16815260200190815260200160002060008282540192505081905550600260009054906101000a900460ff1660ff163373ffffffffffffffffffffffffffffffffffffffff167fd6f9eeaa8eb9168b187679e07e8014cb2ed1df85d3e443a48384b396b193044d866040516121849190613031565b60405180910390a350505050565b60065481565b336000600960009054906101000a900473ffffffffffffffffffffffffffffffffffffffff1673ffffffffffffffffffffffffffffffffffffffff16634258416683600060028111156121e757fe5b6040518363ffffffff1660e01b8152600401612204929190612e27565b60206040518083038186803b15801561221c57600080fd5b505afa158015612230573d6000803e3d6000fd5b505050506040513d601f19601f820116820180604052508101906122549190612817565b905080612296576040517f08c379a000000000000000000000000000000000000000000000000000000000815260040161228d90612fd6565b60405180910390fd5b600a60009054906101000a900473ffffffffffffffffffffffffffffffffffffffff1673ffffffffffffffffffffffffffffffffffffffff16634e6ec24730856040518363ffffffff1660e01b81526004016122f3929190612e50565b600060405180830381600087803b15801561230d57600080fd5b505af1158015612321573d6000803e3d6000fd5b5050505082600b60003373ffffffffffffffffffffffffffffffffffffffff1673ffffffffffffffffffffffffffffffffffffffff16815260200190815260200160002060040160008282540192505081905550826012600082825401925050819055507fbdaa686eb6f59012d211a74523da260341c516896e9e5be954163d6ecf26ffa233846040516123b6929190612dfe565b60405180910390a1505050565b600460009054906101000a900460ff1681565b6011602052816000526040600020602052806000526040600020600091509150505481565b6000600c601e6018603c8042600154038161241257fe5b048161241a57fe5b048161242257fe5b048161242a57fe5b0460ff168161243557fe5b06905090565b6124436126ee565b600f6000838152602001908152602001600020604051806080016040529081600082015481526020016001820160009054906101000a900462ffffff1662ffffff1662ffffff1681526020016001820160039054906101000a900460ff1660ff1660ff1681526020016002820154815250509050919050565b60055481565b6000808284019050600a81116124dc576001915050612502565b600a811180156124ed575060148111155b156124fc576002915050612502565b60039150505b92915050565b600080601e6018603c80600b60008873ffffffffffffffffffffffffffffffffffffffff1673ffffffffffffffffffffffffffffffffffffffff1681526020019081526020016000206005015442038161255e57fe5b048161256657fe5b048161256e57fe5b048161257657fe5b049050600060018201600b60008673ffffffffffffffffffffffffffffffffffffffff1673ffffffffffffffffffffffffffffffffffffffff16815260200190815260200160002060040154816125c957fe5b04905080600b60008673ffffffffffffffffffffffffffffffffffffffff1673ffffffffffffffffffffffffffffffffffffffff168152602001908152602001600020600801819055508092505050919050565b828054600181600116156101000203166002900490600052602060002090601f016020900481019282601f1061265e57803560ff191683800117855561268c565b8280016001018555821561268c579182015b8281111561268b578235825591602001919060010190612670565b5b509050612699919061271e565b5090565b60405180610120016040528060608152602001606081526020016000815260200160008152602001600081526020016000815260200160008152602001600062ffffff168152602001600081525090565b604051806080016040528060008152602001600062ffffff168152602001600060ff168152602001600081525090565b5b8082111561273757600081600090555060010161271f565b5090565b60008135905061274a816131de565b92915050565b60008151905061275f816131f5565b92915050565b60008083601f84011261277757600080fd5b8235905067ffffffffffffffff81111561279057600080fd5b6020830191508360018202830111156127a857600080fd5b9250929050565b6000813590506127be8161320c565b92915050565b6000813590506127d381613223565b92915050565b6000813590506127e88161323a565b92915050565b60006020828403121561280057600080fd5b600061280e8482850161273b565b91505092915050565b60006020828403121561282957600080fd5b600061283784828501612750565b91505092915050565b600080600080600080600060a0888a03121561285b57600080fd5b600088013567ffffffffffffffff81111561287557600080fd5b6128818a828b01612765565b9750975050602088013567ffffffffffffffff8111156128a057600080fd5b6128ac8a828b01612765565b955095505060406128bf8a828b016127c4565b93505060606128d08a828b016127c4565b92505060806128e18a828b016127c4565b91505092959891949750929550565b6000806040838503121561290357600080fd5b6000612911858286016127af565b9250506020612922858286016127d9565b9150509250929050565b60006020828403121561293e57600080fd5b600061294c848285016127c4565b91505092915050565b60006020828403121561296757600080fd5b6000612975848285016127d9565b91505092915050565b6000806040838503121561299157600080fd5b600061299f858286016127d9565b92505060206129b08582860161273b565b9150509250929050565b600080604083850312156129cd57600080fd5b60006129db858286016127d9565b92505060206129ec858286016127af565b9150509250929050565b6000612a028383612d3a565b60208301905092915050565b612a1781613145565b82525050565b612a26816130ce565b82525050565b612a35816130bc565b82525050565b6000612a4682613077565b612a50818561309a565b9350612a5b83613067565b8060005b83811015612a8c578151612a7388826129f6565b9750612a7e8361308d565b925050600181019050612a5f565b5085935050505092915050565b612aa281613157565b82525050565b6000612ab382613082565b612abd81856130ab565b9350612acd81856020860161318d565b612ad6816131c0565b840191505092915050565b6000612aee6015836130ab565b91507f596f7520617265206e6f742061207761746368657200000000000000000000006000830152602082019050919050565b6000612b2e6016836130ab565b91507f596f7520617265206e6f7420617574686f7269736564000000000000000000006000830152602082019050919050565b6000612b6e6015836130ab565b91507f596f7520617265206e6f74206120456e61626c657200000000000000000000006000830152602082019050919050565b6000612bae6016836130ab565b91507f596f752073686f756c64207374616b65206669727374000000000000000000006000830152602082019050919050565b6000612bee6019836130ab565b91507f6164647265737320616c7265616479206f6e626f6172646564000000000000006000830152602082019050919050565b6000612c2e6014836130ab565b91507f596f7520617265206e6f742061206d656d6265720000000000000000000000006000830152602082019050919050565b6000612c6e6023836130ab565b91507f596f7572207374616b6520616d6f756e74206973206e6f74207375666669636960008301527f656e7400000000000000000000000000000000000000000000000000000000006020830152604082019050919050565b608082016000820151612cdd6000850182612d3a565b506020820151612cf06020850182612d1c565b506040820151612d036040850182612d58565b506060820151612d166060850182612d3a565b50505050565b612d258161311f565b82525050565b612d348161311f565b82525050565b612d438161312e565b82525050565b612d528161312e565b82525050565b612d6181613138565b82525050565b612d7081613138565b82525050565b6000602082019050612d8b6000830184612a2c565b92915050565b6000602082019050612da66000830184612a0e565b92915050565b6000602082019050612dc16000830184612a1d565b92915050565b6000606082019050612ddc6000830186612a0e565b612de96020830185612a2c565b612df66040830184612d49565b949350505050565b6000604082019050612e136000830185612a0e565b612e206020830184612d49565b9392505050565b6000604082019050612e3c6000830185612a2c565b612e496020830184612a99565b9392505050565b6000604082019050612e656000830185612a2c565b612e726020830184612d49565b9392505050565b60006020820190508181036000830152612e938184612a3b565b905092915050565b6000610120820190508181036000830152612eb6818c612aa8565b90508181036020830152612eca818b612aa8565b9050612ed9604083018a612d49565b612ee66060830189612d49565b612ef36080830188612d49565b612f0060a0830187612d49565b612f0d60c0830186612d49565b612f1a60e0830185612d2b565b612f28610100830184612d49565b9a9950505050505050505050565b60006020820190508181036000830152612f4f81612ae1565b9050919050565b60006020820190508181036000830152612f6f81612b21565b9050919050565b60006020820190508181036000830152612f8f81612b61565b9050919050565b60006020820190508181036000830152612faf81612ba1565b9050919050565b60006020820190508181036000830152612fcf81612be1565b9050919050565b60006020820190508181036000830152612fef81612c21565b9050919050565b6000602082019050818103600083015261300f81612c61565b9050919050565b600060808201905061302b6000830184612cc7565b92915050565b60006020820190506130466000830184612d49565b92915050565b60006020820190506130616000830184612d67565b92915050565b6000819050602082019050919050565b600081519050919050565b600081519050919050565b6000602082019050919050565b600082825260208201905092915050565b600082825260208201905092915050565b60006130c7826130ff565b9050919050565b60006130d9826130ff565b9050919050565b60008115159050919050565b60008190506130fa826131d1565b919050565b600073ffffffffffffffffffffffffffffffffffffffff82169050919050565b600062ffffff82169050919050565b6000819050919050565b600060ff82169050919050565b600061315082613169565b9050919050565b6000613162826130ec565b9050919050565b60006131748261317b565b9050919050565b6000613186826130ff565b9050919050565b60005b838110156131ab578082015181840152602081019050613190565b838111156131ba576000848401525b50505050565b6000601f19601f8301169050919050565b600381106131db57fe5b50565b6131e7816130bc565b81146131f257600080fd5b50565b6131fe816130e0565b811461320957600080fd5b50565b6132158161311f565b811461322057600080fd5b50565b61322c8161312e565b811461323757600080fd5b50565b61324381613138565b811461324e57600080fd5b5056fea2646970667358221220c4fe9ebd54057975e9f93f2c975457c36c9bfd58b7a8ac1e0e905ae94d15528364736f6c63430007000033",
  "immutableReferences": {},
  "source": "// SPDX-License-Identifier: MIT\n\npragma solidity >0.6.0 <=0.7.1;\npragma experimental ABIEncoderV2;\n\nimport {User} from \"./User.sol\";\nimport {RUP} from \"./token/RUP.sol\";\n\ncontract MachuPicchu {\n\n  address payable public owner;\n  uint public startTime;\n   \n  uint8 public currentMonth;\n  uint public assessmentId;\n  uint8 public totalGroups = 3;\n  uint public group1Loss = 0;\n  uint public group2Loss = 0;\n  uint public group3Loss = 0;\n\n    \n  //Considering MTBF of the community as 48 months = 4 years\n  uint MTBF = 48;\n\n  User userContract;\n  RUP tokenContract;\n      \n  constructor(address payable _userContract, address _tokenContract) public {\n        assessmentId = 0;\n        startTime = block.timestamp;\n        currentMonth = 0;\n        userContract = User(_userContract);\n        tokenContract = RUP(_tokenContract);\n        owner = msg.sender;\n  }\n\n  /* Represent the information stored for each member */\n  struct Member {\n    string name;\n    string village;\n    uint lat;\n    uint lng;\n    uint contribution;\n    uint onboardingDate;\n    uint mobileNo;\n    uint24 groupId;\n    uint merit;\n  }\n\n  struct Assessment {\n      uint id;\n      uint24 groupId;\n      uint8 all;\n      uint time;\n  }\n\n  /* Public mapping between a member address to the member's details */\n  mapping (address => Member) public members;\n  address[] public membersAddresses;\n  mapping(address => mapping(uint8 => uint)) Stakes;\n  mapping (uint8 => mapping(uint24 => uint[])) groupAssessments;\n  mapping(uint =>  Assessment) Assessments;\n  mapping(uint8 => mapping(address => uint[])) watcherAssessments;\n  mapping(uint8 => mapping(address => uint)) public compensationAmount;\n\n  /* Public total amount of the pot (sum of all contributions) */\n  uint public pot;\n\n  modifier registeredMember(address _user) {\n        bool temp = userContract.checkUserRole(_user, User.UserType(0));\n        require(temp, \"You are not a member\");\n        _;\n  }\n\n  modifier registeredWatcher(address _user) {\n        bool temp = userContract.checkUserRole(_user, User.UserType(1));\n        require(temp, \"You are not a watcher\");\n        _;\n  }\n\n\n  modifier registeredEnabler(address _user) {\n        bool temp = userContract.checkUserRole(_user, User.UserType(2));\n        require(temp, \"You are not a Enabler\");\n        _;\n  }\n\n     \n    /* Event emitted at each onboarded member */\n  event NewMember (\n    address memberAddress\n  );\n\n  /* Event emitted at each contribution */\n  event NewContribution (\n    address memberAddress,\n    uint amount\n  );\n\n  event watcherStakedForMonth(address indexed, uint8 indexed, uint);\n\n  event watcherAssessedGroup(address indexed, uint24 indexed);\n\n  //Defining an event post Compensation amount Transfer\n  event CompensationTransfer (address member, uint amount);\n\n  /*\n    Register a new member.\n    Revert if:\n      - msg.sender is already registered  \n  */\n  function onboardMember(\n    string calldata _name,\n    string calldata _village,\n    uint _lat,\n    uint _lng,\n    uint _mobileNo\n  ) public  registeredMember(msg.sender) {\n    // Verifies that the address has never been registered\n    require(members[msg.sender].onboardingDate == 0, \"address already onboarded\");\n    // Stores member data\n    members[msg.sender].name = _name;\n    members[msg.sender].village = _village;\n    members[msg.sender].lat = _lat;\n    members[msg.sender].lng = _lng;\n    members[msg.sender].onboardingDate = block.timestamp;\n    members[msg.sender].mobileNo = _mobileNo;\n    members[msg.sender].groupId = getGroupId(_lat,_lng);\n    membersAddresses.push(msg.sender);\n    // Emit event\n    emit NewMember(msg.sender);\n  }\n\n  /*\n    Record new contribution.\n    Revert if: \n      - msg.sender is not registered\n      - no ETH is sent with the transaction\n  */\n  function contribute(uint amount)\n    public\n    registeredMember(msg.sender)\n    {\n      // OTP validation has to be done\n      // transfer tokens to this contract after minting on behalf of msg.sender\n      tokenContract._mint(address(this), (amount));\n      // Increments member's balance and pot\n      // TODO: should use SafeMath lib here\n      members[msg.sender].contribution += amount;\n      pot += amount;\n\n      emit NewContribution(\n        msg.sender,\n        amount\n      );\n    }\n\n  function getGroupId(uint _lat,uint _lng) private pure returns(uint24) {\n    // on the basis of _lat and _lng we will have to allot a groupId\n    uint t = _lat + _lng;\n    if(t <=10) {\n        return 1;\n    } else if (t> 10 && t<=20) {\n        return 2;\n    } else {\n        return 3;\n    }\n  }\n\n    /**\n     * To perform Assessment by a watcher for a particular group(group of fields) for the current month\n     * @param groupId Groupid alloted in User contract\n     * @param _all The final result by watcher\n     *  Before calling this, check if assessment done by this watcher for this group already\n    **/\n    function doAssessmentForAGroup(uint24 groupId, uint8 _all) public registeredWatcher(msg.sender) {\n        // check for nextMonth\n        uint8 nextMonth = getCurrentMonth();\n        if(nextMonth>currentMonth) {\n            currentMonth = nextMonth;\n        }\n        // require minimum amount staked\n        require(Stakes[msg.sender][currentMonth] > 20, \"You should stake first\");\n        //\n        // make Assessment object\n        Assessment memory asmt = Assessment({\n            id: assessmentId,\n            groupId: groupId,\n            all: _all,\n            time: block.timestamp\n        });\n        // add to Assessments list\n        Assessments[assessmentId] = asmt;\n        // add to groupAssessments list\n        groupAssessments[currentMonth][groupId].push(assessmentId);\n        // add to watcherAssessments list\n        watcherAssessments[currentMonth][msg.sender].push(assessmentId);\n        // event\n        emit watcherAssessedGroup(msg.sender, groupId);\n        // increment assessmentId by 1\n        assessmentId += 1;\n    }\n   \n    /**\n     * To get assessment of a group of a particular month\n     * @param monthId month-id\n     * @param groupId group-id\n     * @return array of assessment ids\n     *\n    **/\n    function getAssessmentsOfAGroup(uint8 monthId, uint24 groupId) public view returns(uint[] memory) {\n        return groupAssessments[monthId][groupId];\n    }\n   \n     /**\n     * To get assessment of a watcher of a particular month\n     * @param monthId month-id\n     * @return array of assessment ids\n     *\n    **/\n    function getAssessmentsDoneByAWatcher(uint8 monthId) public  view registeredWatcher(msg.sender) returns(uint[] memory) {\n        return watcherAssessments[monthId][msg.sender];\n    }\n   \n     /**\n     * To get detail of a particular assessment\n     * @param _id assessment-id\n     * @return Assessment struct\n     *\n    **/\n    function getAssessmentDetail(uint _id) public view returns(Assessment memory) {\n        return Assessments[_id];\n    }\n   \n     /**\n     * To stake/increment in stake for the currentMonth by a watcher\n     *\n    **/\n    function stake(uint amount) public registeredWatcher(msg.sender) {\n        require(amount > 20 , \"Your stake amount is not sufficient\");\n        // check for nextMonth\n        uint8 nextMonth = getCurrentMonth();\n        if(nextMonth>currentMonth) {\n            currentMonth = nextMonth;\n        }\n        tokenContract.transferFrom(msg.sender, address(this), amount);\n        Stakes[msg.sender][currentMonth] += amount;\n        emit watcherStakedForMonth(msg.sender, currentMonth, amount);\n    }\n   \n    /**\n     * To get total staked anount of a watcher\n     * @return total amount\n     *\n    **/\n    function getTotalStakeAmounts() public view registeredWatcher(msg.sender) returns(uint) {\n        mapping(uint8 => uint) storage temp = Stakes[msg.sender];\n        uint totakStakedAmount = 0;\n        for( uint8 i = 1 ; i<=12; i++) {\n            totakStakedAmount += temp[i];\n        }\n        return totakStakedAmount;\n    }  \n   \n     /**\n     * To get total staked anount of a watcher in a particular month\n     * @param monthId month-id\n     * @return total amount\n     *\n    **/\n    function getStakedAmountInAMonth(uint8 monthId) public view registeredWatcher(msg.sender) returns(uint) {\n        mapping(uint8 => uint) storage temp = Stakes[msg.sender];\n        return temp[monthId];\n    }\n   \n     /**\n     * To get current month\n     * @return current month\n     *\n    **/\n    function getCurrentMonth() public view returns(uint8) {\n        return uint8((startTime - block.timestamp)/60/60/24/30)%12;\n    }\n\n    function monthlyLossCalculation() public  {\n      // aim to make it automatic on detect of month change\n      // right now owner of the contract can only do it\n      require(msg.sender == owner, \"You are not authorised\");\n      mapping(uint24 => uint[]) storage assessments = groupAssessments[currentMonth];\n      uint group1LossTotal;\n      uint group2LossTotal;\n      uint group3LossTotal;\n\n\n      for(uint i = 0; i<assessments[1].length; i++) {\n          group1LossTotal += Assessments[assessments[1][i]].all;\n      }\n\n\n      for(uint i = 0; i<assessments[2].length; i++) {\n          group2LossTotal += Assessments[assessments[2][i]].all;\n      }\n\n\n      for(uint i = 0; i<assessments[3].length; i++) {\n          group3LossTotal += Assessments[assessments[3][i]].all;\n      }\n\n      group1Loss = group1LossTotal/assessments[1].length;\n      group2Loss = group2LossTotal/assessments[2].length;\n      group3Loss = group3LossTotal/assessments[3].length;\n\n      // check watchers data and reward/punish them remaining\n      \n    }\n \n    //Calculate merit of member based on Avg monthly contribution\n    function calcMerit(address _member) private  returns (uint) {\n        uint totalMonth = (block.timestamp - members[_member].onboardingDate)/60/60/24/30;\n        uint merit = members[_member].contribution/(totalMonth+1);\n        members[_member].merit = merit;\n        return merit;\n    }\n\n    //Calculate Compensation of partiucualr member & transfer to member account\n    function calcCompensation() public registeredEnabler(msg.sender) {\n        \n        //Below value will come from Watcher smart contract\n        for(uint i = 0;i < membersAddresses.length; i++) {\n            Member memory m = members[membersAddresses[i]];\n            uint lossPercent = 0;\n\n            if(m.groupId == 1) {\n              lossPercent = group1Loss;\n            } else if(m.groupId == 2) {\n              lossPercent = group2Loss;\n            } else if(m.groupId == 3) {\n              lossPercent = group3Loss;\n            }\n\n            uint memberMerit = calcMerit(membersAddresses[i]);\n            uint compAmount = (lossPercent * memberMerit * MTBF)/100 ; \n            compensationAmount[currentMonth][membersAddresses[i]] = compAmount;\n        }     \n        \n        group1Loss = 0;\n        group2Loss = 0;\n        group3Loss = 0;\n   }\n\n   function payoutCompensation() public registeredMember(msg.sender) {\n     // OTP validation has to be done\n     uint amount = compensationAmount[currentMonth][msg.sender];\n     compensationAmount[currentMonth][msg.sender] = 0;\n     pot -= amount;\n     tokenContract._burn(address(this), amount);\n    emit CompensationTransfer(msg.sender,amount);\n   }\n\n}",
  "sourcePath": "/home/kuldeep/ETHEREUM/MachuPichu/hackathon/contracts/MachuPicchu.sol",
  "compiler": {
    "name": "solc",
    "version": "0.7.0+commit.9e61f92b.Emscripten.clang"
  },
  "schemaVersion": "3.2.5",
  "updatedAt": "2020-10-10T12:32:12.591Z",
  "networkType": "ethereum",
  "devdoc": {
    "kind": "dev",
    "methods": {
      "doAssessmentForAGroup(uint24,uint8)": {
        "params": {
          "_all": "The final result by watcher  Before calling this, check if assessment done by this watcher for this group already*",
          "groupId": "Groupid alloted in User contract"
        }
      },
      "getAssessmentDetail(uint256)": {
        "params": {
          "_id": "assessment-id"
        },
        "returns": {
          "_0": "Assessment struct*"
        }
      },
      "getAssessmentsDoneByAWatcher(uint8)": {
        "params": {
          "monthId": "month-id"
        },
        "returns": {
          "_0": "array of assessment ids*"
        }
      },
      "getAssessmentsOfAGroup(uint8,uint24)": {
        "params": {
          "groupId": "group-id",
          "monthId": "month-id"
        },
        "returns": {
          "_0": "array of assessment ids*"
        }
      },
      "getCurrentMonth()": {
        "returns": {
          "_0": "current month*"
        }
      },
      "getStakedAmountInAMonth(uint8)": {
        "params": {
          "monthId": "month-id"
        },
        "returns": {
          "_0": "total amount*"
        }
      },
      "getTotalStakeAmounts()": {
        "returns": {
          "_0": "total amount*"
        }
      }
    },
    "version": 1
  },
  "userdoc": {
    "kind": "user",
    "methods": {
      "doAssessmentForAGroup(uint24,uint8)": {
        "notice": "To perform Assessment by a watcher for a particular group(group of fields) for the current month"
      },
      "getAssessmentDetail(uint256)": {
        "notice": "To get detail of a particular assessment"
      },
      "getAssessmentsDoneByAWatcher(uint8)": {
        "notice": "To get assessment of a watcher of a particular month"
      },
      "getAssessmentsOfAGroup(uint8,uint24)": {
        "notice": "To get assessment of a group of a particular month"
      },
      "getCurrentMonth()": {
        "notice": "To get current month"
      },
      "getStakedAmountInAMonth(uint8)": {
        "notice": "To get total staked anount of a watcher in a particular month"
      },
      "getTotalStakeAmounts()": {
        "notice": "To get total staked anount of a watcher"
      },
      "stake(uint256)": {
        "notice": "To stake/increment in stake for the currentMonth by a watcher*"
      }
    },
    "version": 1
  }
}