{
  "contractName": "MachuPicchu",
  "abi": [
    {
      "inputs": [
        {
          "internalType": "address payable",
          "name": "_userContract",
          "type": "address"
        },
        {
          "internalType": "address",
          "name": "_tokenContract",
          "type": "address"
        },
        {
          "internalType": "address",
          "name": "_otpContract",
          "type": "address"
        }
      ],
      "stateMutability": "nonpayable",
      "type": "constructor"
    },
    {
      "anonymous": false,
      "inputs": [
        {
          "indexed": false,
          "internalType": "address",
          "name": "member",
          "type": "address"
        },
        {
          "indexed": false,
          "internalType": "uint256",
          "name": "amount",
          "type": "uint256"
        }
      ],
      "name": "CompensationTransfer",
      "type": "event"
    },
    {
      "anonymous": false,
      "inputs": [
        {
          "indexed": false,
          "internalType": "address",
          "name": "memberAddress",
          "type": "address"
        },
        {
          "indexed": false,
          "internalType": "uint256",
          "name": "amount",
          "type": "uint256"
        }
      ],
      "name": "NewContribution",
      "type": "event"
    },
    {
      "anonymous": false,
      "inputs": [
        {
          "indexed": false,
          "internalType": "address",
          "name": "memberAddress",
          "type": "address"
        }
      ],
      "name": "NewMember",
      "type": "event"
    },
    {
      "anonymous": false,
      "inputs": [
        {
          "indexed": true,
          "internalType": "address",
          "name": "",
          "type": "address"
        },
        {
          "indexed": true,
          "internalType": "uint24",
          "name": "",
          "type": "uint24"
        }
      ],
      "name": "watcherAssessedGroup",
      "type": "event"
    },
    {
      "anonymous": false,
      "inputs": [
        {
          "indexed": true,
          "internalType": "address",
          "name": "",
          "type": "address"
        },
        {
          "indexed": true,
          "internalType": "uint8",
          "name": "",
          "type": "uint8"
        },
        {
          "indexed": false,
          "internalType": "uint256",
          "name": "",
          "type": "uint256"
        }
      ],
      "name": "watcherStakedForMonth",
      "type": "event"
    },
    {
      "inputs": [],
      "name": "assessmentId",
      "outputs": [
        {
          "internalType": "uint256",
          "name": "",
          "type": "uint256"
        }
      ],
      "stateMutability": "view",
      "type": "function",
      "constant": true
    },
    {
      "inputs": [
        {
          "internalType": "uint8",
          "name": "",
          "type": "uint8"
        },
        {
          "internalType": "address",
          "name": "",
          "type": "address"
        }
      ],
      "name": "compensationAmount",
      "outputs": [
        {
          "internalType": "uint256",
          "name": "",
          "type": "uint256"
        }
      ],
      "stateMutability": "view",
      "type": "function",
      "constant": true
    },
    {
      "inputs": [],
      "name": "currentMonth",
      "outputs": [
        {
          "internalType": "uint8",
          "name": "",
          "type": "uint8"
        }
      ],
      "stateMutability": "view",
      "type": "function",
      "constant": true
    },
    {
      "inputs": [],
      "name": "group1Loss",
      "outputs": [
        {
          "internalType": "uint256",
          "name": "",
          "type": "uint256"
        }
      ],
      "stateMutability": "view",
      "type": "function",
      "constant": true
    },
    {
      "inputs": [],
      "name": "group2Loss",
      "outputs": [
        {
          "internalType": "uint256",
          "name": "",
          "type": "uint256"
        }
      ],
      "stateMutability": "view",
      "type": "function",
      "constant": true
    },
    {
      "inputs": [],
      "name": "group3Loss",
      "outputs": [
        {
          "internalType": "uint256",
          "name": "",
          "type": "uint256"
        }
      ],
      "stateMutability": "view",
      "type": "function",
      "constant": true
    },
    {
      "inputs": [
        {
          "internalType": "address",
          "name": "",
          "type": "address"
        }
      ],
      "name": "members",
      "outputs": [
        {
          "internalType": "string",
          "name": "name",
          "type": "string"
        },
        {
          "internalType": "string",
          "name": "village",
          "type": "string"
        },
        {
          "internalType": "uint256",
          "name": "lat",
          "type": "uint256"
        },
        {
          "internalType": "uint256",
          "name": "lng",
          "type": "uint256"
        },
        {
          "internalType": "uint256",
          "name": "contribution",
          "type": "uint256"
        },
        {
          "internalType": "uint256",
          "name": "onboardingDate",
          "type": "uint256"
        },
        {
          "internalType": "string",
          "name": "mobileNo",
          "type": "string"
        },
        {
          "internalType": "uint24",
          "name": "groupId",
          "type": "uint24"
        },
        {
          "internalType": "uint256",
          "name": "merit",
          "type": "uint256"
        }
      ],
      "stateMutability": "view",
      "type": "function",
      "constant": true
    },
    {
      "inputs": [
        {
          "internalType": "uint256",
          "name": "",
          "type": "uint256"
        }
      ],
      "name": "membersAddresses",
      "outputs": [
        {
          "internalType": "address",
          "name": "",
          "type": "address"
        }
      ],
      "stateMutability": "view",
      "type": "function",
      "constant": true
    },
    {
      "inputs": [],
      "name": "owner",
      "outputs": [
        {
          "internalType": "address payable",
          "name": "",
          "type": "address"
        }
      ],
      "stateMutability": "view",
      "type": "function",
      "constant": true
    },
    {
      "inputs": [],
      "name": "pot",
      "outputs": [
        {
          "internalType": "uint256",
          "name": "",
          "type": "uint256"
        }
      ],
      "stateMutability": "view",
      "type": "function",
      "constant": true
    },
    {
      "inputs": [],
      "name": "startTime",
      "outputs": [
        {
          "internalType": "uint256",
          "name": "",
          "type": "uint256"
        }
      ],
      "stateMutability": "view",
      "type": "function",
      "constant": true
    },
    {
      "inputs": [],
      "name": "totalGroups",
      "outputs": [
        {
          "internalType": "uint8",
          "name": "",
          "type": "uint8"
        }
      ],
      "stateMutability": "view",
      "type": "function",
      "constant": true
    },
    {
      "inputs": [
        {
          "internalType": "string",
          "name": "_name",
          "type": "string"
        },
        {
          "internalType": "string",
          "name": "_village",
          "type": "string"
        },
        {
          "internalType": "uint256",
          "name": "_lat",
          "type": "uint256"
        },
        {
          "internalType": "uint256",
          "name": "_lng",
          "type": "uint256"
        },
        {
          "internalType": "string",
          "name": "_mobileNo",
          "type": "string"
        }
      ],
      "name": "onboardMember",
      "outputs": [],
      "stateMutability": "nonpayable",
      "type": "function"
    },
    {
      "inputs": [
        {
          "internalType": "uint256",
          "name": "otp",
          "type": "uint256"
        },
        {
          "internalType": "uint256",
          "name": "amount",
          "type": "uint256"
        }
      ],
      "name": "contribute",
      "outputs": [],
      "stateMutability": "nonpayable",
      "type": "function"
    },
    {
      "inputs": [
        {
          "internalType": "uint256",
          "name": "amount",
          "type": "uint256"
        }
      ],
      "name": "preContributeVerification",
      "outputs": [],
      "stateMutability": "nonpayable",
      "type": "function"
    },
    {
      "inputs": [
        {
          "internalType": "uint24",
          "name": "groupId",
          "type": "uint24"
        },
        {
          "internalType": "uint8",
          "name": "_all",
          "type": "uint8"
        }
      ],
      "name": "doAssessmentForAGroup",
      "outputs": [],
      "stateMutability": "nonpayable",
      "type": "function"
    },
    {
      "inputs": [
        {
          "internalType": "uint8",
          "name": "monthId",
          "type": "uint8"
        },
        {
          "internalType": "uint24",
          "name": "groupId",
          "type": "uint24"
        }
      ],
      "name": "getAssessmentsOfAGroup",
      "outputs": [
        {
          "internalType": "uint256[]",
          "name": "",
          "type": "uint256[]"
        }
      ],
      "stateMutability": "view",
      "type": "function",
      "constant": true
    },
    {
      "inputs": [
        {
          "internalType": "uint8",
          "name": "monthId",
          "type": "uint8"
        }
      ],
      "name": "getAssessmentsDoneByAWatcher",
      "outputs": [
        {
          "internalType": "uint256[]",
          "name": "",
          "type": "uint256[]"
        }
      ],
      "stateMutability": "view",
      "type": "function",
      "constant": true
    },
    {
      "inputs": [
        {
          "internalType": "uint256",
          "name": "_id",
          "type": "uint256"
        }
      ],
      "name": "getAssessmentDetail",
      "outputs": [
        {
          "components": [
            {
              "internalType": "uint256",
              "name": "id",
              "type": "uint256"
            },
            {
              "internalType": "uint24",
              "name": "groupId",
              "type": "uint24"
            },
            {
              "internalType": "uint8",
              "name": "all",
              "type": "uint8"
            },
            {
              "internalType": "uint256",
              "name": "time",
              "type": "uint256"
            }
          ],
          "internalType": "struct MachuPicchu.Assessment",
          "name": "",
          "type": "tuple"
        }
      ],
      "stateMutability": "view",
      "type": "function",
      "constant": true
    },
    {
      "inputs": [
        {
          "internalType": "uint256",
          "name": "amount",
          "type": "uint256"
        }
      ],
      "name": "stake",
      "outputs": [],
      "stateMutability": "nonpayable",
      "type": "function"
    },
    {
      "inputs": [],
      "name": "getTotalStakeAmounts",
      "outputs": [
        {
          "internalType": "uint256",
          "name": "",
          "type": "uint256"
        }
      ],
      "stateMutability": "view",
      "type": "function",
      "constant": true
    },
    {
      "inputs": [
        {
          "internalType": "uint8",
          "name": "monthId",
          "type": "uint8"
        }
      ],
      "name": "getStakedAmountInAMonth",
      "outputs": [
        {
          "internalType": "uint256",
          "name": "",
          "type": "uint256"
        }
      ],
      "stateMutability": "view",
      "type": "function",
      "constant": true
    },
    {
      "inputs": [],
      "name": "getCurrentMonth",
      "outputs": [
        {
          "internalType": "uint8",
          "name": "",
          "type": "uint8"
        }
      ],
      "stateMutability": "view",
      "type": "function",
      "constant": true
    },
    {
      "inputs": [],
      "name": "monthlyLossCalculation",
      "outputs": [],
      "stateMutability": "nonpayable",
      "type": "function"
    },
    {
      "inputs": [],
      "name": "calcCompensation",
      "outputs": [],
      "stateMutability": "nonpayable",
      "type": "function"
    },
    {
      "inputs": [
        {
          "internalType": "uint256",
          "name": "otp",
          "type": "uint256"
        }
      ],
      "name": "payoutCompensation",
      "outputs": [],
      "stateMutability": "nonpayable",
      "type": "function"
    },
    {
      "inputs": [],
      "name": "prePayoutVerification",
      "outputs": [],
      "stateMutability": "nonpayable",
      "type": "function"
    }
  ],
  "bytecode": "0x60806040526003600460006101000a81548160ff021916908360ff16021790555060006005556000600655600060075560026008553480156200004157600080fd5b5060405162004258380380620042588339818101604052810190620000679190620001cc565b6000600381905550426001819055506000600260006101000a81548160ff021916908360ff16021790555082600960006101000a81548173ffffffffffffffffffffffffffffffffffffffff021916908373ffffffffffffffffffffffffffffffffffffffff16021790555081600a60006101000a81548173ffffffffffffffffffffffffffffffffffffffff021916908373ffffffffffffffffffffffffffffffffffffffff16021790555080600b60006101000a81548173ffffffffffffffffffffffffffffffffffffffff021916908373ffffffffffffffffffffffffffffffffffffffff160217905550336000806101000a81548173ffffffffffffffffffffffffffffffffffffffff021916908373ffffffffffffffffffffffffffffffffffffffff1602179055505050506200029e565b600081519050620001af816200026a565b92915050565b600081519050620001c68162000284565b92915050565b600080600060608486031215620001e257600080fd5b6000620001f286828701620001b5565b935050602062000205868287016200019e565b925050604062000218868287016200019e565b9150509250925092565b60006200022f826200024a565b9050919050565b600062000243826200024a565b9050919050565b600073ffffffffffffffffffffffffffffffffffffffff82169050919050565b620002758162000222565b81146200028157600080fd5b50565b6200028f8162000236565b81146200029b57600080fd5b50565b613faa80620002ae6000396000f3fe608060405234801561001057600080fd5b50600436106101a95760003560e01c8063862a4d47116100f9578063c75f289311610097578063ddd1b67e11610071578063ddd1b67e146104a0578063e2fc1ab4146104be578063e972e278146104ee578063f6efab361461050c576101a9565b8063c75f289314610436578063d0bea67614610454578063d5fb94ea14610470576101a9565b8063969109d6116100d3578063969109d6146103c2578063a694fc3a146103e0578063b2ec7b06146103fc578063bd20321914610418576101a9565b8063862a4d471461036a5780638c590917146103885780638da5cb5b146103a4576101a9565b80634ba2363a1161016657806363fe04131161014057806363fe0413146102e057806369d1dca3146102fe57806378e979251461031c578063839b42991461033a576101a9565b80634ba2363a146102765780634f6e8388146102945780635ee5a3c6146102b0576101a9565b806303003eb8146101ae57806308ae4b0c146101ca57806310251063146102025780632ac8df541461020c5780632b740d441461021657806348efb80814610246575b600080fd5b6101c860048036038101906101c3919061315d565b610516565b005b6101e460048036038101906101df91906130e2565b61097e565b6040516101f9999897969594939291906139d2565b60405180910390f35b61020a610ba3565b005b610214610e90565b005b610230600480360381019061022b91906132bd565b6113e0565b60405161023d9190613bcf565b60405180910390f35b610260600480360381019061025b91906132bd565b611546565b60405161026d91906139b0565b60405180910390f35b61027e6116f4565b60405161028b9190613bcf565b60405180910390f35b6102ae60048036038101906102a9919061321c565b6116fa565b005b6102ca60048036038101906102c59190613258565b611ae9565b6040516102d791906138ad565b60405180910390f35b6102e8611b25565b6040516102f59190613bcf565b60405180910390f35b610306611b2b565b6040516103139190613bcf565b60405180910390f35b610324611cb6565b6040516103319190613bcf565b60405180910390f35b610354600480360381019061034f9190613322565b611cbc565b60405161036191906139b0565b60405180910390f35b610372611d49565b60405161037f9190613cd1565b60405180910390f35b6103a2600480360381019061039d9190613281565b611d5c565b005b6103ac612076565b6040516103b991906138e3565b60405180910390f35b6103ca61209a565b6040516103d79190613bcf565b60405180910390f35b6103fa60048036038101906103f59190613258565b6120a0565b005b61041660048036038101906104119190613258565b6123b2565b005b6104206125ed565b60405161042d9190613bcf565b60405180910390f35b61043e6125f3565b60405161044b9190613cd1565b60405180910390f35b61046e60048036038101906104699190613258565b612606565b005b61048a600480360381019061048591906132e6565b612a4f565b6040516104979190613bcf565b60405180910390f35b6104a8612a74565b6040516104b59190613cd1565b60405180910390f35b6104d860048036038101906104d39190613258565b612ab4565b6040516104e59190613bb4565b60405180910390f35b6104f6612b35565b6040516105039190613bcf565b60405180910390f35b610514612b3b565b005b336000600960009054906101000a900473ffffffffffffffffffffffffffffffffffffffff1673ffffffffffffffffffffffffffffffffffffffff166342584166836000600281111561056557fe5b6040518363ffffffff1660e01b815260040161058292919061395e565b60206040518083038186803b15801561059a57600080fd5b505afa1580156105ae573d6000803e3d6000fd5b505050506040513d601f19601f820116820180604052508101906105d2919061310b565b905080610614576040517f08c379a000000000000000000000000000000000000000000000000000000000815260040161060b90613b54565b60405180910390fd5b6000600c60003373ffffffffffffffffffffffffffffffffffffffff1673ffffffffffffffffffffffffffffffffffffffff1681526020019081526020016000206005015414610699576040517f08c379a000000000000000000000000000000000000000000000000000000000815260040161069090613b34565b60405180910390fd5b86600c60003373ffffffffffffffffffffffffffffffffffffffff1673ffffffffffffffffffffffffffffffffffffffff16815260200190815260200160002060000190805190602001906106ef929190612ef2565b5085600c60003373ffffffffffffffffffffffffffffffffffffffff1673ffffffffffffffffffffffffffffffffffffffff1681526020019081526020016000206001019080519060200190610746929190612ef2565b5084600c60003373ffffffffffffffffffffffffffffffffffffffff1673ffffffffffffffffffffffffffffffffffffffff1681526020019081526020016000206002018190555083600c60003373ffffffffffffffffffffffffffffffffffffffff1673ffffffffffffffffffffffffffffffffffffffff1681526020019081526020016000206003018190555042600c60003373ffffffffffffffffffffffffffffffffffffffff1673ffffffffffffffffffffffffffffffffffffffff1681526020019081526020016000206005018190555082600c60003373ffffffffffffffffffffffffffffffffffffffff1673ffffffffffffffffffffffffffffffffffffffff1681526020019081526020016000206006019080519060200190610872929190612ef2565b5061087d8585612d97565b600c60003373ffffffffffffffffffffffffffffffffffffffff1673ffffffffffffffffffffffffffffffffffffffff16815260200190815260200160002060070160006101000a81548162ffffff021916908362ffffff160217905550600d339080600181540180825580915050600190039060005260206000200160009091909190916101000a81548173ffffffffffffffffffffffffffffffffffffffff021916908373ffffffffffffffffffffffffffffffffffffffff1602179055507fb4dcb6dd550f27b5917ebf674899ea7046ff91790c6f9f01431617ad39819db23360405161096d91906138c8565b60405180910390a150505050505050565b600c602052806000526040600020600091509050806000018054600181600116156101000203166002900480601f016020809104026020016040519081016040528092919081815260200182805460018160011615610100020316600290048015610a2a5780601f106109ff57610100808354040283529160200191610a2a565b820191906000526020600020905b815481529060010190602001808311610a0d57829003601f168201915b505050505090806001018054600181600116156101000203166002900480601f016020809104026020016040519081016040528092919081815260200182805460018160011615610100020316600290048015610ac85780601f10610a9d57610100808354040283529160200191610ac8565b820191906000526020600020905b815481529060010190602001808311610aab57829003601f168201915b505050505090806002015490806003015490806004015490806005015490806006018054600181600116156101000203166002900480601f016020809104026020016040519081016040528092919081815260200182805460018160011615610100020316600290048015610b7e5780601f10610b5357610100808354040283529160200191610b7e565b820191906000526020600020905b815481529060010190602001808311610b6157829003601f168201915b5050505050908060070160009054906101000a900462ffffff16908060080154905089565b60008054906101000a900473ffffffffffffffffffffffffffffffffffffffff1673ffffffffffffffffffffffffffffffffffffffff163373ffffffffffffffffffffffffffffffffffffffff1614610c31576040517f08c379a0000000000000000000000000000000000000000000000000000000008152600401610c2890613ab4565b60405180910390fd5b6000600f6000600260009054906101000a900460ff1660ff1660ff1681526020019081526020016000209050600080600080600090505b846000600162ffffff16815260200190815260200160002080549050811015610cf05760106000866000600162ffffff1681526020019081526020016000208381548110610cb257fe5b9060005260206000200154815260200190815260200160002060010160039054906101000a900460ff1660ff16840193508080600101915050610c68565b5060005b846000600262ffffff16815260200190815260200160002080549050811015610d7c5760106000866000600262ffffff1681526020019081526020016000208381548110610d3e57fe5b9060005260206000200154815260200190815260200160002060010160039054906101000a900460ff1660ff16830192508080600101915050610cf4565b5060005b846000600362ffffff16815260200190815260200160002080549050811015610e085760106000866000600362ffffff1681526020019081526020016000208381548110610dca57fe5b9060005260206000200154815260200190815260200160002060010160039054906101000a900460ff1660ff16820191508080600101915050610d80565b50836000600162ffffff168152602001908152602001600020805490508381610e2d57fe5b04600581905550836000600262ffffff168152602001908152602001600020805490508281610e5857fe5b04600681905550836000600362ffffff168152602001908152602001600020805490508181610e8357fe5b0460078190555050505050565b336000600960009054906101000a900473ffffffffffffffffffffffffffffffffffffffff1673ffffffffffffffffffffffffffffffffffffffff16634258416683600280811115610ede57fe5b6040518363ffffffff1660e01b8152600401610efb92919061395e565b60206040518083038186803b158015610f1357600080fd5b505afa158015610f27573d6000803e3d6000fd5b505050506040513d601f19601f82011682018060405250810190610f4b919061310b565b905080610f8d576040517f08c379a0000000000000000000000000000000000000000000000000000000008152600401610f8490613ad4565b60405180910390fd5b60005b600d805490508110156113c357610fa5612f72565b600c6000600d8481548110610fb657fe5b9060005260206000200160009054906101000a900473ffffffffffffffffffffffffffffffffffffffff1673ffffffffffffffffffffffffffffffffffffffff1673ffffffffffffffffffffffffffffffffffffffff16815260200190815260200160002060405180610120016040529081600082018054600181600116156101000203166002900480601f0160208091040260200160405190810160405280929190818152602001828054600181600116156101000203166002900480156110c05780601f10611095576101008083540402835291602001916110c0565b820191906000526020600020905b8154815290600101906020018083116110a357829003601f168201915b50505050508152602001600182018054600181600116156101000203166002900480601f0160208091040260200160405190810160405280929190818152602001828054600181600116156101000203166002900480156111625780601f1061113757610100808354040283529160200191611162565b820191906000526020600020905b81548152906001019060200180831161114557829003601f168201915b5050505050815260200160028201548152602001600382015481526020016004820154815260200160058201548152602001600682018054600181600116156101000203166002900480601f01602080910402602001604051908101604052809291908181526020018280546001816001161561010002031660029004801561122c5780601f106112015761010080835404028352916020019161122c565b820191906000526020600020905b81548152906001019060200180831161120f57829003601f168201915b505050505081526020016007820160009054906101000a900462ffffff1662ffffff1662ffffff1681526020016008820154815250509050600060018260e0015162ffffff1614156112825760055490506112b8565b60028260e0015162ffffff16141561129e5760065490506112b7565b60038260e0015162ffffff1614156112b65760075490505b5b5b60006112fa600d85815481106112ca57fe5b9060005260206000200160009054906101000a900473ffffffffffffffffffffffffffffffffffffffff16612ddd565b905060006064600854838502028161130e57fe5b0490508060126000600260009054906101000a900460ff1660ff1660ff1681526020019081526020016000206000600d888154811061134957fe5b9060005260206000200160009054906101000a900473ffffffffffffffffffffffffffffffffffffffff1673ffffffffffffffffffffffffffffffffffffffff1673ffffffffffffffffffffffffffffffffffffffff16815260200190815260200160002081905550505050508080600101915050610f90565b506000600581905550600060068190555060006007819055505050565b6000336000600960009054906101000a900473ffffffffffffffffffffffffffffffffffffffff1673ffffffffffffffffffffffffffffffffffffffff166342584166836001600281111561143157fe5b6040518363ffffffff1660e01b815260040161144e92919061395e565b60206040518083038186803b15801561146657600080fd5b505afa15801561147a573d6000803e3d6000fd5b505050506040513d601f19601f8201168201806040525081019061149e919061310b565b9050806114e0576040517f08c379a00000000000000000000000000000000000000000000000000000000081526004016114d790613a74565b60405180910390fd5b6000600e60003373ffffffffffffffffffffffffffffffffffffffff1673ffffffffffffffffffffffffffffffffffffffff16815260200190815260200160002090508060008660ff1660ff168152602001908152602001600020549350505050919050565b6060336000600960009054906101000a900473ffffffffffffffffffffffffffffffffffffffff1673ffffffffffffffffffffffffffffffffffffffff166342584166836001600281111561159757fe5b6040518363ffffffff1660e01b81526004016115b492919061395e565b60206040518083038186803b1580156115cc57600080fd5b505afa1580156115e0573d6000803e3d6000fd5b505050506040513d601f19601f82011682018060405250810190611604919061310b565b905080611646576040517f08c379a000000000000000000000000000000000000000000000000000000000815260040161163d90613a74565b60405180910390fd5b601160008560ff1660ff16815260200190815260200160002060003373ffffffffffffffffffffffffffffffffffffffff1673ffffffffffffffffffffffffffffffffffffffff1681526020019081526020016000208054806020026020016040519081016040528092919081815260200182805480156116e657602002820191906000526020600020905b8154815260200190600101908083116116d2575b505050505092505050919050565b60135481565b336000600960009054906101000a900473ffffffffffffffffffffffffffffffffffffffff1673ffffffffffffffffffffffffffffffffffffffff166342584166836001600281111561174957fe5b6040518363ffffffff1660e01b815260040161176692919061395e565b60206040518083038186803b15801561177e57600080fd5b505afa158015611792573d6000803e3d6000fd5b505050506040513d601f19601f820116820180604052508101906117b6919061310b565b9050806117f8576040517f08c379a00000000000000000000000000000000000000000000000000000000081526004016117ef90613a74565b60405180910390fd5b6000611802612a74565b9050600260009054906101000a900460ff1660ff168160ff16111561183d5780600260006101000a81548160ff021916908360ff1602179055505b6014600e60003373ffffffffffffffffffffffffffffffffffffffff1673ffffffffffffffffffffffffffffffffffffffff1681526020019081526020016000206000600260009054906101000a900460ff1660ff1660ff16815260200190815260200160002054116118e5576040517f08c379a00000000000000000000000000000000000000000000000000000000081526004016118dc90613af4565b60405180910390fd5b6118ed612fc3565b604051806080016040528060035481526020018762ffffff1681526020018660ff168152602001428152509050806010600060035481526020019081526020016000206000820151816000015560208201518160010160006101000a81548162ffffff021916908362ffffff16021790555060408201518160010160036101000a81548160ff021916908360ff16021790555060608201518160020155905050600f6000600260009054906101000a900460ff1660ff1660ff16815260200190815260200160002060008762ffffff1662ffffff168152602001908152602001600020600354908060018154018082558091505060019003906000526020600020016000909190919091505560116000600260009054906101000a900460ff1660ff1660ff16815260200190815260200160002060003373ffffffffffffffffffffffffffffffffffffffff1673ffffffffffffffffffffffffffffffffffffffff16815260200190815260200160002060035490806001815401808255809150506001900390600052602060002001600090919091909150558562ffffff163373ffffffffffffffffffffffffffffffffffffffff167f92d22e89929e450e502266ea16c9dcc755d7c24516a06be8159306162162640b60405160405180910390a36001600360008282540192505081905550505050505050565b600d8181548110611af657fe5b906000526020600020016000915054906101000a900473ffffffffffffffffffffffffffffffffffffffff1681565b60035481565b6000336000600960009054906101000a900473ffffffffffffffffffffffffffffffffffffffff1673ffffffffffffffffffffffffffffffffffffffff1663425841668360016002811115611b7c57fe5b6040518363ffffffff1660e01b8152600401611b9992919061395e565b60206040518083038186803b158015611bb157600080fd5b505afa158015611bc5573d6000803e3d6000fd5b505050506040513d601f19601f82011682018060405250810190611be9919061310b565b905080611c2b576040517f08c379a0000000000000000000000000000000000000000000000000000000008152600401611c2290613a74565b60405180910390fd5b6000600e60003373ffffffffffffffffffffffffffffffffffffffff1673ffffffffffffffffffffffffffffffffffffffff1681526020019081526020016000209050600080600190505b600c8160ff1611611cab578260008260ff1660ff16815260200190815260200160002054820191508080600101915050611c76565b508094505050505090565b60015481565b6060600f60008460ff1660ff16815260200190815260200160002060008362ffffff1662ffffff168152602001908152602001600020805480602002602001604051908101604052809291908181526020018280548015611d3c57602002820191906000526020600020905b815481526020019060010190808311611d28575b5050505050905092915050565b600260009054906101000a900460ff1681565b336000600960009054906101000a900473ffffffffffffffffffffffffffffffffffffffff1673ffffffffffffffffffffffffffffffffffffffff1663425841668360006002811115611dab57fe5b6040518363ffffffff1660e01b8152600401611dc892919061395e565b60206040518083038186803b158015611de057600080fd5b505afa158015611df4573d6000803e3d6000fd5b505050506040513d601f19601f82011682018060405250810190611e18919061310b565b905080611e5a576040517f08c379a0000000000000000000000000000000000000000000000000000000008152600401611e5190613b54565b60405180910390fd5b600b60009054906101000a900473ffffffffffffffffffffffffffffffffffffffff1673ffffffffffffffffffffffffffffffffffffffff1663524c027a85336040518363ffffffff1660e01b8152600401611eb7929190613bea565b602060405180830381600087803b158015611ed157600080fd5b505af1158015611ee5573d6000803e3d6000fd5b505050506040513d601f19601f82011682018060405250810190611f09919061310b565b611f48576040517f08c379a0000000000000000000000000000000000000000000000000000000008152600401611f3f90613b14565b60405180910390fd5b600a60009054906101000a900473ffffffffffffffffffffffffffffffffffffffff1673ffffffffffffffffffffffffffffffffffffffff16634e6ec24730856040518363ffffffff1660e01b8152600401611fa5929190613987565b600060405180830381600087803b158015611fbf57600080fd5b505af1158015611fd3573d6000803e3d6000fd5b5050505082600c60003373ffffffffffffffffffffffffffffffffffffffff1673ffffffffffffffffffffffffffffffffffffffff16815260200190815260200160002060040160008282540192505081905550826013600082825401925050819055507fbdaa686eb6f59012d211a74523da260341c516896e9e5be954163d6ecf26ffa23384604051612068929190613935565b60405180910390a150505050565b60008054906101000a900473ffffffffffffffffffffffffffffffffffffffff1681565b60075481565b336000600960009054906101000a900473ffffffffffffffffffffffffffffffffffffffff1673ffffffffffffffffffffffffffffffffffffffff16634258416683600160028111156120ef57fe5b6040518363ffffffff1660e01b815260040161210c92919061395e565b60206040518083038186803b15801561212457600080fd5b505afa158015612138573d6000803e3d6000fd5b505050506040513d601f19601f8201168201806040525081019061215c919061310b565b90508061219e576040517f08c379a000000000000000000000000000000000000000000000000000000000815260040161219590613a74565b60405180910390fd5b601483116121e1576040517f08c379a00000000000000000000000000000000000000000000000000000000081526004016121d890613b94565b60405180910390fd5b60006121eb612a74565b9050600260009054906101000a900460ff1660ff168160ff1611156122265780600260006101000a81548160ff021916908360ff1602179055505b600a60009054906101000a900473ffffffffffffffffffffffffffffffffffffffff1673ffffffffffffffffffffffffffffffffffffffff166323b872dd3330876040518463ffffffff1660e01b8152600401612285939291906138fe565b602060405180830381600087803b15801561229f57600080fd5b505af11580156122b3573d6000803e3d6000fd5b505050506040513d601f19601f820116820180604052508101906122d7919061310b565b5083600e60003373ffffffffffffffffffffffffffffffffffffffff1673ffffffffffffffffffffffffffffffffffffffff1681526020019081526020016000206000600260009054906101000a900460ff1660ff1660ff16815260200190815260200160002060008282540192505081905550600260009054906101000a900460ff1660ff163373ffffffffffffffffffffffffffffffffffffffff167fd6f9eeaa8eb9168b187679e07e8014cb2ed1df85d3e443a48384b396b193044d866040516123a49190613bcf565b60405180910390a350505050565b336000600960009054906101000a900473ffffffffffffffffffffffffffffffffffffffff1673ffffffffffffffffffffffffffffffffffffffff166342584166836000600281111561240157fe5b6040518363ffffffff1660e01b815260040161241e92919061395e565b60206040518083038186803b15801561243657600080fd5b505afa15801561244a573d6000803e3d6000fd5b505050506040513d601f19601f8201168201806040525081019061246e919061310b565b9050806124b0576040517f08c379a00000000000000000000000000000000000000000000000000000000081526004016124a790613b54565b60405180910390fd5b600283116124f3576040517f08c379a00000000000000000000000000000000000000000000000000000000081526004016124ea90613b74565b60405180910390fd5b600b60009054906101000a900473ffffffffffffffffffffffffffffffffffffffff1673ffffffffffffffffffffffffffffffffffffffff1663c7f06313428533600c60003373ffffffffffffffffffffffffffffffffffffffff1673ffffffffffffffffffffffffffffffffffffffff1681526020019081526020016000206006016040518563ffffffff1660e01b81526004016125959493929190613c72565b602060405180830381600087803b1580156125af57600080fd5b505af11580156125c3573d6000803e3d6000fd5b505050506040513d601f19601f820116820180604052508101906125e79190613134565b50505050565b60065481565b600460009054906101000a900460ff1681565b336000600960009054906101000a900473ffffffffffffffffffffffffffffffffffffffff1673ffffffffffffffffffffffffffffffffffffffff166342584166836000600281111561265557fe5b6040518363ffffffff1660e01b815260040161267292919061395e565b60206040518083038186803b15801561268a57600080fd5b505afa15801561269e573d6000803e3d6000fd5b505050506040513d601f19601f820116820180604052508101906126c2919061310b565b905080612704576040517f08c379a00000000000000000000000000000000000000000000000000000000081526004016126fb90613b54565b60405180910390fd5b600b60009054906101000a900473ffffffffffffffffffffffffffffffffffffffff1673ffffffffffffffffffffffffffffffffffffffff1663524c027a84336040518363ffffffff1660e01b8152600401612761929190613bea565b602060405180830381600087803b15801561277b57600080fd5b505af115801561278f573d6000803e3d6000fd5b505050506040513d601f19601f820116820180604052508101906127b3919061310b565b6127f2576040517f08c379a00000000000000000000000000000000000000000000000000000000081526004016127e990613b14565b60405180910390fd5b60135460126000600260009054906101000a900460ff1660ff1660ff16815260200190815260200160002060003373ffffffffffffffffffffffffffffffffffffffff1673ffffffffffffffffffffffffffffffffffffffff16815260200190815260200160002054111561289c576040517f08c379a000000000000000000000000000000000000000000000000000000000815260040161289390613a94565b60405180910390fd5b600060126000600260009054906101000a900460ff1660ff1660ff16815260200190815260200160002060003373ffffffffffffffffffffffffffffffffffffffff1673ffffffffffffffffffffffffffffffffffffffff168152602001908152602001600020549050600060126000600260009054906101000a900460ff1660ff1660ff16815260200190815260200160002060003373ffffffffffffffffffffffffffffffffffffffff1673ffffffffffffffffffffffffffffffffffffffff1681526020019081526020016000208190555080601360008282540392505081905550600a60009054906101000a900473ffffffffffffffffffffffffffffffffffffffff1673ffffffffffffffffffffffffffffffffffffffff16636161eb1830836040518363ffffffff1660e01b81526004016129de929190613987565b600060405180830381600087803b1580156129f857600080fd5b505af1158015612a0c573d6000803e3d6000fd5b505050507fe80c8b490c4c971de833ac047f72f9c82c6d3fec94ce2b3bc0f2e51e54972c433382604051612a41929190613935565b60405180910390a150505050565b6012602052816000526040600020602052806000526040600020600091509150505481565b6000600c601e6018603c80426001540381612a8b57fe5b0481612a9357fe5b0481612a9b57fe5b0481612aa357fe5b0460ff1681612aae57fe5b06905090565b612abc612fc3565b60106000838152602001908152602001600020604051806080016040529081600082015481526020016001820160009054906101000a900462ffffff1662ffffff1662ffffff1681526020016001820160039054906101000a900460ff1660ff1660ff1681526020016002820154815250509050919050565b60055481565b336000600960009054906101000a900473ffffffffffffffffffffffffffffffffffffffff1673ffffffffffffffffffffffffffffffffffffffff1663425841668360006002811115612b8a57fe5b6040518363ffffffff1660e01b8152600401612ba792919061395e565b60206040518083038186803b158015612bbf57600080fd5b505afa158015612bd3573d6000803e3d6000fd5b505050506040513d601f19601f82011682018060405250810190612bf7919061310b565b905080612c39576040517f08c379a0000000000000000000000000000000000000000000000000000000008152600401612c3090613b54565b60405180910390fd5b600b60009054906101000a900473ffffffffffffffffffffffffffffffffffffffff1673ffffffffffffffffffffffffffffffffffffffff1663c7f063134260126000600260009054906101000a900460ff1660ff1660ff16815260200190815260200160002060003373ffffffffffffffffffffffffffffffffffffffff1673ffffffffffffffffffffffffffffffffffffffff1681526020019081526020016000205433600c60003373ffffffffffffffffffffffffffffffffffffffff1673ffffffffffffffffffffffffffffffffffffffff1681526020019081526020016000206006016040518563ffffffff1660e01b8152600401612d409493929190613c13565b602060405180830381600087803b158015612d5a57600080fd5b505af1158015612d6e573d6000803e3d6000fd5b505050506040513d601f19601f82011682018060405250810190612d929190613134565b505050565b6000808284019050600a8111612db1576001915050612dd7565b600a81118015612dc2575060148111155b15612dd1576002915050612dd7565b60039150505b92915050565b600080601e6018603c80600c60008873ffffffffffffffffffffffffffffffffffffffff1673ffffffffffffffffffffffffffffffffffffffff16815260200190815260200160002060050154420381612e3357fe5b0481612e3b57fe5b0481612e4357fe5b0481612e4b57fe5b049050600060018201600c60008673ffffffffffffffffffffffffffffffffffffffff1673ffffffffffffffffffffffffffffffffffffffff1681526020019081526020016000206004015481612e9e57fe5b04905080600c60008673ffffffffffffffffffffffffffffffffffffffff1673ffffffffffffffffffffffffffffffffffffffff168152602001908152602001600020600801819055508092505050919050565b828054600181600116156101000203166002900490600052602060002090601f016020900481019282601f10612f3357805160ff1916838001178555612f61565b82800160010185558215612f61579182015b82811115612f60578251825591602001919060010190612f45565b5b509050612f6e9190612ff3565b5090565b60405180610120016040528060608152602001606081526020016000815260200160008152602001600081526020016000815260200160608152602001600062ffffff168152602001600081525090565b604051806080016040528060008152602001600062ffffff168152602001600060ff168152602001600081525090565b5b8082111561300c576000816000905550600101612ff4565b5090565b60008135905061301f81613eea565b92915050565b60008151905061303481613f01565b92915050565b60008151905061304981613f18565b92915050565b600082601f83011261306057600080fd5b813561307361306e82613d19565b613cec565b9150808252602083016020830185838301111561308f57600080fd5b61309a838284613e8a565b50505092915050565b6000813590506130b281613f2f565b92915050565b6000813590506130c781613f46565b92915050565b6000813590506130dc81613f5d565b92915050565b6000602082840312156130f457600080fd5b600061310284828501613010565b91505092915050565b60006020828403121561311d57600080fd5b600061312b84828501613025565b91505092915050565b60006020828403121561314657600080fd5b60006131548482850161303a565b91505092915050565b600080600080600060a0868803121561317557600080fd5b600086013567ffffffffffffffff81111561318f57600080fd5b61319b8882890161304f565b955050602086013567ffffffffffffffff8111156131b857600080fd5b6131c48882890161304f565b94505060406131d5888289016130b8565b93505060606131e6888289016130b8565b925050608086013567ffffffffffffffff81111561320357600080fd5b61320f8882890161304f565b9150509295509295909350565b6000806040838503121561322f57600080fd5b600061323d858286016130a3565b925050602061324e858286016130cd565b9150509250929050565b60006020828403121561326a57600080fd5b6000613278848285016130b8565b91505092915050565b6000806040838503121561329457600080fd5b60006132a2858286016130b8565b92505060206132b3858286016130b8565b9150509250929050565b6000602082840312156132cf57600080fd5b60006132dd848285016130cd565b91505092915050565b600080604083850312156132f957600080fd5b6000613307858286016130cd565b925050602061331885828601613010565b9150509250929050565b6000806040838503121561333557600080fd5b6000613343858286016130cd565b9250506020613354858286016130a3565b9150509250929050565b600061336a8383613871565b60208301905092915050565b61337f81613e42565b82525050565b61338e81613dc1565b82525050565b61339d81613daf565b82525050565b60006133ae82613d6a565b6133b88185613d8d565b93506133c383613d45565b8060005b838110156133f45781516133db888261335e565b97506133e683613d80565b9250506001810190506133c7565b5085935050505092915050565b61340a81613e54565b82525050565b600061341b82613d75565b6134258185613d9e565b9350613435818560208601613e99565b61343e81613ecc565b840191505092915050565b600081546001811660008114613466576001811461348c576134d0565b607f60028304166134778187613d9e565b955060ff1983168652602086019350506134d0565b6002820461349a8187613d9e565b95506134a585613d55565b60005b828110156134c7578154818901526001820191506020810190506134a8565b80880195505050505b505092915050565b60006134e5601583613d9e565b91507f596f7520617265206e6f742061207761746368657200000000000000000000006000830152602082019050919050565b6000613525600c83613d9e565b91507f636f6d70656e736174696f6e00000000000000000000000000000000000000006000830152602082019050919050565b6000613565601883613d9e565b91507f4e6f7420656e6f75676820616d6f756e7420696e20706f7400000000000000006000830152602082019050919050565b60006135a5601683613d9e565b91507f596f7520617265206e6f7420617574686f7269736564000000000000000000006000830152602082019050919050565b60006135e5600c83613d9e565b91507f636f6e747269627574696e6700000000000000000000000000000000000000006000830152602082019050919050565b6000613625601583613d9e565b91507f596f7520617265206e6f74206120456e61626c657200000000000000000000006000830152602082019050919050565b6000613665601683613d9e565b91507f596f752073686f756c64207374616b65206669727374000000000000000000006000830152602082019050919050565b60006136a5601e83613d9e565b91507f4f5450206973206569746865722065787069726564206f722077726f6e6700006000830152602082019050919050565b60006136e5601983613d9e565b91507f6164647265737320616c7265616479206f6e626f6172646564000000000000006000830152602082019050919050565b6000613725601483613d9e565b91507f596f7520617265206e6f742061206d656d6265720000000000000000000000006000830152602082019050919050565b6000613765601383613d9e565b91507f416d6f756e74203e2032207265717569726564000000000000000000000000006000830152602082019050919050565b60006137a5602383613d9e565b91507f596f7572207374616b6520616d6f756e74206973206e6f74207375666669636960008301527f656e7400000000000000000000000000000000000000000000000000000000006020830152604082019050919050565b6080820160008201516138146000850182613871565b5060208201516138276020850182613853565b50604082015161383a604085018261388f565b50606082015161384d6060850182613871565b50505050565b61385c81613e1c565b82525050565b61386b81613e1c565b82525050565b61387a81613e2b565b82525050565b61388981613e2b565b82525050565b61389881613e35565b82525050565b6138a781613e35565b82525050565b60006020820190506138c26000830184613394565b92915050565b60006020820190506138dd6000830184613376565b92915050565b60006020820190506138f86000830184613385565b92915050565b60006060820190506139136000830186613376565b6139206020830185613394565b61392d6040830184613880565b949350505050565b600060408201905061394a6000830185613376565b6139576020830184613880565b9392505050565b60006040820190506139736000830185613394565b6139806020830184613401565b9392505050565b600060408201905061399c6000830185613394565b6139a96020830184613880565b9392505050565b600060208201905081810360008301526139ca81846133a3565b905092915050565b60006101208201905081810360008301526139ed818c613410565b90508181036020830152613a01818b613410565b9050613a10604083018a613880565b613a1d6060830189613880565b613a2a6080830188613880565b613a3760a0830187613880565b81810360c0830152613a498186613410565b9050613a5860e0830185613862565b613a66610100830184613880565b9a9950505050505050505050565b60006020820190508181036000830152613a8d816134d8565b9050919050565b60006020820190508181036000830152613aad81613558565b9050919050565b60006020820190508181036000830152613acd81613598565b9050919050565b60006020820190508181036000830152613aed81613618565b9050919050565b60006020820190508181036000830152613b0d81613658565b9050919050565b60006020820190508181036000830152613b2d81613698565b9050919050565b60006020820190508181036000830152613b4d816136d8565b9050919050565b60006020820190508181036000830152613b6d81613718565b9050919050565b60006020820190508181036000830152613b8d81613758565b9050919050565b60006020820190508181036000830152613bad81613798565b9050919050565b6000608082019050613bc960008301846137fe565b92915050565b6000602082019050613be46000830184613880565b92915050565b6000604082019050613bff6000830185613880565b613c0c6020830184613376565b9392505050565b600060a082019050613c286000830187613880565b613c356020830186613880565b8181036040830152613c4681613518565b9050613c556060830185613376565b8181036080830152613c678184613449565b905095945050505050565b600060a082019050613c876000830187613880565b613c946020830186613880565b8181036040830152613ca5816135d8565b9050613cb46060830185613376565b8181036080830152613cc68184613449565b905095945050505050565b6000602082019050613ce6600083018461389e565b92915050565b6000604051905081810181811067ffffffffffffffff82111715613d0f57600080fd5b8060405250919050565b600067ffffffffffffffff821115613d3057600080fd5b601f19601f8301169050602081019050919050565b6000819050602082019050919050565b60008190508160005260206000209050919050565b600081519050919050565b600081519050919050565b6000602082019050919050565b600082825260208201905092915050565b600082825260208201905092915050565b6000613dba82613dfc565b9050919050565b6000613dcc82613dfc565b9050919050565b60008115159050919050565b6000819050919050565b6000819050613df782613edd565b919050565b600073ffffffffffffffffffffffffffffffffffffffff82169050919050565b600062ffffff82169050919050565b6000819050919050565b600060ff82169050919050565b6000613e4d82613e66565b9050919050565b6000613e5f82613de9565b9050919050565b6000613e7182613e78565b9050919050565b6000613e8382613dfc565b9050919050565b82818337600083830152505050565b60005b83811015613eb7578082015181840152602081019050613e9c565b83811115613ec6576000848401525b50505050565b6000601f19601f8301169050919050565b60038110613ee757fe5b50565b613ef381613daf565b8114613efe57600080fd5b50565b613f0a81613dd3565b8114613f1557600080fd5b50565b613f2181613ddf565b8114613f2c57600080fd5b50565b613f3881613e1c565b8114613f4357600080fd5b50565b613f4f81613e2b565b8114613f5a57600080fd5b50565b613f6681613e35565b8114613f7157600080fd5b5056fea2646970667358221220e64fa603c13b1aac1a3dbf9498431e2bf77c0a6e7f6c2da2d760d6e84f74880f64736f6c634300060c0033",
  "immutableReferences": {},
  "source": "// SPDX-License-Identifier: MIT\n\npragma solidity >0.6.0 <=0.7.1;\npragma experimental ABIEncoderV2;\n\nimport {User} from \"./User.sol\";\nimport {RUP} from \"./token/RUP.sol\";\nimport {OTPGeneratorAndVerifier} from \"./otp/OTPGeneratorAndVerifier.sol\";\n\ncontract MachuPicchu {\n    address payable public owner;\n    uint256 public startTime;\n\n    uint8 public currentMonth;\n    uint256 public assessmentId;\n    uint8 public totalGroups = 3;\n    uint256 public group1Loss = 0;\n    uint256 public group2Loss = 0;\n    uint256 public group3Loss = 0;\n\n    //Considering MTBF of the community as 48 months = 4 years\n    uint256 MTBF = 2;\n\n    User userContract;\n    RUP tokenContract;\n    OTPGeneratorAndVerifier otpContract;\n\n    constructor(\n        address payable _userContract,\n        address _tokenContract,\n        address _otpContract\n    ) public {\n        assessmentId = 0;\n        startTime = block.timestamp;\n        currentMonth = 0;\n        userContract = User(_userContract);\n        tokenContract = RUP(_tokenContract);\n        otpContract = OTPGeneratorAndVerifier(_otpContract);\n        owner = msg.sender;\n    }\n\n    /* Represent the information stored for each member */\n    struct Member {\n        string name;\n        string village;\n        uint256 lat;\n        uint256 lng;\n        uint256 contribution;\n        uint256 onboardingDate;\n        string mobileNo;\n        uint24 groupId;\n        uint256 merit;\n    }\n\n    struct Assessment {\n        uint256 id;\n        uint24 groupId;\n        uint8 all;\n        uint256 time;\n    }\n\n    /* Public mapping between a member address to the member's details */\n    mapping(address => Member) public members;\n    address[] public membersAddresses;\n    mapping(address => mapping(uint8 => uint256)) Stakes;\n    mapping(uint8 => mapping(uint24 => uint256[])) groupAssessments;\n    mapping(uint256 => Assessment) Assessments;\n    mapping(uint8 => mapping(address => uint256[])) watcherAssessments;\n    mapping(uint8 => mapping(address => uint256)) public compensationAmount;\n\n    /* Public total amount of the pot (sum of all contributions) */\n    uint256 public pot;\n\n    modifier registeredMember(address _user) {\n        bool temp = userContract.checkUserRole(_user, User.UserType(0));\n        require(temp, \"You are not a member\");\n        _;\n    }\n\n    modifier registeredWatcher(address _user) {\n        bool temp = userContract.checkUserRole(_user, User.UserType(1));\n        require(temp, \"You are not a watcher\");\n        _;\n    }\n\n    modifier registeredEnabler(address _user) {\n        bool temp = userContract.checkUserRole(_user, User.UserType(2));\n        require(temp, \"You are not a Enabler\");\n        _;\n    }\n\n    /* Event emitted at each onboarded member */\n    event NewMember(address memberAddress);\n\n    /* Event emitted at each contribution */\n    event NewContribution(address memberAddress, uint256 amount);\n\n    event watcherStakedForMonth(address indexed, uint8 indexed, uint256);\n\n    event watcherAssessedGroup(address indexed, uint24 indexed);\n\n    //Defining an event post Compensation amount Transfer\n    event CompensationTransfer(address member, uint256 amount);\n\n    /*\n    Register a new member.\n    Revert if:\n      - msg.sender is already registered  \n  */\n    function onboardMember(\n        string memory _name,\n        string memory _village,\n        uint256 _lat,\n        uint256 _lng,\n        string memory _mobileNo\n    ) public registeredMember(msg.sender) {\n        // Verifies that the address has never been registered\n        require(\n            members[msg.sender].onboardingDate == 0,\n            \"address already onboarded\"\n        );\n        // Stores member data\n        members[msg.sender].name = _name;\n        members[msg.sender].village = _village;\n        members[msg.sender].lat = _lat;\n        members[msg.sender].lng = _lng;\n        members[msg.sender].onboardingDate = block.timestamp;\n        members[msg.sender].mobileNo = _mobileNo;\n        members[msg.sender].groupId = getGroupId(_lat, _lng);\n        membersAddresses.push(msg.sender);\n        // Emit event\n        emit NewMember(msg.sender);\n    }\n\n    /*\n    Record new contribution.\n    Revert if: \n      - msg.sender is not registered\n      - no ETH is sent with the transaction\n  */\n    function contribute(uint256 otp, uint256 amount)\n        public\n        registeredMember(msg.sender)\n    {\n        // OTP validation has to be done\n        require(\n            otpContract.verifyOTP(otp, msg.sender),\n            \"OTP is either expired or wrong\"\n        );\n        // transfer tokens to this contract after minting on behalf of msg.sender\n        tokenContract._mint(address(this), (amount));\n        // Increments member's balance and pot\n        // TODO: should use SafeMath lib here\n        members[msg.sender].contribution += amount;\n        pot += amount;\n\n        emit NewContribution(msg.sender, amount);\n    }\n\n    function preContributeVerification(uint256 amount)\n        public\n        registeredMember(msg.sender)\n    {\n        require(amount > 2, \"Amount > 2 required\");\n        otpContract.generateOTP(\n            block.timestamp,\n            amount,\n            \"contributing\",\n            msg.sender,\n            members[msg.sender].mobileNo\n        );\n    }\n\n    function getGroupId(uint256 _lat, uint256 _lng)\n        private\n        pure\n        returns (uint24)\n    {\n        // on the basis of _lat and _lng we will have to allot a groupId\n        uint256 t = _lat + _lng;\n        if (t <= 10) {\n            return 1;\n        } else if (t > 10 && t <= 20) {\n            return 2;\n        } else {\n            return 3;\n        }\n    }\n\n    /**\n     * To perform Assessment by a watcher for a particular group(group of fields) for the current month\n     * @param groupId Groupid alloted in User contract\n     * @param _all The final result by watcher\n     *  Before calling this, check if assessment done by this watcher for this group already\n     **/\n    function doAssessmentForAGroup(uint24 groupId, uint8 _all)\n        public\n        registeredWatcher(msg.sender)\n    {\n        // check for nextMonth\n        uint8 nextMonth = getCurrentMonth();\n        if (nextMonth > currentMonth) {\n            currentMonth = nextMonth;\n        }\n        // require minimum amount staked\n        require(\n            Stakes[msg.sender][currentMonth] > 20,\n            \"You should stake first\"\n        );\n        //\n        // make Assessment object\n        Assessment memory asmt = Assessment({\n            id: assessmentId,\n            groupId: groupId,\n            all: _all,\n            time: block.timestamp\n        });\n        // add to Assessments list\n        Assessments[assessmentId] = asmt;\n        // add to groupAssessments list\n        groupAssessments[currentMonth][groupId].push(assessmentId);\n        // add to watcherAssessments list\n        watcherAssessments[currentMonth][msg.sender].push(assessmentId);\n        // event\n        emit watcherAssessedGroup(msg.sender, groupId);\n        // increment assessmentId by 1\n        assessmentId += 1;\n    }\n\n    /**\n     * To get assessment of a group of a particular month\n     * @param monthId month-id\n     * @param groupId group-id\n     * @return array of assessment ids\n     *\n     **/\n    function getAssessmentsOfAGroup(uint8 monthId, uint24 groupId)\n        public\n        view\n        returns (uint256[] memory)\n    {\n        return groupAssessments[monthId][groupId];\n    }\n\n    /**\n     * To get assessment of a watcher of a particular month\n     * @param monthId month-id\n     * @return array of assessment ids\n     *\n     **/\n    function getAssessmentsDoneByAWatcher(uint8 monthId)\n        public\n        view\n        registeredWatcher(msg.sender)\n        returns (uint256[] memory)\n    {\n        return watcherAssessments[monthId][msg.sender];\n    }\n\n    /**\n     * To get detail of a particular assessment\n     * @param _id assessment-id\n     * @return Assessment struct\n     *\n     **/\n    function getAssessmentDetail(uint256 _id)\n        public\n        view\n        returns (Assessment memory)\n    {\n        return Assessments[_id];\n    }\n\n    /**\n     * To stake/increment in stake for the currentMonth by a watcher\n     *\n     **/\n    function stake(uint256 amount) public registeredWatcher(msg.sender) {\n        require(amount > 20, \"Your stake amount is not sufficient\");\n        // check for nextMonth\n        uint8 nextMonth = getCurrentMonth();\n        if (nextMonth > currentMonth) {\n            currentMonth = nextMonth;\n        }\n        tokenContract.transferFrom(msg.sender, address(this), amount);\n        Stakes[msg.sender][currentMonth] += amount;\n        emit watcherStakedForMonth(msg.sender, currentMonth, amount);\n    }\n\n    /**\n     * To get total staked anount of a watcher\n     * @return total amount\n     *\n     **/\n    function getTotalStakeAmounts()\n        public\n        view\n        registeredWatcher(msg.sender)\n        returns (uint256)\n    {\n        mapping(uint8 => uint256) storage temp = Stakes[msg.sender];\n        uint256 totakStakedAmount = 0;\n        for (uint8 i = 1; i <= 12; i++) {\n            totakStakedAmount += temp[i];\n        }\n        return totakStakedAmount;\n    }\n\n    /**\n     * To get total staked anount of a watcher in a particular month\n     * @param monthId month-id\n     * @return total amount\n     *\n     **/\n    function getStakedAmountInAMonth(uint8 monthId)\n        public\n        view\n        registeredWatcher(msg.sender)\n        returns (uint256)\n    {\n        mapping(uint8 => uint256) storage temp = Stakes[msg.sender];\n        return temp[monthId];\n    }\n\n    /**\n     * To get current month\n     * @return current month\n     *\n     **/\n    function getCurrentMonth() public view returns (uint8) {\n        return uint8((startTime - block.timestamp) / 60 / 60 / 24 / 30) % 12;\n    }\n\n    function monthlyLossCalculation() public {\n        // aim to make it automatic on detect of month change\n        // right now owner of the contract can only do it\n        require(msg.sender == owner, \"You are not authorised\");\n\n\n            mapping(uint24 => uint256[]) storage assessments\n         = groupAssessments[currentMonth];\n        uint256 group1LossTotal;\n        uint256 group2LossTotal;\n        uint256 group3LossTotal;\n\n        for (uint256 i = 0; i < assessments[1].length; i++) {\n            group1LossTotal += Assessments[assessments[1][i]].all;\n        }\n\n        for (uint256 i = 0; i < assessments[2].length; i++) {\n            group2LossTotal += Assessments[assessments[2][i]].all;\n        }\n\n        for (uint256 i = 0; i < assessments[3].length; i++) {\n            group3LossTotal += Assessments[assessments[3][i]].all;\n        }\n\n        group1Loss = group1LossTotal / assessments[1].length;\n        group2Loss = group2LossTotal / assessments[2].length;\n        group3Loss = group3LossTotal / assessments[3].length;\n\n        // check watchers data and reward/punish them remaining\n    }\n\n    //Calculate merit of member based on Avg monthly contribution\n    function calcMerit(address _member) private returns (uint256) {\n        uint256 totalMonth = (block.timestamp -\n            members[_member].onboardingDate) /\n            60 /\n            60 /\n            24 /\n            30;\n        uint256 merit = members[_member].contribution / (totalMonth + 1);\n        members[_member].merit = merit;\n        return merit;\n    }\n\n    //Calculate Compensation of partiucualr member & transfer to member account\n    function calcCompensation() public registeredEnabler(msg.sender) {\n        //Below value will come from Watcher smart contract\n        for (uint256 i = 0; i < membersAddresses.length; i++) {\n            Member memory m = members[membersAddresses[i]];\n            uint256 lossPercent = 0;\n\n            if (m.groupId == 1) {\n                lossPercent = group1Loss;\n            } else if (m.groupId == 2) {\n                lossPercent = group2Loss;\n            } else if (m.groupId == 3) {\n                lossPercent = group3Loss;\n            }\n\n            uint256 memberMerit = calcMerit(membersAddresses[i]);\n            uint256 compAmount = (lossPercent * memberMerit * MTBF) / 100;\n            compensationAmount[currentMonth][membersAddresses[i]] = compAmount;\n        }\n\n        group1Loss = 0;\n        group2Loss = 0;\n        group3Loss = 0;\n    }\n\n    function payoutCompensation(uint256 otp)\n        public\n        registeredMember(msg.sender)\n    {\n        // OTP validation has to be done\n        require(\n            otpContract.verifyOTP(otp, msg.sender),\n            \"OTP is either expired or wrong\"\n        );\n        require(\n            compensationAmount[currentMonth][msg.sender] <= pot,\n            \"Not enough amount in pot\"\n        );\n        uint256 amount = compensationAmount[currentMonth][msg.sender];\n        compensationAmount[currentMonth][msg.sender] = 0;\n        pot -= amount;\n        tokenContract._burn(address(this), amount);\n        emit CompensationTransfer(msg.sender, amount);\n    }\n\n    function prePayoutVerification() public registeredMember(msg.sender) {\n        otpContract.generateOTP(\n            block.timestamp,\n            compensationAmount[currentMonth][msg.sender],\n            \"compensation\",\n            msg.sender,\n            members[msg.sender].mobileNo\n        );\n    }\n}\n",
  "sourcePath": "/home/kuldeep/ETHEREUM/MachuPichu/hackathon/contracts/MachuPicchu.sol",
  "compiler": {
    "name": "solc",
    "version": "0.6.12+commit.27d51765.Emscripten.clang"
  },
  "schemaVersion": "3.2.5",
  "updatedAt": "2020-10-15T15:07:34.179Z",
  "networkType": "ethereum",
  "devdoc": {
    "kind": "dev",
    "methods": {
      "doAssessmentForAGroup(uint24,uint8)": {
        "params": {
          "_all": "The final result by watcher  Before calling this, check if assessment done by this watcher for this group already*",
          "groupId": "Groupid alloted in User contract"
        }
      },
      "getAssessmentDetail(uint256)": {
        "params": {
          "_id": "assessment-id"
        },
        "returns": {
          "_0": "Assessment struct*"
        }
      },
      "getAssessmentsDoneByAWatcher(uint8)": {
        "params": {
          "monthId": "month-id"
        },
        "returns": {
          "_0": "array of assessment ids*"
        }
      },
      "getAssessmentsOfAGroup(uint8,uint24)": {
        "params": {
          "groupId": "group-id",
          "monthId": "month-id"
        },
        "returns": {
          "_0": "array of assessment ids*"
        }
      },
      "getCurrentMonth()": {
        "returns": {
          "_0": "current month*"
        }
      },
      "getStakedAmountInAMonth(uint8)": {
        "params": {
          "monthId": "month-id"
        },
        "returns": {
          "_0": "total amount*"
        }
      },
      "getTotalStakeAmounts()": {
        "returns": {
          "_0": "total amount*"
        }
      }
    },
    "version": 1
  },
  "userdoc": {
    "kind": "user",
    "methods": {
      "doAssessmentForAGroup(uint24,uint8)": {
        "notice": "To perform Assessment by a watcher for a particular group(group of fields) for the current month"
      },
      "getAssessmentDetail(uint256)": {
        "notice": "To get detail of a particular assessment"
      },
      "getAssessmentsDoneByAWatcher(uint8)": {
        "notice": "To get assessment of a watcher of a particular month"
      },
      "getAssessmentsOfAGroup(uint8,uint24)": {
        "notice": "To get assessment of a group of a particular month"
      },
      "getCurrentMonth()": {
        "notice": "To get current month"
      },
      "getStakedAmountInAMonth(uint8)": {
        "notice": "To get total staked anount of a watcher in a particular month"
      },
      "getTotalStakeAmounts()": {
        "notice": "To get total staked anount of a watcher"
      },
      "stake(uint256)": {
        "notice": "To stake/increment in stake for the currentMonth by a watcher*"
      }
    },
    "version": 1
  }
}