{
  "contractName": "MachuPicchu",
  "abi": [
    {
      "inputs": [
        {
          "internalType": "address payable",
          "name": "_userContract",
          "type": "address"
        },
        {
          "internalType": "address",
          "name": "_tokenContract",
          "type": "address"
        },
        {
          "internalType": "address",
          "name": "_otpContract",
          "type": "address"
        }
      ],
      "stateMutability": "nonpayable",
      "type": "constructor"
    },
    {
      "anonymous": false,
      "inputs": [
        {
          "indexed": false,
          "internalType": "address",
          "name": "member",
          "type": "address"
        },
        {
          "indexed": false,
          "internalType": "uint256",
          "name": "amount",
          "type": "uint256"
        }
      ],
      "name": "CompensationTransfer",
      "type": "event"
    },
    {
      "anonymous": false,
      "inputs": [
        {
          "indexed": false,
          "internalType": "address",
          "name": "memberAddress",
          "type": "address"
        },
        {
          "indexed": false,
          "internalType": "uint256",
          "name": "amount",
          "type": "uint256"
        }
      ],
      "name": "NewContribution",
      "type": "event"
    },
    {
      "anonymous": false,
      "inputs": [
        {
          "indexed": false,
          "internalType": "address",
          "name": "memberAddress",
          "type": "address"
        }
      ],
      "name": "NewMember",
      "type": "event"
    },
    {
      "anonymous": false,
      "inputs": [
        {
          "indexed": true,
          "internalType": "address",
          "name": "",
          "type": "address"
        },
        {
          "indexed": true,
          "internalType": "uint24",
          "name": "",
          "type": "uint24"
        }
      ],
      "name": "watcherAssessedGroup",
      "type": "event"
    },
    {
      "anonymous": false,
      "inputs": [
        {
          "indexed": true,
          "internalType": "address",
          "name": "",
          "type": "address"
        },
        {
          "indexed": true,
          "internalType": "uint8",
          "name": "",
          "type": "uint8"
        },
        {
          "indexed": false,
          "internalType": "uint256",
          "name": "",
          "type": "uint256"
        }
      ],
      "name": "watcherStakedForMonth",
      "type": "event"
    },
    {
      "inputs": [],
      "name": "assessmentId",
      "outputs": [
        {
          "internalType": "uint256",
          "name": "",
          "type": "uint256"
        }
      ],
      "stateMutability": "view",
      "type": "function",
      "constant": true
    },
    {
      "inputs": [
        {
          "internalType": "uint8",
          "name": "",
          "type": "uint8"
        },
        {
          "internalType": "address",
          "name": "",
          "type": "address"
        }
      ],
      "name": "compensationAmount",
      "outputs": [
        {
          "internalType": "uint256",
          "name": "",
          "type": "uint256"
        }
      ],
      "stateMutability": "view",
      "type": "function",
      "constant": true
    },
    {
      "inputs": [],
      "name": "currentMonth",
      "outputs": [
        {
          "internalType": "uint8",
          "name": "",
          "type": "uint8"
        }
      ],
      "stateMutability": "view",
      "type": "function",
      "constant": true
    },
    {
      "inputs": [],
      "name": "group1Loss",
      "outputs": [
        {
          "internalType": "uint256",
          "name": "",
          "type": "uint256"
        }
      ],
      "stateMutability": "view",
      "type": "function",
      "constant": true
    },
    {
      "inputs": [],
      "name": "group2Loss",
      "outputs": [
        {
          "internalType": "uint256",
          "name": "",
          "type": "uint256"
        }
      ],
      "stateMutability": "view",
      "type": "function",
      "constant": true
    },
    {
      "inputs": [],
      "name": "group3Loss",
      "outputs": [
        {
          "internalType": "uint256",
          "name": "",
          "type": "uint256"
        }
      ],
      "stateMutability": "view",
      "type": "function",
      "constant": true
    },
    {
      "inputs": [
        {
          "internalType": "address",
          "name": "forwarder",
          "type": "address"
        }
      ],
      "name": "isTrustedForwarder",
      "outputs": [
        {
          "internalType": "bool",
          "name": "",
          "type": "bool"
        }
      ],
      "stateMutability": "view",
      "type": "function",
      "constant": true
    },
    {
      "inputs": [
        {
          "internalType": "address",
          "name": "",
          "type": "address"
        }
      ],
      "name": "members",
      "outputs": [
        {
          "internalType": "string",
          "name": "name",
          "type": "string"
        },
        {
          "internalType": "string",
          "name": "village",
          "type": "string"
        },
        {
          "internalType": "uint256",
          "name": "lat",
          "type": "uint256"
        },
        {
          "internalType": "uint256",
          "name": "lng",
          "type": "uint256"
        },
        {
          "internalType": "uint256",
          "name": "contribution",
          "type": "uint256"
        },
        {
          "internalType": "uint256",
          "name": "onboardingDate",
          "type": "uint256"
        },
        {
          "internalType": "string",
          "name": "mobileNo",
          "type": "string"
        },
        {
          "internalType": "uint24",
          "name": "groupId",
          "type": "uint24"
        },
        {
          "internalType": "uint256",
          "name": "merit",
          "type": "uint256"
        }
      ],
      "stateMutability": "view",
      "type": "function",
      "constant": true
    },
    {
      "inputs": [
        {
          "internalType": "uint256",
          "name": "",
          "type": "uint256"
        }
      ],
      "name": "membersAddresses",
      "outputs": [
        {
          "internalType": "address",
          "name": "",
          "type": "address"
        }
      ],
      "stateMutability": "view",
      "type": "function",
      "constant": true
    },
    {
      "inputs": [],
      "name": "owner",
      "outputs": [
        {
          "internalType": "address payable",
          "name": "",
          "type": "address"
        }
      ],
      "stateMutability": "view",
      "type": "function",
      "constant": true
    },
    {
      "inputs": [],
      "name": "pot",
      "outputs": [
        {
          "internalType": "uint256",
          "name": "",
          "type": "uint256"
        }
      ],
      "stateMutability": "view",
      "type": "function",
      "constant": true
    },
    {
      "inputs": [],
      "name": "startTime",
      "outputs": [
        {
          "internalType": "uint256",
          "name": "",
          "type": "uint256"
        }
      ],
      "stateMutability": "view",
      "type": "function",
      "constant": true
    },
    {
      "inputs": [],
      "name": "totalGroups",
      "outputs": [
        {
          "internalType": "uint8",
          "name": "",
          "type": "uint8"
        }
      ],
      "stateMutability": "view",
      "type": "function",
      "constant": true
    },
    {
      "inputs": [],
      "name": "trustedForwarder",
      "outputs": [
        {
          "internalType": "address",
          "name": "",
          "type": "address"
        }
      ],
      "stateMutability": "view",
      "type": "function",
      "constant": true
    },
    {
      "inputs": [],
      "name": "versionRecipient",
      "outputs": [
        {
          "internalType": "string",
          "name": "",
          "type": "string"
        }
      ],
      "stateMutability": "view",
      "type": "function",
      "constant": true
    },
    {
      "inputs": [
        {
          "internalType": "string",
          "name": "_name",
          "type": "string"
        },
        {
          "internalType": "string",
          "name": "_village",
          "type": "string"
        },
        {
          "internalType": "uint256",
          "name": "_lat",
          "type": "uint256"
        },
        {
          "internalType": "uint256",
          "name": "_lng",
          "type": "uint256"
        },
        {
          "internalType": "string",
          "name": "_mobileNo",
          "type": "string"
        }
      ],
      "name": "onboardMember",
      "outputs": [],
      "stateMutability": "nonpayable",
      "type": "function"
    },
    {
      "inputs": [
        {
          "internalType": "uint256",
          "name": "otp",
          "type": "uint256"
        },
        {
          "internalType": "uint256",
          "name": "amount",
          "type": "uint256"
        }
      ],
      "name": "contribute",
      "outputs": [],
      "stateMutability": "nonpayable",
      "type": "function"
    },
    {
      "inputs": [
        {
          "internalType": "uint256",
          "name": "amount",
          "type": "uint256"
        }
      ],
      "name": "preContributeVerification",
      "outputs": [],
      "stateMutability": "nonpayable",
      "type": "function"
    },
    {
      "inputs": [
        {
          "internalType": "uint24",
          "name": "groupId",
          "type": "uint24"
        },
        {
          "internalType": "uint8",
          "name": "_all",
          "type": "uint8"
        }
      ],
      "name": "doAssessmentForAGroup",
      "outputs": [],
      "stateMutability": "nonpayable",
      "type": "function"
    },
    {
      "inputs": [
        {
          "internalType": "uint8",
          "name": "monthId",
          "type": "uint8"
        },
        {
          "internalType": "uint24",
          "name": "groupId",
          "type": "uint24"
        }
      ],
      "name": "getAssessmentsOfAGroup",
      "outputs": [
        {
          "internalType": "uint256[]",
          "name": "",
          "type": "uint256[]"
        }
      ],
      "stateMutability": "view",
      "type": "function",
      "constant": true
    },
    {
      "inputs": [
        {
          "internalType": "uint8",
          "name": "monthId",
          "type": "uint8"
        }
      ],
      "name": "getAssessmentsDoneByAWatcher",
      "outputs": [
        {
          "internalType": "uint256[]",
          "name": "",
          "type": "uint256[]"
        }
      ],
      "stateMutability": "view",
      "type": "function",
      "constant": true
    },
    {
      "inputs": [
        {
          "internalType": "uint256",
          "name": "_id",
          "type": "uint256"
        }
      ],
      "name": "getAssessmentDetail",
      "outputs": [
        {
          "components": [
            {
              "internalType": "uint256",
              "name": "id",
              "type": "uint256"
            },
            {
              "internalType": "uint24",
              "name": "groupId",
              "type": "uint24"
            },
            {
              "internalType": "uint8",
              "name": "all",
              "type": "uint8"
            },
            {
              "internalType": "uint256",
              "name": "time",
              "type": "uint256"
            }
          ],
          "internalType": "struct MachuPicchu.Assessment",
          "name": "",
          "type": "tuple"
        }
      ],
      "stateMutability": "view",
      "type": "function",
      "constant": true
    },
    {
      "inputs": [
        {
          "internalType": "uint256",
          "name": "amount",
          "type": "uint256"
        }
      ],
      "name": "stake",
      "outputs": [],
      "stateMutability": "nonpayable",
      "type": "function"
    },
    {
      "inputs": [],
      "name": "getTotalStakeAmounts",
      "outputs": [
        {
          "internalType": "uint256",
          "name": "",
          "type": "uint256"
        }
      ],
      "stateMutability": "view",
      "type": "function",
      "constant": true
    },
    {
      "inputs": [
        {
          "internalType": "uint8",
          "name": "monthId",
          "type": "uint8"
        }
      ],
      "name": "getStakedAmountInAMonth",
      "outputs": [
        {
          "internalType": "uint256",
          "name": "",
          "type": "uint256"
        }
      ],
      "stateMutability": "view",
      "type": "function",
      "constant": true
    },
    {
      "inputs": [],
      "name": "getCurrentMonth",
      "outputs": [
        {
          "internalType": "uint8",
          "name": "",
          "type": "uint8"
        }
      ],
      "stateMutability": "view",
      "type": "function",
      "constant": true
    },
    {
      "inputs": [],
      "name": "monthlyLossCalculation",
      "outputs": [],
      "stateMutability": "nonpayable",
      "type": "function"
    },
    {
      "inputs": [],
      "name": "calcCompensation",
      "outputs": [],
      "stateMutability": "nonpayable",
      "type": "function"
    },
    {
      "inputs": [
        {
          "internalType": "uint256",
          "name": "otp",
          "type": "uint256"
        }
      ],
      "name": "payoutCompensation",
      "outputs": [],
      "stateMutability": "nonpayable",
      "type": "function"
    },
    {
      "inputs": [],
      "name": "prePayoutVerification",
      "outputs": [],
      "stateMutability": "nonpayable",
      "type": "function"
    },
    {
      "inputs": [],
      "name": "getTrustedForwarder",
      "outputs": [
        {
          "internalType": "address",
          "name": "",
          "type": "address"
        }
      ],
      "stateMutability": "view",
      "type": "function",
      "constant": true
    }
  ],
  "bytecode": "0x60806040526040518060400160405280600581526020017f322e302e30000000000000000000000000000000000000000000000000000000815250600190805190602001906200005192919062000241565b506003600660006101000a81548160ff021916908360ff1602179055506000600755600060085560006009556002600a553480156200008f57600080fd5b5060405162004e1d38038062004e1d8339818101604052810190620000b5919062000315565b6000600581905550426003819055506000600460006101000a81548160ff021916908360ff16021790555082600b60006101000a81548173ffffffffffffffffffffffffffffffffffffffff021916908373ffffffffffffffffffffffffffffffffffffffff16021790555081600c60006101000a81548173ffffffffffffffffffffffffffffffffffffffff021916908373ffffffffffffffffffffffffffffffffffffffff16021790555080600d60006101000a81548173ffffffffffffffffffffffffffffffffffffffff021916908373ffffffffffffffffffffffffffffffffffffffff16021790555033600260006101000a81548173ffffffffffffffffffffffffffffffffffffffff021916908373ffffffffffffffffffffffffffffffffffffffff160217905550730842ad6b8cb64364761c7c170d0002cc56b1c4986000806101000a81548173ffffffffffffffffffffffffffffffffffffffff021916908373ffffffffffffffffffffffffffffffffffffffff160217905550505050620003e7565b828054600181600116156101000203166002900490600052602060002090601f016020900481019282601f106200028457805160ff1916838001178555620002b5565b82800160010185558215620002b5579182015b82811115620002b457825182559160200191906001019062000297565b5b509050620002c49190620002c8565b5090565b5b80821115620002e3576000816000905550600101620002c9565b5090565b600081519050620002f881620003b3565b92915050565b6000815190506200030f81620003cd565b92915050565b6000806000606084860312156200032b57600080fd5b60006200033b86828701620002fe565b93505060206200034e86828701620002e7565b92505060406200036186828701620002e7565b9150509250925092565b6000620003788262000393565b9050919050565b60006200038c8262000393565b9050919050565b600073ffffffffffffffffffffffffffffffffffffffff82169050919050565b620003be816200036b565b8114620003ca57600080fd5b50565b620003d8816200037f565b8114620003e457600080fd5b50565b614a2680620003f76000396000f3fe608060405234801561001057600080fd5b50600436106101e55760003560e01c8063839b42991161010f578063c75f2893116100a2578063ddd1b67e11610071578063ddd1b67e14610566578063e2fc1ab414610584578063e972e278146105b4578063f6efab36146105d2576101e5565b8063c75f2893146104de578063ce1b815f146104fc578063d0bea6761461051a578063d5fb94ea14610536576101e5565b8063969109d6116100de578063969109d61461046a578063a694fc3a14610488578063b2ec7b06146104a4578063bd203219146104c0576101e5565b8063839b4299146103e2578063862a4d47146104125780638c590917146104305780638da5cb5b1461044c576101e5565b80634ba2363a1161018757806363fe04131161015657806363fe04131461036a57806369d1dca31461038857806378e97925146103a65780637da0a877146103c4576101e5565b80634ba2363a146102d05780634f6e8388146102ee578063572b6c051461030a5780635ee5a3c61461033a576101e5565b80632ac8df54116101c35780632ac8df54146102485780632b740d4414610252578063486ff0cd1461028257806348efb808146102a0576101e5565b806303003eb8146101ea57806308ae4b0c14610206578063102510631461023e575b600080fd5b61020460048036038101906101ff9190613b15565b6105dc565b005b610220600480360381019061021b9190613a71565b610a91565b6040516102359998979695949392919061442a565b60405180910390f35b610246610cb6565b005b6102506115a8565b005b61026c60048036038101906102679190613c75565b611aff565b6040516102799190614627565b60405180910390f35b61028a611c73565b6040516102979190614408565b60405180910390f35b6102ba60048036038101906102b59190613c75565b611d11565b6040516102c79190614395565b60405180910390f35b6102d8611ecd565b6040516102e59190614627565b60405180910390f35b61030860048036038101906103039190613bd4565b611ed3565b005b610324600480360381019061031f9190613a71565b6122de565b60405161033191906143b7565b60405180910390f35b610354600480360381019061034f9190613c10565b612337565b6040516103619190614292565b60405180910390f35b610372612373565b60405161037f9190614627565b60405180910390f35b610390612379565b60405161039d9190614627565b60405180910390f35b6103ae612512565b6040516103bb9190614627565b60405180910390f35b6103cc612518565b6040516103d99190614292565b60405180910390f35b6103fc60048036038101906103f79190613cda565b61253c565b6040516104099190614395565b60405180910390f35b61041a6125c9565b6040516104279190614729565b60405180910390f35b61044a60048036038101906104459190613c39565b6125dc565b005b610454612912565b60405161046191906142c8565b60405180910390f35b610472612938565b60405161047f9190614627565b60405180910390f35b6104a2600480360381019061049d9190613c10565b61293e565b005b6104be60048036038101906104b99190613c10565b612c6c565b005b6104c8612ebc565b6040516104d59190614627565b60405180910390f35b6104e6612ec2565b6040516104f39190614729565b60405180910390f35b610504612ed5565b6040516105119190614292565b60405180910390f35b610534600480360381019061052f9190613c10565b612efe565b005b610550600480360381019061054b9190613c9e565b613371565b60405161055d9190614627565b60405180910390f35b61056e613396565b60405161057b9190614729565b60405180910390f35b61059e60048036038101906105999190613c10565b6133d6565b6040516105ab919061460c565b60405180910390f35b6105bc613457565b6040516105c99190614627565b60405180910390f35b6105da61345d565b005b6105e46136d5565b6000600b60009054906101000a900473ffffffffffffffffffffffffffffffffffffffff1673ffffffffffffffffffffffffffffffffffffffff166342584166836000600281111561063257fe5b6040518363ffffffff1660e01b815260040161064f929190614343565b60206040518083038186803b15801561066757600080fd5b505afa15801561067b573d6000803e3d6000fd5b505050506040513d601f19601f8201168201806040525081019061069f9190613ac3565b9050806106e1576040517f08c379a00000000000000000000000000000000000000000000000000000000081526004016106d8906145ac565b60405180910390fd5b6000600e60006106ef6136d5565b73ffffffffffffffffffffffffffffffffffffffff1673ffffffffffffffffffffffffffffffffffffffff168152602001908152602001600020600501541461076d576040517f08c379a00000000000000000000000000000000000000000000000000000000081526004016107649061458c565b60405180910390fd5b86600e600061077a6136d5565b73ffffffffffffffffffffffffffffffffffffffff1673ffffffffffffffffffffffffffffffffffffffff16815260200190815260200160002060000190805190602001906107ca92919061386c565b5085600e60006107d86136d5565b73ffffffffffffffffffffffffffffffffffffffff1673ffffffffffffffffffffffffffffffffffffffff168152602001908152602001600020600101908051906020019061082892919061386c565b5084600e60006108366136d5565b73ffffffffffffffffffffffffffffffffffffffff1673ffffffffffffffffffffffffffffffffffffffff1681526020019081526020016000206002018190555083600e60006108846136d5565b73ffffffffffffffffffffffffffffffffffffffff1673ffffffffffffffffffffffffffffffffffffffff1681526020019081526020016000206003018190555042600e60006108d26136d5565b73ffffffffffffffffffffffffffffffffffffffff1673ffffffffffffffffffffffffffffffffffffffff1681526020019081526020016000206005018190555082600e60006109206136d5565b73ffffffffffffffffffffffffffffffffffffffff1673ffffffffffffffffffffffffffffffffffffffff168152602001908152602001600020600601908051906020019061097092919061386c565b5061097b8585613711565b600e60006109876136d5565b73ffffffffffffffffffffffffffffffffffffffff1673ffffffffffffffffffffffffffffffffffffffff16815260200190815260200160002060070160006101000a81548162ffffff021916908362ffffff160217905550600f6109ea6136d5565b9080600181540180825580915050600190039060005260206000200160009091909190916101000a81548173ffffffffffffffffffffffffffffffffffffffff021916908373ffffffffffffffffffffffffffffffffffffffff1602179055507fb4dcb6dd550f27b5917ebf674899ea7046ff91790c6f9f01431617ad39819db2610a736136d5565b604051610a8091906142ad565b60405180910390a150505050505050565b600e602052806000526040600020600091509050806000018054600181600116156101000203166002900480601f016020809104026020016040519081016040528092919081815260200182805460018160011615610100020316600290048015610b3d5780601f10610b1257610100808354040283529160200191610b3d565b820191906000526020600020905b815481529060010190602001808311610b2057829003601f168201915b505050505090806001018054600181600116156101000203166002900480601f016020809104026020016040519081016040528092919081815260200182805460018160011615610100020316600290048015610bdb5780601f10610bb057610100808354040283529160200191610bdb565b820191906000526020600020905b815481529060010190602001808311610bbe57829003601f168201915b505050505090806002015490806003015490806004015490806005015490806006018054600181600116156101000203166002900480601f016020809104026020016040519081016040528092919081815260200182805460018160011615610100020316600290048015610c915780601f10610c6657610100808354040283529160200191610c91565b820191906000526020600020905b815481529060010190602001808311610c7457829003601f168201915b5050505050908060070160009054906101000a900462ffffff16908060080154905089565b600260009054906101000a900473ffffffffffffffffffffffffffffffffffffffff1673ffffffffffffffffffffffffffffffffffffffff16610cf76136d5565b73ffffffffffffffffffffffffffffffffffffffff1614610d4d576040517f08c379a0000000000000000000000000000000000000000000000000000000008152600401610d449061450c565b60405180910390fd5b600060116000600460009054906101000a900460ff1660ff1660ff1681526020019081526020016000209050600080600080600090505b846000600162ffffff16815260200190815260200160002080549050811015610e0c5760126000866000600162ffffff1681526020019081526020016000208381548110610dce57fe5b9060005260206000200154815260200190815260200160002060010160039054906101000a900460ff1660ff16840193508080600101915050610d84565b5060005b846000600262ffffff16815260200190815260200160002080549050811015610e985760126000866000600262ffffff1681526020019081526020016000208381548110610e5a57fe5b9060005260206000200154815260200190815260200160002060010160039054906101000a900460ff1660ff16830192508080600101915050610e10565b5060005b846000600362ffffff16815260200190815260200160002080549050811015610f245760126000866000600362ffffff1681526020019081526020016000208381548110610ee657fe5b9060005260206000200154815260200190815260200160002060010160039054906101000a900460ff1660ff16820191508080600101915050610e9c565b50836000600162ffffff168152602001908152602001600020805490508381610f4957fe5b04600781905550836000600262ffffff168152602001908152602001600020805490508281610f7457fe5b04600881905550836000600362ffffff168152602001908152602001600020805490508181610f9f57fe5b046009819055506000600360095481610fb457fe5b0460085460075401019050600060136000600460009054906101000a900460ff1660ff1660ff16815260200190815260200160002090506000806000806000806000806000806000600b60009054906101000a900473ffffffffffffffffffffffffffffffffffffffff1673ffffffffffffffffffffffffffffffffffffffff1663c4d4b36860006040518263ffffffff1660e01b815260040161105891906143d2565b60206040518083038186803b15801561107057600080fd5b505afa158015611084573d6000803e3d6000fd5b505050506040513d601f19601f820116820180604052508101906110a89190613a9a565b90506000600b60009054906101000a900473ffffffffffffffffffffffffffffffffffffffff1673ffffffffffffffffffffffffffffffffffffffff1663c4d4b36860016040518263ffffffff1660e01b815260040161110891906143ed565b60206040518083038186803b15801561112057600080fd5b505afa158015611134573d6000803e3d6000fd5b505050506040513d601f19601f820116820180604052508101906111589190613a9a565b905060005b8d60008473ffffffffffffffffffffffffffffffffffffffff1673ffffffffffffffffffffffffffffffffffffffff1681526020019081526020016000208054905081101561123157601260008f60008673ffffffffffffffffffffffffffffffffffffffff1673ffffffffffffffffffffffffffffffffffffffff16815260200190815260200160002083815481106111f357fe5b9060005260206000200154815260200190815260200160002060010160039054906101000a900460ff1660ff168d019c50808060010191505061115d565b5060005b8d60008373ffffffffffffffffffffffffffffffffffffffff1673ffffffffffffffffffffffffffffffffffffffff1681526020019081526020016000208054905081101561130957601260008f60008573ffffffffffffffffffffffffffffffffffffffff1673ffffffffffffffffffffffffffffffffffffffff16815260200190815260200160002083815481106112cb57fe5b9060005260206000200154815260200190815260200160002060010160039054906101000a900460ff1660ff168c019b508080600101915050611235565b5060038c8161131457fe5b04995060038b8161132157fe5b04985060008a8f03111561133957898e03975061133f565b8d8a0397505b6000898f03111561135457888e03965061135a565b8d890396505b601060008373ffffffffffffffffffffffffffffffffffffffff1673ffffffffffffffffffffffffffffffffffffffff1681526020019081526020016000206000600460009054906101000a900460ff1660ff1660ff168152602001908152602001600020549550601060008273ffffffffffffffffffffffffffffffffffffffff1673ffffffffffffffffffffffffffffffffffffffff1681526020019081526020016000206000600460009054906101000a900460ff1660ff1660ff16815260200190815260200160002054945087860193508685019250600c60009054906101000a900473ffffffffffffffffffffffffffffffffffffffff1673ffffffffffffffffffffffffffffffffffffffff1663a9059cbb83866040518363ffffffff1660e01b815260040161149192919061436c565b602060405180830381600087803b1580156114ab57600080fd5b505af11580156114bf573d6000803e3d6000fd5b505050506040513d601f19601f820116820180604052508101906114e39190613ac3565b50600c60009054906101000a900473ffffffffffffffffffffffffffffffffffffffff1673ffffffffffffffffffffffffffffffffffffffff1663a9059cbb82856040518363ffffffff1660e01b815260040161154192919061436c565b602060405180830381600087803b15801561155b57600080fd5b505af115801561156f573d6000803e3d6000fd5b505050506040513d601f19601f820116820180604052508101906115939190613ac3565b50505050505050505050505050505050505050565b6115b06136d5565b6000600b60009054906101000a900473ffffffffffffffffffffffffffffffffffffffff1673ffffffffffffffffffffffffffffffffffffffff166342584166836002808111156115fd57fe5b6040518363ffffffff1660e01b815260040161161a929190614343565b60206040518083038186803b15801561163257600080fd5b505afa158015611646573d6000803e3d6000fd5b505050506040513d601f19601f8201168201806040525081019061166a9190613ac3565b9050806116ac576040517f08c379a00000000000000000000000000000000000000000000000000000000081526004016116a39061452c565b60405180910390fd5b60005b600f80549050811015611ae2576116c46138ec565b600e6000600f84815481106116d557fe5b9060005260206000200160009054906101000a900473ffffffffffffffffffffffffffffffffffffffff1673ffffffffffffffffffffffffffffffffffffffff1673ffffffffffffffffffffffffffffffffffffffff16815260200190815260200160002060405180610120016040529081600082018054600181600116156101000203166002900480601f0160208091040260200160405190810160405280929190818152602001828054600181600116156101000203166002900480156117df5780601f106117b4576101008083540402835291602001916117df565b820191906000526020600020905b8154815290600101906020018083116117c257829003601f168201915b50505050508152602001600182018054600181600116156101000203166002900480601f0160208091040260200160405190810160405280929190818152602001828054600181600116156101000203166002900480156118815780601f1061185657610100808354040283529160200191611881565b820191906000526020600020905b81548152906001019060200180831161186457829003601f168201915b5050505050815260200160028201548152602001600382015481526020016004820154815260200160058201548152602001600682018054600181600116156101000203166002900480601f01602080910402602001604051908101604052809291908181526020018280546001816001161561010002031660029004801561194b5780601f106119205761010080835404028352916020019161194b565b820191906000526020600020905b81548152906001019060200180831161192e57829003601f168201915b505050505081526020016007820160009054906101000a900462ffffff1662ffffff1662ffffff1681526020016008820154815250509050600060018260e0015162ffffff1614156119a15760075490506119d7565b60028260e0015162ffffff1614156119bd5760085490506119d6565b60038260e0015162ffffff1614156119d55760095490505b5b5b6000611a19600f85815481106119e957fe5b9060005260206000200160009054906101000a900473ffffffffffffffffffffffffffffffffffffffff16613757565b905060006064600a548385020281611a2d57fe5b0490508060146000600460009054906101000a900460ff1660ff1660ff1681526020019081526020016000206000600f8881548110611a6857fe5b9060005260206000200160009054906101000a900473ffffffffffffffffffffffffffffffffffffffff1673ffffffffffffffffffffffffffffffffffffffff1673ffffffffffffffffffffffffffffffffffffffff168152602001908152602001600020819055505050505080806001019150506116af565b506000600781905550600060088190555060006009819055505050565b6000611b096136d5565b6000600b60009054906101000a900473ffffffffffffffffffffffffffffffffffffffff1673ffffffffffffffffffffffffffffffffffffffff1663425841668360016002811115611b5757fe5b6040518363ffffffff1660e01b8152600401611b74929190614343565b60206040518083038186803b158015611b8c57600080fd5b505afa158015611ba0573d6000803e3d6000fd5b505050506040513d601f19601f82011682018060405250810190611bc49190613ac3565b905080611c06576040517f08c379a0000000000000000000000000000000000000000000000000000000008152600401611bfd906144cc565b60405180910390fd5b600060106000611c146136d5565b73ffffffffffffffffffffffffffffffffffffffff1673ffffffffffffffffffffffffffffffffffffffff16815260200190815260200160002090508060008660ff1660ff168152602001908152602001600020549350505050919050565b60018054600181600116156101000203166002900480601f016020809104026020016040519081016040528092919081815260200182805460018160011615610100020316600290048015611d095780601f10611cde57610100808354040283529160200191611d09565b820191906000526020600020905b815481529060010190602001808311611cec57829003601f168201915b505050505081565b6060611d1b6136d5565b6000600b60009054906101000a900473ffffffffffffffffffffffffffffffffffffffff1673ffffffffffffffffffffffffffffffffffffffff1663425841668360016002811115611d6957fe5b6040518363ffffffff1660e01b8152600401611d86929190614343565b60206040518083038186803b158015611d9e57600080fd5b505afa158015611db2573d6000803e3d6000fd5b505050506040513d601f19601f82011682018060405250810190611dd69190613ac3565b905080611e18576040517f08c379a0000000000000000000000000000000000000000000000000000000008152600401611e0f906144cc565b60405180910390fd5b601360008560ff1660ff1681526020019081526020016000206000611e3b6136d5565b73ffffffffffffffffffffffffffffffffffffffff1673ffffffffffffffffffffffffffffffffffffffff168152602001908152602001600020805480602002602001604051908101604052809291908181526020018280548015611ebf57602002820191906000526020600020905b815481526020019060010190808311611eab575b505050505092505050919050565b60155481565b611edb6136d5565b6000600b60009054906101000a900473ffffffffffffffffffffffffffffffffffffffff1673ffffffffffffffffffffffffffffffffffffffff1663425841668360016002811115611f2957fe5b6040518363ffffffff1660e01b8152600401611f46929190614343565b60206040518083038186803b158015611f5e57600080fd5b505afa158015611f72573d6000803e3d6000fd5b505050506040513d601f19601f82011682018060405250810190611f969190613ac3565b905080611fd8576040517f08c379a0000000000000000000000000000000000000000000000000000000008152600401611fcf906144cc565b60405180910390fd5b6000611fe2613396565b9050600460009054906101000a900460ff1660ff168160ff16111561201d5780600460006101000a81548160ff021916908360ff1602179055505b60146010600061202b6136d5565b73ffffffffffffffffffffffffffffffffffffffff1673ffffffffffffffffffffffffffffffffffffffff1681526020019081526020016000206000600460009054906101000a900460ff1660ff1660ff16815260200190815260200160002054116120cc576040517f08c379a00000000000000000000000000000000000000000000000000000000081526004016120c39061454c565b60405180910390fd5b6120d461393d565b604051806080016040528060055481526020018762ffffff1681526020018660ff168152602001428152509050806012600060055481526020019081526020016000206000820151816000015560208201518160010160006101000a81548162ffffff021916908362ffffff16021790555060408201518160010160036101000a81548160ff021916908360ff1602179055506060820151816002015590505060116000600460009054906101000a900460ff1660ff1660ff16815260200190815260200160002060008762ffffff1662ffffff168152602001908152602001600020600554908060018154018082558091505060019003906000526020600020016000909190919091505560136000600460009054906101000a900460ff1660ff1660ff16815260200190815260200160002060006122126136d5565b73ffffffffffffffffffffffffffffffffffffffff1673ffffffffffffffffffffffffffffffffffffffff16815260200190815260200160002060055490806001815401808255809150506001900390600052602060002001600090919091909150558562ffffff166122836136d5565b73ffffffffffffffffffffffffffffffffffffffff167f92d22e89929e450e502266ea16c9dcc755d7c24516a06be8159306162162640b60405160405180910390a36001600560008282540192505081905550505050505050565b60008060009054906101000a900473ffffffffffffffffffffffffffffffffffffffff1673ffffffffffffffffffffffffffffffffffffffff168273ffffffffffffffffffffffffffffffffffffffff16149050919050565b600f818154811061234457fe5b906000526020600020016000915054906101000a900473ffffffffffffffffffffffffffffffffffffffff1681565b60055481565b60006123836136d5565b6000600b60009054906101000a900473ffffffffffffffffffffffffffffffffffffffff1673ffffffffffffffffffffffffffffffffffffffff16634258416683600160028111156123d157fe5b6040518363ffffffff1660e01b81526004016123ee929190614343565b60206040518083038186803b15801561240657600080fd5b505afa15801561241a573d6000803e3d6000fd5b505050506040513d601f19601f8201168201806040525081019061243e9190613ac3565b905080612480576040517f08c379a0000000000000000000000000000000000000000000000000000000008152600401612477906144cc565b60405180910390fd5b60006010600061248e6136d5565b73ffffffffffffffffffffffffffffffffffffffff1673ffffffffffffffffffffffffffffffffffffffff1681526020019081526020016000209050600080600190505b600c8160ff1611612507578260008260ff1660ff168152602001908152602001600020548201915080806001019150506124d2565b508094505050505090565b60035481565b60008054906101000a900473ffffffffffffffffffffffffffffffffffffffff1681565b6060601160008460ff1660ff16815260200190815260200160002060008362ffffff1662ffffff1681526020019081526020016000208054806020026020016040519081016040528092919081815260200182805480156125bc57602002820191906000526020600020905b8154815260200190600101908083116125a8575b5050505050905092915050565b600460009054906101000a900460ff1681565b6125e46136d5565b6000600b60009054906101000a900473ffffffffffffffffffffffffffffffffffffffff1673ffffffffffffffffffffffffffffffffffffffff166342584166836000600281111561263257fe5b6040518363ffffffff1660e01b815260040161264f929190614343565b60206040518083038186803b15801561266757600080fd5b505afa15801561267b573d6000803e3d6000fd5b505050506040513d601f19601f8201168201806040525081019061269f9190613ac3565b9050806126e1576040517f08c379a00000000000000000000000000000000000000000000000000000000081526004016126d8906145ac565b60405180910390fd5b600d60009054906101000a900473ffffffffffffffffffffffffffffffffffffffff1673ffffffffffffffffffffffffffffffffffffffff1663524c027a856127286136d5565b6040518363ffffffff1660e01b8152600401612745929190614642565b602060405180830381600087803b15801561275f57600080fd5b505af1158015612773573d6000803e3d6000fd5b505050506040513d601f19601f820116820180604052508101906127979190613ac3565b6127d6576040517f08c379a00000000000000000000000000000000000000000000000000000000081526004016127cd9061456c565b60405180910390fd5b600c60009054906101000a900473ffffffffffffffffffffffffffffffffffffffff1673ffffffffffffffffffffffffffffffffffffffff16634e6ec24730856040518363ffffffff1660e01b815260040161283392919061436c565b600060405180830381600087803b15801561284d57600080fd5b505af1158015612861573d6000803e3d6000fd5b5050505082600e60006128726136d5565b73ffffffffffffffffffffffffffffffffffffffff1673ffffffffffffffffffffffffffffffffffffffff16815260200190815260200160002060040160008282540192505081905550826015600082825401925050819055507fbdaa686eb6f59012d211a74523da260341c516896e9e5be954163d6ecf26ffa26128f56136d5565b8460405161290492919061431a565b60405180910390a150505050565b600260009054906101000a900473ffffffffffffffffffffffffffffffffffffffff1681565b60095481565b6129466136d5565b6000600b60009054906101000a900473ffffffffffffffffffffffffffffffffffffffff1673ffffffffffffffffffffffffffffffffffffffff166342584166836001600281111561299457fe5b6040518363ffffffff1660e01b81526004016129b1929190614343565b60206040518083038186803b1580156129c957600080fd5b505afa1580156129dd573d6000803e3d6000fd5b505050506040513d601f19601f82011682018060405250810190612a019190613ac3565b905080612a43576040517f08c379a0000000000000000000000000000000000000000000000000000000008152600401612a3a906144cc565b60405180910390fd5b60148311612a86576040517f08c379a0000000000000000000000000000000000000000000000000000000008152600401612a7d906145ec565b60405180910390fd5b6000612a90613396565b9050600460009054906101000a900460ff1660ff168160ff161115612acb5780600460006101000a81548160ff021916908360ff1602179055505b600c60009054906101000a900473ffffffffffffffffffffffffffffffffffffffff1673ffffffffffffffffffffffffffffffffffffffff166323b872dd612b116136d5565b30876040518463ffffffff1660e01b8152600401612b31939291906142e3565b602060405180830381600087803b158015612b4b57600080fd5b505af1158015612b5f573d6000803e3d6000fd5b505050506040513d601f19601f82011682018060405250810190612b839190613ac3565b508360106000612b916136d5565b73ffffffffffffffffffffffffffffffffffffffff1673ffffffffffffffffffffffffffffffffffffffff1681526020019081526020016000206000600460009054906101000a900460ff1660ff1660ff16815260200190815260200160002060008282540192505081905550600460009054906101000a900460ff1660ff16612c196136d5565b73ffffffffffffffffffffffffffffffffffffffff167fd6f9eeaa8eb9168b187679e07e8014cb2ed1df85d3e443a48384b396b193044d86604051612c5e9190614627565b60405180910390a350505050565b612c746136d5565b6000600b60009054906101000a900473ffffffffffffffffffffffffffffffffffffffff1673ffffffffffffffffffffffffffffffffffffffff1663425841668360006002811115612cc257fe5b6040518363ffffffff1660e01b8152600401612cdf929190614343565b60206040518083038186803b158015612cf757600080fd5b505afa158015612d0b573d6000803e3d6000fd5b505050506040513d601f19601f82011682018060405250810190612d2f9190613ac3565b905080612d71576040517f08c379a0000000000000000000000000000000000000000000000000000000008152600401612d68906145ac565b60405180910390fd5b60028311612db4576040517f08c379a0000000000000000000000000000000000000000000000000000000008152600401612dab906145cc565b60405180910390fd5b600d60009054906101000a900473ffffffffffffffffffffffffffffffffffffffff1673ffffffffffffffffffffffffffffffffffffffff1663c7f063134285612dfc6136d5565b600e6000612e086136d5565b73ffffffffffffffffffffffffffffffffffffffff1673ffffffffffffffffffffffffffffffffffffffff1681526020019081526020016000206006016040518563ffffffff1660e01b8152600401612e6494939291906146ca565b602060405180830381600087803b158015612e7e57600080fd5b505af1158015612e92573d6000803e3d6000fd5b505050506040513d601f19601f82011682018060405250810190612eb69190613aec565b50505050565b60085481565b600660009054906101000a900460ff1681565b60008060009054906101000a900473ffffffffffffffffffffffffffffffffffffffff16905090565b612f066136d5565b6000600b60009054906101000a900473ffffffffffffffffffffffffffffffffffffffff1673ffffffffffffffffffffffffffffffffffffffff1663425841668360006002811115612f5457fe5b6040518363ffffffff1660e01b8152600401612f71929190614343565b60206040518083038186803b158015612f8957600080fd5b505afa158015612f9d573d6000803e3d6000fd5b505050506040513d601f19601f82011682018060405250810190612fc19190613ac3565b905080613003576040517f08c379a0000000000000000000000000000000000000000000000000000000008152600401612ffa906145ac565b60405180910390fd5b600d60009054906101000a900473ffffffffffffffffffffffffffffffffffffffff1673ffffffffffffffffffffffffffffffffffffffff1663524c027a8461304a6136d5565b6040518363ffffffff1660e01b8152600401613067929190614642565b602060405180830381600087803b15801561308157600080fd5b505af1158015613095573d6000803e3d6000fd5b505050506040513d601f19601f820116820180604052508101906130b99190613ac3565b6130f8576040517f08c379a00000000000000000000000000000000000000000000000000000000081526004016130ef9061456c565b60405180910390fd5b60155460146000600460009054906101000a900460ff1660ff1660ff168152602001908152602001600020600061312d6136d5565b73ffffffffffffffffffffffffffffffffffffffff1673ffffffffffffffffffffffffffffffffffffffff1681526020019081526020016000205411156131a9576040517f08c379a00000000000000000000000000000000000000000000000000000000081526004016131a0906144ec565b60405180910390fd5b600060146000600460009054906101000a900460ff1660ff1660ff16815260200190815260200160002060006131dd6136d5565b73ffffffffffffffffffffffffffffffffffffffff1673ffffffffffffffffffffffffffffffffffffffff168152602001908152602001600020549050600060146000600460009054906101000a900460ff1660ff1660ff168152602001908152602001600020600061324e6136d5565b73ffffffffffffffffffffffffffffffffffffffff1673ffffffffffffffffffffffffffffffffffffffff1681526020019081526020016000208190555080601560008282540392505081905550600c60009054906101000a900473ffffffffffffffffffffffffffffffffffffffff1673ffffffffffffffffffffffffffffffffffffffff16636161eb1830836040518363ffffffff1660e01b81526004016132f992919061436c565b600060405180830381600087803b15801561331357600080fd5b505af1158015613327573d6000803e3d6000fd5b505050507fe80c8b490c4c971de833ac047f72f9c82c6d3fec94ce2b3bc0f2e51e54972c436133546136d5565b8260405161336392919061431a565b60405180910390a150505050565b6014602052816000526040600020602052806000526040600020600091509150505481565b6000600c601e6018603c804260035403816133ad57fe5b04816133b557fe5b04816133bd57fe5b04816133c557fe5b0460ff16816133d057fe5b06905090565b6133de61393d565b60126000838152602001908152602001600020604051806080016040529081600082015481526020016001820160009054906101000a900462ffffff1662ffffff1662ffffff1681526020016001820160039054906101000a900460ff1660ff1660ff1681526020016002820154815250509050919050565b60075481565b6134656136d5565b6000600b60009054906101000a900473ffffffffffffffffffffffffffffffffffffffff1673ffffffffffffffffffffffffffffffffffffffff16634258416683600060028111156134b357fe5b6040518363ffffffff1660e01b81526004016134d0929190614343565b60206040518083038186803b1580156134e857600080fd5b505afa1580156134fc573d6000803e3d6000fd5b505050506040513d601f19601f820116820180604052508101906135209190613ac3565b905080613562576040517f08c379a0000000000000000000000000000000000000000000000000000000008152600401613559906145ac565b60405180910390fd5b600d60009054906101000a900473ffffffffffffffffffffffffffffffffffffffff1673ffffffffffffffffffffffffffffffffffffffff1663c7f063134260146000600460009054906101000a900460ff1660ff1660ff16815260200190815260200160002060006135d36136d5565b73ffffffffffffffffffffffffffffffffffffffff1673ffffffffffffffffffffffffffffffffffffffff168152602001908152602001600020546136166136d5565b600e60006136226136d5565b73ffffffffffffffffffffffffffffffffffffffff1673ffffffffffffffffffffffffffffffffffffffff1681526020019081526020016000206006016040518563ffffffff1660e01b815260040161367e949392919061466b565b602060405180830381600087803b15801561369857600080fd5b505af11580156136ac573d6000803e3d6000fd5b505050506040513d601f19601f820116820180604052508101906136d09190613aec565b505050565b600060186000369050101580156136f157506136f0336122de565b5b1561370557601436033560601c905061370d565b33905061370e565b5b90565b6000808284019050600a811161372b576001915050613751565b600a8111801561373c575060148111155b1561374b576002915050613751565b60039150505b92915050565b600080601e6018603c80600e60008873ffffffffffffffffffffffffffffffffffffffff1673ffffffffffffffffffffffffffffffffffffffff168152602001908152602001600020600501544203816137ad57fe5b04816137b557fe5b04816137bd57fe5b04816137c557fe5b049050600060018201600e60008673ffffffffffffffffffffffffffffffffffffffff1673ffffffffffffffffffffffffffffffffffffffff168152602001908152602001600020600401548161381857fe5b04905080600e60008673ffffffffffffffffffffffffffffffffffffffff1673ffffffffffffffffffffffffffffffffffffffff168152602001908152602001600020600801819055508092505050919050565b828054600181600116156101000203166002900490600052602060002090601f016020900481019282601f106138ad57805160ff19168380011785556138db565b828001600101855582156138db579182015b828111156138da5782518255916020019190600101906138bf565b5b5090506138e8919061396d565b5090565b60405180610120016040528060608152602001606081526020016000815260200160008152602001600081526020016000815260200160608152602001600062ffffff168152602001600081525090565b604051806080016040528060008152602001600062ffffff168152602001600060ff168152602001600081525090565b5b8082111561398657600081600090555060010161396e565b5090565b60008135905061399981614966565b92915050565b6000815190506139ae81614966565b92915050565b6000815190506139c38161497d565b92915050565b6000815190506139d881614994565b92915050565b600082601f8301126139ef57600080fd5b8135613a026139fd82614771565b614744565b91508082526020830160208301858383011115613a1e57600080fd5b613a29838284614906565b50505092915050565b600081359050613a41816149ab565b92915050565b600081359050613a56816149c2565b92915050565b600081359050613a6b816149d9565b92915050565b600060208284031215613a8357600080fd5b6000613a918482850161398a565b91505092915050565b600060208284031215613aac57600080fd5b6000613aba8482850161399f565b91505092915050565b600060208284031215613ad557600080fd5b6000613ae3848285016139b4565b91505092915050565b600060208284031215613afe57600080fd5b6000613b0c848285016139c9565b91505092915050565b600080600080600060a08688031215613b2d57600080fd5b600086013567ffffffffffffffff811115613b4757600080fd5b613b53888289016139de565b955050602086013567ffffffffffffffff811115613b7057600080fd5b613b7c888289016139de565b9450506040613b8d88828901613a47565b9350506060613b9e88828901613a47565b925050608086013567ffffffffffffffff811115613bbb57600080fd5b613bc7888289016139de565b9150509295509295909350565b60008060408385031215613be757600080fd5b6000613bf585828601613a32565b9250506020613c0685828601613a5c565b9150509250929050565b600060208284031215613c2257600080fd5b6000613c3084828501613a47565b91505092915050565b60008060408385031215613c4c57600080fd5b6000613c5a85828601613a47565b9250506020613c6b85828601613a47565b9150509250929050565b600060208284031215613c8757600080fd5b6000613c9584828501613a5c565b91505092915050565b60008060408385031215613cb157600080fd5b6000613cbf85828601613a5c565b9250506020613cd08582860161398a565b9150509250929050565b60008060408385031215613ced57600080fd5b6000613cfb85828601613a5c565b9250506020613d0c85828601613a32565b9150509250929050565b6000613d228383614256565b60208301905092915050565b613d378161489a565b82525050565b613d4681614819565b82525050565b613d5581614807565b82525050565b6000613d66826147c2565b613d7081856147e5565b9350613d7b8361479d565b8060005b83811015613dac578151613d938882613d16565b9750613d9e836147d8565b925050600181019050613d7f565b5085935050505092915050565b613dc28161482b565b82525050565b613dd1816148ac565b82525050565b613de0816148be565b82525050565b613def816148d0565b82525050565b6000613e00826147cd565b613e0a81856147f6565b9350613e1a818560208601614915565b613e2381614948565b840191505092915050565b600081546001811660008114613e4b5760018114613e7157613eb5565b607f6002830416613e5c81876147f6565b955060ff198316865260208601935050613eb5565b60028204613e7f81876147f6565b9550613e8a856147ad565b60005b82811015613eac57815481890152600182019150602081019050613e8d565b80880195505050505b505092915050565b6000613eca6015836147f6565b91507f596f7520617265206e6f742061207761746368657200000000000000000000006000830152602082019050919050565b6000613f0a600c836147f6565b91507f636f6d70656e736174696f6e00000000000000000000000000000000000000006000830152602082019050919050565b6000613f4a6018836147f6565b91507f4e6f7420656e6f75676820616d6f756e7420696e20706f7400000000000000006000830152602082019050919050565b6000613f8a6016836147f6565b91507f596f7520617265206e6f7420617574686f7269736564000000000000000000006000830152602082019050919050565b6000613fca600c836147f6565b91507f636f6e747269627574696e6700000000000000000000000000000000000000006000830152602082019050919050565b600061400a6015836147f6565b91507f596f7520617265206e6f74206120456e61626c657200000000000000000000006000830152602082019050919050565b600061404a6016836147f6565b91507f596f752073686f756c64207374616b65206669727374000000000000000000006000830152602082019050919050565b600061408a601e836147f6565b91507f4f5450206973206569746865722065787069726564206f722077726f6e6700006000830152602082019050919050565b60006140ca6019836147f6565b91507f6164647265737320616c7265616479206f6e626f6172646564000000000000006000830152602082019050919050565b600061410a6014836147f6565b91507f596f7520617265206e6f742061206d656d6265720000000000000000000000006000830152602082019050919050565b600061414a6013836147f6565b91507f416d6f756e74203e2032207265717569726564000000000000000000000000006000830152602082019050919050565b600061418a6023836147f6565b91507f596f7572207374616b6520616d6f756e74206973206e6f74207375666669636960008301527f656e7400000000000000000000000000000000000000000000000000000000006020830152604082019050919050565b6080820160008201516141f96000850182614256565b50602082015161420c6020850182614238565b50604082015161421f6040850182614274565b5060608201516142326060850182614256565b50505050565b61424181614874565b82525050565b61425081614874565b82525050565b61425f81614883565b82525050565b61426e81614883565b82525050565b61427d8161488d565b82525050565b61428c8161488d565b82525050565b60006020820190506142a76000830184613d4c565b92915050565b60006020820190506142c26000830184613d2e565b92915050565b60006020820190506142dd6000830184613d3d565b92915050565b60006060820190506142f86000830186613d2e565b6143056020830185613d4c565b6143126040830184614265565b949350505050565b600060408201905061432f6000830185613d2e565b61433c6020830184614265565b9392505050565b60006040820190506143586000830185613d4c565b6143656020830184613dc8565b9392505050565b60006040820190506143816000830185613d4c565b61438e6020830184614265565b9392505050565b600060208201905081810360008301526143af8184613d5b565b905092915050565b60006020820190506143cc6000830184613db9565b92915050565b60006020820190506143e76000830184613dd7565b92915050565b60006020820190506144026000830184613de6565b92915050565b600060208201905081810360008301526144228184613df5565b905092915050565b6000610120820190508181036000830152614445818c613df5565b90508181036020830152614459818b613df5565b9050614468604083018a614265565b6144756060830189614265565b6144826080830188614265565b61448f60a0830187614265565b81810360c08301526144a18186613df5565b90506144b060e0830185614247565b6144be610100830184614265565b9a9950505050505050505050565b600060208201905081810360008301526144e581613ebd565b9050919050565b6000602082019050818103600083015261450581613f3d565b9050919050565b6000602082019050818103600083015261452581613f7d565b9050919050565b6000602082019050818103600083015261454581613ffd565b9050919050565b600060208201905081810360008301526145658161403d565b9050919050565b600060208201905081810360008301526145858161407d565b9050919050565b600060208201905081810360008301526145a5816140bd565b9050919050565b600060208201905081810360008301526145c5816140fd565b9050919050565b600060208201905081810360008301526145e58161413d565b9050919050565b600060208201905081810360008301526146058161417d565b9050919050565b600060808201905061462160008301846141e3565b92915050565b600060208201905061463c6000830184614265565b92915050565b60006040820190506146576000830185614265565b6146646020830184613d2e565b9392505050565b600060a0820190506146806000830187614265565b61468d6020830186614265565b818103604083015261469e81613efd565b90506146ad6060830185613d2e565b81810360808301526146bf8184613e2e565b905095945050505050565b600060a0820190506146df6000830187614265565b6146ec6020830186614265565b81810360408301526146fd81613fbd565b905061470c6060830185613d2e565b818103608083015261471e8184613e2e565b905095945050505050565b600060208201905061473e6000830184614283565b92915050565b6000604051905081810181811067ffffffffffffffff8211171561476757600080fd5b8060405250919050565b600067ffffffffffffffff82111561478857600080fd5b601f19601f8301169050602081019050919050565b6000819050602082019050919050565b60008190508160005260206000209050919050565b600081519050919050565b600081519050919050565b6000602082019050919050565b600082825260208201905092915050565b600082825260208201905092915050565b600061481282614854565b9050919050565b600061482482614854565b9050919050565b60008115159050919050565b6000819050919050565b600081905061484f82614959565b919050565b600073ffffffffffffffffffffffffffffffffffffffff82169050919050565b600062ffffff82169050919050565b6000819050919050565b600060ff82169050919050565b60006148a5826148e2565b9050919050565b60006148b782614841565b9050919050565b60006148c982614883565b9050919050565b60006148db82614883565b9050919050565b60006148ed826148f4565b9050919050565b60006148ff82614854565b9050919050565b82818337600083830152505050565b60005b83811015614933578082015181840152602081019050614918565b83811115614942576000848401525b50505050565b6000601f19601f8301169050919050565b6003811061496357fe5b50565b61496f81614807565b811461497a57600080fd5b50565b6149868161482b565b811461499157600080fd5b50565b61499d81614837565b81146149a857600080fd5b50565b6149b481614874565b81146149bf57600080fd5b50565b6149cb81614883565b81146149d657600080fd5b50565b6149e28161488d565b81146149ed57600080fd5b5056fea26469706673582212202f188d5aa80e03185fb794a0159bb8e517db1c0de9a06d45fc3be8f3ec5dad7664736f6c634300060c0033",
  "immutableReferences": {},
  "source": "// SPDX-License-Identifier: MIT\n\npragma solidity >0.6.0 <=0.7.1;\npragma experimental ABIEncoderV2;\n\nimport {User} from \"./User.sol\";\nimport {RUP} from \"./token/RUP.sol\";\nimport {OTPGeneratorAndVerifier} from \"./otp/OTPGeneratorAndVerifier.sol\";\n\nimport \"@opengsn/gsn/contracts/BaseRelayRecipient.sol\";\nimport \"@opengsn/gsn/contracts/interfaces/IKnowForwarderAddress.sol\";\n\ncontract MachuPicchu is BaseRelayRecipient, IKnowForwarderAddress {\n    string public override versionRecipient = \"2.0.0\";\n\n    address payable public owner;\n    uint256 public startTime;\n\n    uint8 public currentMonth;\n    uint256 public assessmentId;\n    uint8 public totalGroups = 3;\n    uint256 public group1Loss = 0;\n    uint256 public group2Loss = 0;\n    uint256 public group3Loss = 0;\n\n    //Considering MTBF of the community as 48 months = 4 years\n    uint256 MTBF = 2;\n\n    User userContract;\n    RUP tokenContract;\n    OTPGeneratorAndVerifier otpContract;\n\n    constructor(\n        address payable _userContract,\n        address _tokenContract,\n        address _otpContract\n    ) public {\n        assessmentId = 0;\n        startTime = block.timestamp;\n        currentMonth = 0;\n        userContract = User(_userContract);\n        tokenContract = RUP(_tokenContract);\n        otpContract = OTPGeneratorAndVerifier(_otpContract);\n        owner = msg.sender;\n        trustedForwarder = address(0x0842Ad6B8cb64364761C7c170D0002CC56b1c498);\n    }\n\n    /* Represent the information stored for each member */\n    struct Member {\n        string name;\n        string village;\n        uint256 lat;\n        uint256 lng;\n        uint256 contribution;\n        uint256 onboardingDate;\n        string mobileNo;\n        uint24 groupId;\n        uint256 merit;\n    }\n\n    struct Assessment {\n        uint256 id;\n        uint24 groupId;\n        uint8 all;\n        uint256 time;\n    }\n\n    /* Public mapping between a member address to the member's details */\n    mapping(address => Member) public members;\n    address[] public membersAddresses;\n    mapping(address => mapping(uint8 => uint256)) Stakes;\n    mapping(uint8 => mapping(uint24 => uint256[])) groupAssessments;\n    mapping(uint256 => Assessment) Assessments;\n    mapping(uint8 => mapping(address => uint256[])) watcherAssessments;\n    mapping(uint8 => mapping(address => uint256)) public compensationAmount;\n\n    /* Public total amount of the pot (sum of all contributions) */\n    uint256 public pot;\n\n    modifier registeredMember(address _user) {\n        bool temp = userContract.checkUserRole(_user, User.UserType(0));\n        require(temp, \"You are not a member\");\n        _;\n    }\n\n    modifier registeredWatcher(address _user) {\n        bool temp = userContract.checkUserRole(_user, User.UserType(1));\n        require(temp, \"You are not a watcher\");\n        _;\n    }\n\n    modifier registeredEnabler(address _user) {\n        bool temp = userContract.checkUserRole(_user, User.UserType(2));\n        require(temp, \"You are not a Enabler\");\n        _;\n    }\n\n    /* Event emitted at each onboarded member */\n    event NewMember(address memberAddress);\n\n    /* Event emitted at each contribution */\n    event NewContribution(address memberAddress, uint256 amount);\n\n    event watcherStakedForMonth(address indexed, uint8 indexed, uint256);\n\n    event watcherAssessedGroup(address indexed, uint24 indexed);\n\n    //Defining an event post Compensation amount Transfer\n    event CompensationTransfer(address member, uint256 amount);\n\n    /*\n    Register a new member.\n    Revert if:\n      - msg.sender is already registered  \n  */\n    function onboardMember(\n        string memory _name,\n        string memory _village,\n        uint256 _lat,\n        uint256 _lng,\n        string memory _mobileNo\n    ) public registeredMember(_msgSender()) {\n        // Verifies that the address has never been registered\n        require(\n            members[_msgSender()].onboardingDate == 0,\n            \"address already onboarded\"\n        );\n        // Stores member data\n        members[_msgSender()].name = _name;\n        members[_msgSender()].village = _village;\n        members[_msgSender()].lat = _lat;\n        members[_msgSender()].lng = _lng;\n        members[_msgSender()].onboardingDate = block.timestamp;\n        members[_msgSender()].mobileNo = _mobileNo;\n        members[_msgSender()].groupId = getGroupId(_lat, _lng);\n        membersAddresses.push(_msgSender());\n        // Emit event\n        emit NewMember(_msgSender());\n    }\n\n    /*\n    Record new contribution.\n    Revert if: \n      - msg.sender is not registered\n      - no ETH is sent with the transaction\n  */\n    function contribute(uint256 otp, uint256 amount)\n        public\n        registeredMember(_msgSender())\n    {\n        // OTP validation has to be done\n        require(\n            otpContract.verifyOTP(otp, _msgSender()),\n            \"OTP is either expired or wrong\"\n        );\n        // transfer tokens to this contract after minting on behalf of _msgSender()\n        tokenContract._mint(address(this), (amount));\n        // Increments member's balance and pot\n        // TODO: should use SafeMath lib here\n        members[_msgSender()].contribution += amount;\n        pot += amount;\n\n        emit NewContribution(_msgSender(), amount);\n    }\n\n    function preContributeVerification(uint256 amount)\n        public\n        registeredMember(_msgSender())\n    {\n        require(amount > 2, \"Amount > 2 required\");\n        otpContract.generateOTP(\n            block.timestamp,\n            amount,\n            \"contributing\",\n            _msgSender(),\n            members[_msgSender()].mobileNo\n        );\n    }\n\n    function getGroupId(uint256 _lat, uint256 _lng)\n        private\n        pure\n        returns (uint24)\n    {\n        // on the basis of _lat and _lng we will have to allot a groupId\n        uint256 t = _lat + _lng;\n        if (t <= 10) {\n            return 1;\n        } else if (t > 10 && t <= 20) {\n            return 2;\n        } else {\n            return 3;\n        }\n    }\n\n    /**\n     * To perform Assessment by a watcher for a particular group(group of fields) for the current month\n     * @param groupId Groupid alloted in User contract\n     * @param _all The final result by watcher\n     *  Before calling this, check if assessment done by this watcher for this group already\n     **/\n    function doAssessmentForAGroup(uint24 groupId, uint8 _all)\n        public\n        registeredWatcher(_msgSender())\n    {\n        // check for nextMonth\n        uint8 nextMonth = getCurrentMonth();\n        if (nextMonth > currentMonth) {\n            currentMonth = nextMonth;\n        }\n        // require minimum amount staked\n        require(\n            Stakes[_msgSender()][currentMonth] > 20,\n            \"You should stake first\"\n        );\n        //\n        // make Assessment object\n        Assessment memory asmt = Assessment({\n            id: assessmentId,\n            groupId: groupId,\n            all: _all,\n            time: block.timestamp\n        });\n        // add to Assessments list\n        Assessments[assessmentId] = asmt;\n        // add to groupAssessments list\n        groupAssessments[currentMonth][groupId].push(assessmentId);\n        // add to watcherAssessments list\n        watcherAssessments[currentMonth][_msgSender()].push(assessmentId);\n        // event\n        emit watcherAssessedGroup(_msgSender(), groupId);\n        // increment assessmentId by 1\n        assessmentId += 1;\n    }\n\n    /**\n     * To get assessment of a group of a particular month\n     * @param monthId month-id\n     * @param groupId group-id\n     * @return array of assessment ids\n     *\n     **/\n    function getAssessmentsOfAGroup(uint8 monthId, uint24 groupId)\n        public\n        view\n        returns (uint256[] memory)\n    {\n        return groupAssessments[monthId][groupId];\n    }\n\n    /**\n     * To get assessment of a watcher of a particular month\n     * @param monthId month-id\n     * @return array of assessment ids\n     *\n     **/\n    function getAssessmentsDoneByAWatcher(uint8 monthId)\n        public\n        view\n        registeredWatcher(_msgSender())\n        returns (uint256[] memory)\n    {\n        return watcherAssessments[monthId][_msgSender()];\n    }\n\n    /**\n     * To get detail of a particular assessment\n     * @param _id assessment-id\n     * @return Assessment struct\n     *\n     **/\n    function getAssessmentDetail(uint256 _id)\n        public\n        view\n        returns (Assessment memory)\n    {\n        return Assessments[_id];\n    }\n\n    /**\n     * To stake/increment in stake for the currentMonth by a watcher\n     *\n     **/\n    function stake(uint256 amount) public registeredWatcher(_msgSender()) {\n        require(amount > 20, \"Your stake amount is not sufficient\");\n        // check for nextMonth\n        uint8 nextMonth = getCurrentMonth();\n        if (nextMonth > currentMonth) {\n            currentMonth = nextMonth;\n        }\n        tokenContract.transferFrom(_msgSender(), address(this), amount);\n        Stakes[_msgSender()][currentMonth] += amount;\n        emit watcherStakedForMonth(_msgSender(), currentMonth, amount);\n    }\n\n    /**\n     * To get total staked anount of a watcher\n     * @return total amount\n     *\n     **/\n    function getTotalStakeAmounts()\n        public\n        view\n        registeredWatcher(_msgSender())\n        returns (uint256)\n    {\n        mapping(uint8 => uint256) storage temp = Stakes[_msgSender()];\n        uint256 totakStakedAmount = 0;\n        for (uint8 i = 1; i <= 12; i++) {\n            totakStakedAmount += temp[i];\n        }\n        return totakStakedAmount;\n    }\n\n    /**\n     * To get total staked anount of a watcher in a particular month\n     * @param monthId month-id\n     * @return total amount\n     *\n     **/\n    function getStakedAmountInAMonth(uint8 monthId)\n        public\n        view\n        registeredWatcher(_msgSender())\n        returns (uint256)\n    {\n        mapping(uint8 => uint256) storage temp = Stakes[_msgSender()];\n        return temp[monthId];\n    }\n\n    /**\n     * To get current month\n     * @return current month\n     *\n     **/\n    function getCurrentMonth() public view returns (uint8) {\n        return uint8((startTime - block.timestamp) / 60 / 60 / 24 / 30) % 12;\n    }\n\n    function monthlyLossCalculation() public {\n        // aim to make it automatic on detect of month change\n        // right now owner of the contract can only do it\n        require(_msgSender() == owner, \"You are not authorised\");\n\n\n            mapping(uint24 => uint256[]) storage assessments\n         = groupAssessments[currentMonth];\n        uint256 group1LossTotal;\n        uint256 group2LossTotal;\n        uint256 group3LossTotal;\n\n        for (uint256 i = 0; i < assessments[1].length; i++) {\n            group1LossTotal += Assessments[assessments[1][i]].all;\n        }\n\n        for (uint256 i = 0; i < assessments[2].length; i++) {\n            group2LossTotal += Assessments[assessments[2][i]].all;\n        }\n\n        for (uint256 i = 0; i < assessments[3].length; i++) {\n            group3LossTotal += Assessments[assessments[3][i]].all;\n        }\n\n        group1Loss = group1LossTotal / assessments[1].length;\n        group2Loss = group2LossTotal / assessments[2].length;\n        group3Loss = group3LossTotal / assessments[3].length;\n\n        // check watchers data and reward/punish them remaining\n\n        uint256 avgAllGroupLoss = group1Loss + group2Loss + group3Loss / 3;\n\n\n            mapping(address => uint256[]) storage wassessments\n         = watcherAssessments[currentMonth];\n\n        uint256 W1TotalAssessment;\n        uint256 W2TotalAssessment;\n        uint256 W1AvgAssessment;\n        uint256 W2AvgAssessment;\n        uint256 W1RefundValue;\n        uint256 W2RefundValue;\n        uint256 W1StakeAmount;\n        uint256 W2StakeAmount;\n        uint256 W1RefundAmount;\n        uint256 W2RefundAmount;\n\n        // address[] memory watchers = userContract.watchersAddresses;\n        address watcher1 = userContract.watchersAddresses(0);\n        address watcher2 = userContract.watchersAddresses(1);\n\n        for (uint256 i = 0; i < wassessments[watcher1].length; i++) {\n            W1TotalAssessment += Assessments[wassessments[watcher1][i]].all;\n        }\n\n        for (uint256 i = 0; i < wassessments[watcher2].length; i++) {\n            W2TotalAssessment += Assessments[wassessments[watcher2][i]].all;\n        }\n\n        //Take average assessment across all Groups\n        W1AvgAssessment = W1TotalAssessment / 3;\n        W2AvgAssessment = W2TotalAssessment / 3;\n\n        //Calculate Refund value for each Watcher\n        if (avgAllGroupLoss - W1AvgAssessment > 0) {\n            W1RefundValue = avgAllGroupLoss - W1AvgAssessment;\n        } else {\n            W1RefundValue = W1AvgAssessment - avgAllGroupLoss;\n        }\n\n        if (avgAllGroupLoss - W2AvgAssessment > 0) {\n            W2RefundValue = avgAllGroupLoss - W2AvgAssessment;\n        } else {\n            W2RefundValue = W2AvgAssessment - avgAllGroupLoss;\n        }\n\n        //Get initial Stake Amount for each Watcher\n        W1StakeAmount = Stakes[watcher1][currentMonth];\n        W2StakeAmount = Stakes[watcher2][currentMonth];\n\n        //Calculate Final Refund Amount for each Watcher\n        W1RefundAmount = W1StakeAmount + W1RefundValue;\n        W2RefundAmount = W2StakeAmount + W2RefundValue;\n\n        //Transfer the Refund amount to Each Watcher\n        tokenContract.transfer(watcher1, W1RefundAmount);\n        tokenContract.transfer(watcher2, W2RefundAmount);\n    }\n\n    //Calculate merit of member based on Avg monthly contribution\n    function calcMerit(address _member) private returns (uint256) {\n        uint256 totalMonth = (block.timestamp -\n            members[_member].onboardingDate) /\n            60 /\n            60 /\n            24 /\n            30;\n        uint256 merit = members[_member].contribution / (totalMonth + 1);\n        members[_member].merit = merit;\n        return merit;\n    }\n\n    //Calculate Compensation of partiucualr member & transfer to member account\n    function calcCompensation() public registeredEnabler(_msgSender()) {\n        //Below value will come from Watcher smart contract\n        for (uint256 i = 0; i < membersAddresses.length; i++) {\n            Member memory m = members[membersAddresses[i]];\n            uint256 lossPercent = 0;\n\n            if (m.groupId == 1) {\n                lossPercent = group1Loss;\n            } else if (m.groupId == 2) {\n                lossPercent = group2Loss;\n            } else if (m.groupId == 3) {\n                lossPercent = group3Loss;\n            }\n\n            uint256 memberMerit = calcMerit(membersAddresses[i]);\n            uint256 compAmount = (lossPercent * memberMerit * MTBF) / 100;\n            compensationAmount[currentMonth][membersAddresses[i]] = compAmount;\n        }\n\n        group1Loss = 0;\n        group2Loss = 0;\n        group3Loss = 0;\n    }\n\n    function payoutCompensation(uint256 otp)\n        public\n        registeredMember(_msgSender())\n    {\n        // OTP validation has to be done\n        require(\n            otpContract.verifyOTP(otp, _msgSender()),\n            \"OTP is either expired or wrong\"\n        );\n        require(\n            compensationAmount[currentMonth][_msgSender()] <= pot,\n            \"Not enough amount in pot\"\n        );\n        uint256 amount = compensationAmount[currentMonth][_msgSender()];\n        compensationAmount[currentMonth][_msgSender()] = 0;\n        pot -= amount;\n        tokenContract._burn(address(this), amount);\n        emit CompensationTransfer(_msgSender(), amount);\n    }\n\n    function prePayoutVerification() public registeredMember(_msgSender()) {\n        otpContract.generateOTP(\n            block.timestamp,\n            compensationAmount[currentMonth][_msgSender()],\n            \"compensation\",\n            _msgSender(),\n            members[_msgSender()].mobileNo\n        );\n    }\n\n    function getTrustedForwarder() public override view returns (address) {\n        return trustedForwarder;\n    }\n}\n",
  "sourcePath": "/home/kuldeep/ETHEREUM/MachuPichu/hackathon/contracts/MachuPicchu.sol",
  "compiler": {
    "name": "solc",
    "version": "0.6.12+commit.27d51765.Emscripten.clang"
  },
  "schemaVersion": "3.2.5",
  "updatedAt": "2020-10-19T18:40:41.798Z",
  "networkType": "ethereum",
  "devdoc": {
    "kind": "dev",
    "methods": {
      "doAssessmentForAGroup(uint24,uint8)": {
        "params": {
          "_all": "The final result by watcher  Before calling this, check if assessment done by this watcher for this group already*",
          "groupId": "Groupid alloted in User contract"
        }
      },
      "getAssessmentDetail(uint256)": {
        "params": {
          "_id": "assessment-id"
        },
        "returns": {
          "_0": "Assessment struct*"
        }
      },
      "getAssessmentsDoneByAWatcher(uint8)": {
        "params": {
          "monthId": "month-id"
        },
        "returns": {
          "_0": "array of assessment ids*"
        }
      },
      "getAssessmentsOfAGroup(uint8,uint24)": {
        "params": {
          "groupId": "group-id",
          "monthId": "month-id"
        },
        "returns": {
          "_0": "array of assessment ids*"
        }
      },
      "getCurrentMonth()": {
        "returns": {
          "_0": "current month*"
        }
      },
      "getStakedAmountInAMonth(uint8)": {
        "params": {
          "monthId": "month-id"
        },
        "returns": {
          "_0": "total amount*"
        }
      },
      "getTotalStakeAmounts()": {
        "returns": {
          "_0": "total amount*"
        }
      }
    },
    "version": 1
  },
  "userdoc": {
    "kind": "user",
    "methods": {
      "doAssessmentForAGroup(uint24,uint8)": {
        "notice": "To perform Assessment by a watcher for a particular group(group of fields) for the current month"
      },
      "getAssessmentDetail(uint256)": {
        "notice": "To get detail of a particular assessment"
      },
      "getAssessmentsDoneByAWatcher(uint8)": {
        "notice": "To get assessment of a watcher of a particular month"
      },
      "getAssessmentsOfAGroup(uint8,uint24)": {
        "notice": "To get assessment of a group of a particular month"
      },
      "getCurrentMonth()": {
        "notice": "To get current month"
      },
      "getStakedAmountInAMonth(uint8)": {
        "notice": "To get total staked anount of a watcher in a particular month"
      },
      "getTotalStakeAmounts()": {
        "notice": "To get total staked anount of a watcher"
      },
      "getTrustedForwarder()": {
        "notice": "return the forwarder we trust to forward relayed transactions to us. the forwarder is required to verify the sender's signature, and verify the call is not a replay."
      },
      "isTrustedForwarder(address)": {
        "notice": "return if the forwarder is trusted to forward relayed transactions to us. the forwarder is required to verify the sender's signature, and verify the call is not a replay."
      },
      "stake(uint256)": {
        "notice": "To stake/increment in stake for the currentMonth by a watcher*"
      }
    },
    "version": 1
  }
}