{
  "contractName": "MachuPicchu",
  "abi": [
    {
      "inputs": [
        {
          "internalType": "address payable",
          "name": "_userContract",
          "type": "address"
        },
        {
          "internalType": "address",
          "name": "_tokenContract",
          "type": "address"
        },
        {
          "internalType": "address",
          "name": "_otpContract",
          "type": "address"
        }
      ],
      "stateMutability": "nonpayable",
      "type": "constructor"
    },
    {
      "anonymous": false,
      "inputs": [
        {
          "indexed": false,
          "internalType": "address",
          "name": "member",
          "type": "address"
        },
        {
          "indexed": false,
          "internalType": "uint256",
          "name": "amount",
          "type": "uint256"
        }
      ],
      "name": "CompensationTransfer",
      "type": "event"
    },
    {
      "anonymous": false,
      "inputs": [
        {
          "indexed": false,
          "internalType": "address",
          "name": "memberAddress",
          "type": "address"
        },
        {
          "indexed": false,
          "internalType": "uint256",
          "name": "amount",
          "type": "uint256"
        }
      ],
      "name": "NewContribution",
      "type": "event"
    },
    {
      "anonymous": false,
      "inputs": [
        {
          "indexed": false,
          "internalType": "address",
          "name": "memberAddress",
          "type": "address"
        }
      ],
      "name": "NewMember",
      "type": "event"
    },
    {
      "anonymous": false,
      "inputs": [
        {
          "indexed": true,
          "internalType": "address",
          "name": "",
          "type": "address"
        },
        {
          "indexed": true,
          "internalType": "uint24",
          "name": "",
          "type": "uint24"
        }
      ],
      "name": "watcherAssessedGroup",
      "type": "event"
    },
    {
      "anonymous": false,
      "inputs": [
        {
          "indexed": true,
          "internalType": "address",
          "name": "",
          "type": "address"
        },
        {
          "indexed": true,
          "internalType": "uint8",
          "name": "",
          "type": "uint8"
        },
        {
          "indexed": false,
          "internalType": "uint256",
          "name": "",
          "type": "uint256"
        }
      ],
      "name": "watcherStakedForMonth",
      "type": "event"
    },
    {
      "inputs": [],
      "name": "assessmentId",
      "outputs": [
        {
          "internalType": "uint256",
          "name": "",
          "type": "uint256"
        }
      ],
      "stateMutability": "view",
      "type": "function",
      "constant": true
    },
    {
      "inputs": [
        {
          "internalType": "uint8",
          "name": "",
          "type": "uint8"
        },
        {
          "internalType": "address",
          "name": "",
          "type": "address"
        }
      ],
      "name": "compensationAmount",
      "outputs": [
        {
          "internalType": "uint256",
          "name": "",
          "type": "uint256"
        }
      ],
      "stateMutability": "view",
      "type": "function",
      "constant": true
    },
    {
      "inputs": [],
      "name": "currentMonth",
      "outputs": [
        {
          "internalType": "uint8",
          "name": "",
          "type": "uint8"
        }
      ],
      "stateMutability": "view",
      "type": "function",
      "constant": true
    },
    {
      "inputs": [],
      "name": "group1Loss",
      "outputs": [
        {
          "internalType": "uint256",
          "name": "",
          "type": "uint256"
        }
      ],
      "stateMutability": "view",
      "type": "function",
      "constant": true
    },
    {
      "inputs": [],
      "name": "group2Loss",
      "outputs": [
        {
          "internalType": "uint256",
          "name": "",
          "type": "uint256"
        }
      ],
      "stateMutability": "view",
      "type": "function",
      "constant": true
    },
    {
      "inputs": [],
      "name": "group3Loss",
      "outputs": [
        {
          "internalType": "uint256",
          "name": "",
          "type": "uint256"
        }
      ],
      "stateMutability": "view",
      "type": "function",
      "constant": true
    },
    {
      "inputs": [
        {
          "internalType": "address",
          "name": "forwarder",
          "type": "address"
        }
      ],
      "name": "isTrustedForwarder",
      "outputs": [
        {
          "internalType": "bool",
          "name": "",
          "type": "bool"
        }
      ],
      "stateMutability": "view",
      "type": "function",
      "constant": true
    },
    {
      "inputs": [
        {
          "internalType": "address",
          "name": "",
          "type": "address"
        }
      ],
      "name": "members",
      "outputs": [
        {
          "internalType": "string",
          "name": "name",
          "type": "string"
        },
        {
          "internalType": "string",
          "name": "village",
          "type": "string"
        },
        {
          "internalType": "uint256",
          "name": "lat",
          "type": "uint256"
        },
        {
          "internalType": "uint256",
          "name": "lng",
          "type": "uint256"
        },
        {
          "internalType": "uint256",
          "name": "contribution",
          "type": "uint256"
        },
        {
          "internalType": "uint256",
          "name": "onboardingDate",
          "type": "uint256"
        },
        {
          "internalType": "string",
          "name": "mobileNo",
          "type": "string"
        },
        {
          "internalType": "uint24",
          "name": "groupId",
          "type": "uint24"
        },
        {
          "internalType": "uint256",
          "name": "merit",
          "type": "uint256"
        }
      ],
      "stateMutability": "view",
      "type": "function",
      "constant": true
    },
    {
      "inputs": [
        {
          "internalType": "uint256",
          "name": "",
          "type": "uint256"
        }
      ],
      "name": "membersAddresses",
      "outputs": [
        {
          "internalType": "address",
          "name": "",
          "type": "address"
        }
      ],
      "stateMutability": "view",
      "type": "function",
      "constant": true
    },
    {
      "inputs": [],
      "name": "owner",
      "outputs": [
        {
          "internalType": "address payable",
          "name": "",
          "type": "address"
        }
      ],
      "stateMutability": "view",
      "type": "function",
      "constant": true
    },
    {
      "inputs": [],
      "name": "pot",
      "outputs": [
        {
          "internalType": "uint256",
          "name": "",
          "type": "uint256"
        }
      ],
      "stateMutability": "view",
      "type": "function",
      "constant": true
    },
    {
      "inputs": [],
      "name": "startTime",
      "outputs": [
        {
          "internalType": "uint256",
          "name": "",
          "type": "uint256"
        }
      ],
      "stateMutability": "view",
      "type": "function",
      "constant": true
    },
    {
      "inputs": [],
      "name": "totalGroups",
      "outputs": [
        {
          "internalType": "uint8",
          "name": "",
          "type": "uint8"
        }
      ],
      "stateMutability": "view",
      "type": "function",
      "constant": true
    },
    {
      "inputs": [],
      "name": "trustedForwarder",
      "outputs": [
        {
          "internalType": "address",
          "name": "",
          "type": "address"
        }
      ],
      "stateMutability": "view",
      "type": "function",
      "constant": true
    },
    {
      "inputs": [],
      "name": "versionRecipient",
      "outputs": [
        {
          "internalType": "string",
          "name": "",
          "type": "string"
        }
      ],
      "stateMutability": "view",
      "type": "function",
      "constant": true
    },
    {
      "inputs": [
        {
          "internalType": "string",
          "name": "_name",
          "type": "string"
        },
        {
          "internalType": "string",
          "name": "_village",
          "type": "string"
        },
        {
          "internalType": "uint256",
          "name": "_lat",
          "type": "uint256"
        },
        {
          "internalType": "uint256",
          "name": "_lng",
          "type": "uint256"
        },
        {
          "internalType": "string",
          "name": "_mobileNo",
          "type": "string"
        }
      ],
      "name": "onboardMember",
      "outputs": [],
      "stateMutability": "nonpayable",
      "type": "function"
    },
    {
      "inputs": [
        {
          "internalType": "uint256",
          "name": "otp",
          "type": "uint256"
        },
        {
          "internalType": "uint256",
          "name": "amount",
          "type": "uint256"
        }
      ],
      "name": "contribute",
      "outputs": [],
      "stateMutability": "nonpayable",
      "type": "function"
    },
    {
      "inputs": [
        {
          "internalType": "uint256",
          "name": "amount",
          "type": "uint256"
        }
      ],
      "name": "preContributeVerification",
      "outputs": [],
      "stateMutability": "nonpayable",
      "type": "function"
    },
    {
      "inputs": [
        {
          "internalType": "uint24",
          "name": "groupId",
          "type": "uint24"
        },
        {
          "internalType": "uint8",
          "name": "_all",
          "type": "uint8"
        }
      ],
      "name": "doAssessmentForAGroup",
      "outputs": [],
      "stateMutability": "nonpayable",
      "type": "function"
    },
    {
      "inputs": [
        {
          "internalType": "uint8",
          "name": "monthId",
          "type": "uint8"
        },
        {
          "internalType": "uint24",
          "name": "groupId",
          "type": "uint24"
        }
      ],
      "name": "getAssessmentsOfAGroup",
      "outputs": [
        {
          "internalType": "uint256[]",
          "name": "",
          "type": "uint256[]"
        }
      ],
      "stateMutability": "view",
      "type": "function",
      "constant": true
    },
    {
      "inputs": [
        {
          "internalType": "uint8",
          "name": "monthId",
          "type": "uint8"
        }
      ],
      "name": "getAssessmentsDoneByAWatcher",
      "outputs": [
        {
          "internalType": "uint256[]",
          "name": "",
          "type": "uint256[]"
        }
      ],
      "stateMutability": "view",
      "type": "function",
      "constant": true
    },
    {
      "inputs": [
        {
          "internalType": "uint256",
          "name": "_id",
          "type": "uint256"
        }
      ],
      "name": "getAssessmentDetail",
      "outputs": [
        {
          "components": [
            {
              "internalType": "uint256",
              "name": "id",
              "type": "uint256"
            },
            {
              "internalType": "uint24",
              "name": "groupId",
              "type": "uint24"
            },
            {
              "internalType": "uint8",
              "name": "all",
              "type": "uint8"
            },
            {
              "internalType": "uint256",
              "name": "time",
              "type": "uint256"
            }
          ],
          "internalType": "struct MachuPicchu.Assessment",
          "name": "",
          "type": "tuple"
        }
      ],
      "stateMutability": "view",
      "type": "function",
      "constant": true
    },
    {
      "inputs": [
        {
          "internalType": "uint256",
          "name": "amount",
          "type": "uint256"
        }
      ],
      "name": "stake",
      "outputs": [],
      "stateMutability": "nonpayable",
      "type": "function"
    },
    {
      "inputs": [],
      "name": "getTotalStakeAmounts",
      "outputs": [
        {
          "internalType": "uint256",
          "name": "",
          "type": "uint256"
        }
      ],
      "stateMutability": "view",
      "type": "function",
      "constant": true
    },
    {
      "inputs": [
        {
          "internalType": "uint8",
          "name": "monthId",
          "type": "uint8"
        }
      ],
      "name": "getStakedAmountInAMonth",
      "outputs": [
        {
          "internalType": "uint256",
          "name": "",
          "type": "uint256"
        }
      ],
      "stateMutability": "view",
      "type": "function",
      "constant": true
    },
    {
      "inputs": [],
      "name": "getCurrentMonth",
      "outputs": [
        {
          "internalType": "uint8",
          "name": "",
          "type": "uint8"
        }
      ],
      "stateMutability": "view",
      "type": "function",
      "constant": true
    },
    {
      "inputs": [],
      "name": "monthlyLossCalculation",
      "outputs": [],
      "stateMutability": "nonpayable",
      "type": "function"
    },
    {
      "inputs": [],
      "name": "calcCompensation",
      "outputs": [],
      "stateMutability": "nonpayable",
      "type": "function"
    },
    {
      "inputs": [
        {
          "internalType": "uint256",
          "name": "otp",
          "type": "uint256"
        }
      ],
      "name": "payoutCompensation",
      "outputs": [],
      "stateMutability": "nonpayable",
      "type": "function"
    },
    {
      "inputs": [],
      "name": "prePayoutVerification",
      "outputs": [],
      "stateMutability": "nonpayable",
      "type": "function"
    },
    {
      "inputs": [],
      "name": "getTrustedForwarder",
      "outputs": [
        {
          "internalType": "address",
          "name": "",
          "type": "address"
        }
      ],
      "stateMutability": "view",
      "type": "function",
      "constant": true
    }
  ],
  "bytecode": "0x60806040526040518060400160405280600581526020017f322e302e30000000000000000000000000000000000000000000000000000000815250600190805190602001906200005192919062000241565b506003600660006101000a81548160ff021916908360ff1602179055506000600755600060085560006009556002600a553480156200008f57600080fd5b506040516200476b3803806200476b8339818101604052810190620000b5919062000315565b6000600581905550426003819055506000600460006101000a81548160ff021916908360ff16021790555082600b60006101000a81548173ffffffffffffffffffffffffffffffffffffffff021916908373ffffffffffffffffffffffffffffffffffffffff16021790555081600c60006101000a81548173ffffffffffffffffffffffffffffffffffffffff021916908373ffffffffffffffffffffffffffffffffffffffff16021790555080600d60006101000a81548173ffffffffffffffffffffffffffffffffffffffff021916908373ffffffffffffffffffffffffffffffffffffffff16021790555033600260006101000a81548173ffffffffffffffffffffffffffffffffffffffff021916908373ffffffffffffffffffffffffffffffffffffffff160217905550730842ad6b8cb64364761c7c170d0002cc56b1c4986000806101000a81548173ffffffffffffffffffffffffffffffffffffffff021916908373ffffffffffffffffffffffffffffffffffffffff160217905550505050620003e7565b828054600181600116156101000203166002900490600052602060002090601f016020900481019282601f106200028457805160ff1916838001178555620002b5565b82800160010185558215620002b5579182015b82811115620002b457825182559160200191906001019062000297565b5b509050620002c49190620002c8565b5090565b5b80821115620002e3576000816000905550600101620002c9565b5090565b600081519050620002f881620003b3565b92915050565b6000815190506200030f81620003cd565b92915050565b6000806000606084860312156200032b57600080fd5b60006200033b86828701620002fe565b93505060206200034e86828701620002e7565b92505060406200036186828701620002e7565b9150509250925092565b6000620003788262000393565b9050919050565b60006200038c8262000393565b9050919050565b600073ffffffffffffffffffffffffffffffffffffffff82169050919050565b620003be816200036b565b8114620003ca57600080fd5b50565b620003d8816200037f565b8114620003e457600080fd5b50565b61437480620003f76000396000f3fe608060405234801561001057600080fd5b50600436106101e55760003560e01c8063839b42991161010f578063c75f2893116100a2578063ddd1b67e11610071578063ddd1b67e14610566578063e2fc1ab414610584578063e972e278146105b4578063f6efab36146105d2576101e5565b8063c75f2893146104de578063ce1b815f146104fc578063d0bea6761461051a578063d5fb94ea14610536576101e5565b8063969109d6116100de578063969109d61461046a578063a694fc3a14610488578063b2ec7b06146104a4578063bd203219146104c0576101e5565b8063839b4299146103e2578063862a4d47146104125780638c590917146104305780638da5cb5b1461044c576101e5565b80634ba2363a1161018757806363fe04131161015657806363fe04131461036a57806369d1dca31461038857806378e97925146103a65780637da0a877146103c4576101e5565b80634ba2363a146102d05780634f6e8388146102ee578063572b6c051461030a5780635ee5a3c61461033a576101e5565b80632ac8df54116101c35780632ac8df54146102485780632b740d4414610252578063486ff0cd1461028257806348efb808146102a0576101e5565b806303003eb8146101ea57806308ae4b0c14610206578063102510631461023e575b600080fd5b61020460048036038101906101ff91906134db565b6105dc565b005b610220600480360381019061021b9190613460565b610a91565b60405161023599989796959493929190613d9c565b60405180910390f35b610246610cb6565b005b610250610fac565b005b61026c6004803603810190610267919061363b565b611503565b6040516102799190613f99565b60405180910390f35b61028a611677565b6040516102979190613d7a565b60405180910390f35b6102ba60048036038101906102b5919061363b565b611715565b6040516102c79190613d3d565b60405180910390f35b6102d86118d1565b6040516102e59190613f99565b60405180910390f35b6103086004803603810190610303919061359a565b6118d7565b005b610324600480360381019061031f9190613460565b611ce2565b6040516103319190613d5f565b60405180910390f35b610354600480360381019061034f91906135d6565b611d3b565b6040516103619190613c3a565b60405180910390f35b610372611d77565b60405161037f9190613f99565b60405180910390f35b610390611d7d565b60405161039d9190613f99565b60405180910390f35b6103ae611f16565b6040516103bb9190613f99565b60405180910390f35b6103cc611f1c565b6040516103d99190613c3a565b60405180910390f35b6103fc60048036038101906103f791906136a0565b611f40565b6040516104099190613d3d565b60405180910390f35b61041a611fcd565b604051610427919061409b565b60405180910390f35b61044a600480360381019061044591906135ff565b611fe0565b005b610454612316565b6040516104619190613c70565b60405180910390f35b61047261233c565b60405161047f9190613f99565b60405180910390f35b6104a2600480360381019061049d91906135d6565b612342565b005b6104be60048036038101906104b991906135d6565b612670565b005b6104c86128c0565b6040516104d59190613f99565b60405180910390f35b6104e66128c6565b6040516104f3919061409b565b60405180910390f35b6105046128d9565b6040516105119190613c3a565b60405180910390f35b610534600480360381019061052f91906135d6565b612902565b005b610550600480360381019061054b9190613664565b612d75565b60405161055d9190613f99565b60405180910390f35b61056e612d9a565b60405161057b919061409b565b60405180910390f35b61059e600480360381019061059991906135d6565b612dda565b6040516105ab9190613f7e565b60405180910390f35b6105bc612e5b565b6040516105c99190613f99565b60405180910390f35b6105da612e61565b005b6105e46130d9565b6000600b60009054906101000a900473ffffffffffffffffffffffffffffffffffffffff1673ffffffffffffffffffffffffffffffffffffffff166342584166836000600281111561063257fe5b6040518363ffffffff1660e01b815260040161064f929190613ceb565b60206040518083038186803b15801561066757600080fd5b505afa15801561067b573d6000803e3d6000fd5b505050506040513d601f19601f8201168201806040525081019061069f9190613489565b9050806106e1576040517f08c379a00000000000000000000000000000000000000000000000000000000081526004016106d890613f1e565b60405180910390fd5b6000600e60006106ef6130d9565b73ffffffffffffffffffffffffffffffffffffffff1673ffffffffffffffffffffffffffffffffffffffff168152602001908152602001600020600501541461076d576040517f08c379a000000000000000000000000000000000000000000000000000000000815260040161076490613efe565b60405180910390fd5b86600e600061077a6130d9565b73ffffffffffffffffffffffffffffffffffffffff1673ffffffffffffffffffffffffffffffffffffffff16815260200190815260200160002060000190805190602001906107ca929190613270565b5085600e60006107d86130d9565b73ffffffffffffffffffffffffffffffffffffffff1673ffffffffffffffffffffffffffffffffffffffff1681526020019081526020016000206001019080519060200190610828929190613270565b5084600e60006108366130d9565b73ffffffffffffffffffffffffffffffffffffffff1673ffffffffffffffffffffffffffffffffffffffff1681526020019081526020016000206002018190555083600e60006108846130d9565b73ffffffffffffffffffffffffffffffffffffffff1673ffffffffffffffffffffffffffffffffffffffff1681526020019081526020016000206003018190555042600e60006108d26130d9565b73ffffffffffffffffffffffffffffffffffffffff1673ffffffffffffffffffffffffffffffffffffffff1681526020019081526020016000206005018190555082600e60006109206130d9565b73ffffffffffffffffffffffffffffffffffffffff1673ffffffffffffffffffffffffffffffffffffffff1681526020019081526020016000206006019080519060200190610970929190613270565b5061097b8585613115565b600e60006109876130d9565b73ffffffffffffffffffffffffffffffffffffffff1673ffffffffffffffffffffffffffffffffffffffff16815260200190815260200160002060070160006101000a81548162ffffff021916908362ffffff160217905550600f6109ea6130d9565b9080600181540180825580915050600190039060005260206000200160009091909190916101000a81548173ffffffffffffffffffffffffffffffffffffffff021916908373ffffffffffffffffffffffffffffffffffffffff1602179055507fb4dcb6dd550f27b5917ebf674899ea7046ff91790c6f9f01431617ad39819db2610a736130d9565b604051610a809190613c55565b60405180910390a150505050505050565b600e602052806000526040600020600091509050806000018054600181600116156101000203166002900480601f016020809104026020016040519081016040528092919081815260200182805460018160011615610100020316600290048015610b3d5780601f10610b1257610100808354040283529160200191610b3d565b820191906000526020600020905b815481529060010190602001808311610b2057829003601f168201915b505050505090806001018054600181600116156101000203166002900480601f016020809104026020016040519081016040528092919081815260200182805460018160011615610100020316600290048015610bdb5780601f10610bb057610100808354040283529160200191610bdb565b820191906000526020600020905b815481529060010190602001808311610bbe57829003601f168201915b505050505090806002015490806003015490806004015490806005015490806006018054600181600116156101000203166002900480601f016020809104026020016040519081016040528092919081815260200182805460018160011615610100020316600290048015610c915780601f10610c6657610100808354040283529160200191610c91565b820191906000526020600020905b815481529060010190602001808311610c7457829003601f168201915b5050505050908060070160009054906101000a900462ffffff16908060080154905089565b600260009054906101000a900473ffffffffffffffffffffffffffffffffffffffff1673ffffffffffffffffffffffffffffffffffffffff16610cf76130d9565b73ffffffffffffffffffffffffffffffffffffffff1614610d4d576040517f08c379a0000000000000000000000000000000000000000000000000000000008152600401610d4490613e7e565b60405180910390fd5b600060116000600460009054906101000a900460ff1660ff1660ff1681526020019081526020016000209050600080600080600090505b846000600162ffffff16815260200190815260200160002080549050811015610e0c5760126000866000600162ffffff1681526020019081526020016000208381548110610dce57fe5b9060005260206000200154815260200190815260200160002060010160039054906101000a900460ff1660ff16840193508080600101915050610d84565b5060005b846000600262ffffff16815260200190815260200160002080549050811015610e985760126000866000600262ffffff1681526020019081526020016000208381548110610e5a57fe5b9060005260206000200154815260200190815260200160002060010160039054906101000a900460ff1660ff16830192508080600101915050610e10565b5060005b846000600362ffffff16815260200190815260200160002080549050811015610f245760126000866000600362ffffff1681526020019081526020016000208381548110610ee657fe5b9060005260206000200154815260200190815260200160002060010160039054906101000a900460ff1660ff16820191508080600101915050610e9c565b50836000600162ffffff168152602001908152602001600020805490508381610f4957fe5b04600781905550836000600262ffffff168152602001908152602001600020805490508281610f7457fe5b04600881905550836000600362ffffff168152602001908152602001600020805490508181610f9f57fe5b0460098190555050505050565b610fb46130d9565b6000600b60009054906101000a900473ffffffffffffffffffffffffffffffffffffffff1673ffffffffffffffffffffffffffffffffffffffff1663425841668360028081111561100157fe5b6040518363ffffffff1660e01b815260040161101e929190613ceb565b60206040518083038186803b15801561103657600080fd5b505afa15801561104a573d6000803e3d6000fd5b505050506040513d601f19601f8201168201806040525081019061106e9190613489565b9050806110b0576040517f08c379a00000000000000000000000000000000000000000000000000000000081526004016110a790613e9e565b60405180910390fd5b60005b600f805490508110156114e6576110c86132f0565b600e6000600f84815481106110d957fe5b9060005260206000200160009054906101000a900473ffffffffffffffffffffffffffffffffffffffff1673ffffffffffffffffffffffffffffffffffffffff1673ffffffffffffffffffffffffffffffffffffffff16815260200190815260200160002060405180610120016040529081600082018054600181600116156101000203166002900480601f0160208091040260200160405190810160405280929190818152602001828054600181600116156101000203166002900480156111e35780601f106111b8576101008083540402835291602001916111e3565b820191906000526020600020905b8154815290600101906020018083116111c657829003601f168201915b50505050508152602001600182018054600181600116156101000203166002900480601f0160208091040260200160405190810160405280929190818152602001828054600181600116156101000203166002900480156112855780601f1061125a57610100808354040283529160200191611285565b820191906000526020600020905b81548152906001019060200180831161126857829003601f168201915b5050505050815260200160028201548152602001600382015481526020016004820154815260200160058201548152602001600682018054600181600116156101000203166002900480601f01602080910402602001604051908101604052809291908181526020018280546001816001161561010002031660029004801561134f5780601f106113245761010080835404028352916020019161134f565b820191906000526020600020905b81548152906001019060200180831161133257829003601f168201915b505050505081526020016007820160009054906101000a900462ffffff1662ffffff1662ffffff1681526020016008820154815250509050600060018260e0015162ffffff1614156113a55760075490506113db565b60028260e0015162ffffff1614156113c15760085490506113da565b60038260e0015162ffffff1614156113d95760095490505b5b5b600061141d600f85815481106113ed57fe5b9060005260206000200160009054906101000a900473ffffffffffffffffffffffffffffffffffffffff1661315b565b905060006064600a54838502028161143157fe5b0490508060146000600460009054906101000a900460ff1660ff1660ff1681526020019081526020016000206000600f888154811061146c57fe5b9060005260206000200160009054906101000a900473ffffffffffffffffffffffffffffffffffffffff1673ffffffffffffffffffffffffffffffffffffffff1673ffffffffffffffffffffffffffffffffffffffff168152602001908152602001600020819055505050505080806001019150506110b3565b506000600781905550600060088190555060006009819055505050565b600061150d6130d9565b6000600b60009054906101000a900473ffffffffffffffffffffffffffffffffffffffff1673ffffffffffffffffffffffffffffffffffffffff166342584166836001600281111561155b57fe5b6040518363ffffffff1660e01b8152600401611578929190613ceb565b60206040518083038186803b15801561159057600080fd5b505afa1580156115a4573d6000803e3d6000fd5b505050506040513d601f19601f820116820180604052508101906115c89190613489565b90508061160a576040517f08c379a000000000000000000000000000000000000000000000000000000000815260040161160190613e3e565b60405180910390fd5b6000601060006116186130d9565b73ffffffffffffffffffffffffffffffffffffffff1673ffffffffffffffffffffffffffffffffffffffff16815260200190815260200160002090508060008660ff1660ff168152602001908152602001600020549350505050919050565b60018054600181600116156101000203166002900480601f01602080910402602001604051908101604052809291908181526020018280546001816001161561010002031660029004801561170d5780601f106116e25761010080835404028352916020019161170d565b820191906000526020600020905b8154815290600101906020018083116116f057829003601f168201915b505050505081565b606061171f6130d9565b6000600b60009054906101000a900473ffffffffffffffffffffffffffffffffffffffff1673ffffffffffffffffffffffffffffffffffffffff166342584166836001600281111561176d57fe5b6040518363ffffffff1660e01b815260040161178a929190613ceb565b60206040518083038186803b1580156117a257600080fd5b505afa1580156117b6573d6000803e3d6000fd5b505050506040513d601f19601f820116820180604052508101906117da9190613489565b90508061181c576040517f08c379a000000000000000000000000000000000000000000000000000000000815260040161181390613e3e565b60405180910390fd5b601360008560ff1660ff168152602001908152602001600020600061183f6130d9565b73ffffffffffffffffffffffffffffffffffffffff1673ffffffffffffffffffffffffffffffffffffffff1681526020019081526020016000208054806020026020016040519081016040528092919081815260200182805480156118c357602002820191906000526020600020905b8154815260200190600101908083116118af575b505050505092505050919050565b60155481565b6118df6130d9565b6000600b60009054906101000a900473ffffffffffffffffffffffffffffffffffffffff1673ffffffffffffffffffffffffffffffffffffffff166342584166836001600281111561192d57fe5b6040518363ffffffff1660e01b815260040161194a929190613ceb565b60206040518083038186803b15801561196257600080fd5b505afa158015611976573d6000803e3d6000fd5b505050506040513d601f19601f8201168201806040525081019061199a9190613489565b9050806119dc576040517f08c379a00000000000000000000000000000000000000000000000000000000081526004016119d390613e3e565b60405180910390fd5b60006119e6612d9a565b9050600460009054906101000a900460ff1660ff168160ff161115611a215780600460006101000a81548160ff021916908360ff1602179055505b601460106000611a2f6130d9565b73ffffffffffffffffffffffffffffffffffffffff1673ffffffffffffffffffffffffffffffffffffffff1681526020019081526020016000206000600460009054906101000a900460ff1660ff1660ff1681526020019081526020016000205411611ad0576040517f08c379a0000000000000000000000000000000000000000000000000000000008152600401611ac790613ebe565b60405180910390fd5b611ad8613341565b604051806080016040528060055481526020018762ffffff1681526020018660ff168152602001428152509050806012600060055481526020019081526020016000206000820151816000015560208201518160010160006101000a81548162ffffff021916908362ffffff16021790555060408201518160010160036101000a81548160ff021916908360ff1602179055506060820151816002015590505060116000600460009054906101000a900460ff1660ff1660ff16815260200190815260200160002060008762ffffff1662ffffff168152602001908152602001600020600554908060018154018082558091505060019003906000526020600020016000909190919091505560136000600460009054906101000a900460ff1660ff1660ff1681526020019081526020016000206000611c166130d9565b73ffffffffffffffffffffffffffffffffffffffff1673ffffffffffffffffffffffffffffffffffffffff16815260200190815260200160002060055490806001815401808255809150506001900390600052602060002001600090919091909150558562ffffff16611c876130d9565b73ffffffffffffffffffffffffffffffffffffffff167f92d22e89929e450e502266ea16c9dcc755d7c24516a06be8159306162162640b60405160405180910390a36001600560008282540192505081905550505050505050565b60008060009054906101000a900473ffffffffffffffffffffffffffffffffffffffff1673ffffffffffffffffffffffffffffffffffffffff168273ffffffffffffffffffffffffffffffffffffffff16149050919050565b600f8181548110611d4857fe5b906000526020600020016000915054906101000a900473ffffffffffffffffffffffffffffffffffffffff1681565b60055481565b6000611d876130d9565b6000600b60009054906101000a900473ffffffffffffffffffffffffffffffffffffffff1673ffffffffffffffffffffffffffffffffffffffff1663425841668360016002811115611dd557fe5b6040518363ffffffff1660e01b8152600401611df2929190613ceb565b60206040518083038186803b158015611e0a57600080fd5b505afa158015611e1e573d6000803e3d6000fd5b505050506040513d601f19601f82011682018060405250810190611e429190613489565b905080611e84576040517f08c379a0000000000000000000000000000000000000000000000000000000008152600401611e7b90613e3e565b60405180910390fd5b600060106000611e926130d9565b73ffffffffffffffffffffffffffffffffffffffff1673ffffffffffffffffffffffffffffffffffffffff1681526020019081526020016000209050600080600190505b600c8160ff1611611f0b578260008260ff1660ff16815260200190815260200160002054820191508080600101915050611ed6565b508094505050505090565b60035481565b60008054906101000a900473ffffffffffffffffffffffffffffffffffffffff1681565b6060601160008460ff1660ff16815260200190815260200160002060008362ffffff1662ffffff168152602001908152602001600020805480602002602001604051908101604052809291908181526020018280548015611fc057602002820191906000526020600020905b815481526020019060010190808311611fac575b5050505050905092915050565b600460009054906101000a900460ff1681565b611fe86130d9565b6000600b60009054906101000a900473ffffffffffffffffffffffffffffffffffffffff1673ffffffffffffffffffffffffffffffffffffffff166342584166836000600281111561203657fe5b6040518363ffffffff1660e01b8152600401612053929190613ceb565b60206040518083038186803b15801561206b57600080fd5b505afa15801561207f573d6000803e3d6000fd5b505050506040513d601f19601f820116820180604052508101906120a39190613489565b9050806120e5576040517f08c379a00000000000000000000000000000000000000000000000000000000081526004016120dc90613f1e565b60405180910390fd5b600d60009054906101000a900473ffffffffffffffffffffffffffffffffffffffff1673ffffffffffffffffffffffffffffffffffffffff1663524c027a8561212c6130d9565b6040518363ffffffff1660e01b8152600401612149929190613fb4565b602060405180830381600087803b15801561216357600080fd5b505af1158015612177573d6000803e3d6000fd5b505050506040513d601f19601f8201168201806040525081019061219b9190613489565b6121da576040517f08c379a00000000000000000000000000000000000000000000000000000000081526004016121d190613ede565b60405180910390fd5b600c60009054906101000a900473ffffffffffffffffffffffffffffffffffffffff1673ffffffffffffffffffffffffffffffffffffffff16634e6ec24730856040518363ffffffff1660e01b8152600401612237929190613d14565b600060405180830381600087803b15801561225157600080fd5b505af1158015612265573d6000803e3d6000fd5b5050505082600e60006122766130d9565b73ffffffffffffffffffffffffffffffffffffffff1673ffffffffffffffffffffffffffffffffffffffff16815260200190815260200160002060040160008282540192505081905550826015600082825401925050819055507fbdaa686eb6f59012d211a74523da260341c516896e9e5be954163d6ecf26ffa26122f96130d9565b84604051612308929190613cc2565b60405180910390a150505050565b600260009054906101000a900473ffffffffffffffffffffffffffffffffffffffff1681565b60095481565b61234a6130d9565b6000600b60009054906101000a900473ffffffffffffffffffffffffffffffffffffffff1673ffffffffffffffffffffffffffffffffffffffff166342584166836001600281111561239857fe5b6040518363ffffffff1660e01b81526004016123b5929190613ceb565b60206040518083038186803b1580156123cd57600080fd5b505afa1580156123e1573d6000803e3d6000fd5b505050506040513d601f19601f820116820180604052508101906124059190613489565b905080612447576040517f08c379a000000000000000000000000000000000000000000000000000000000815260040161243e90613e3e565b60405180910390fd5b6014831161248a576040517f08c379a000000000000000000000000000000000000000000000000000000000815260040161248190613f5e565b60405180910390fd5b6000612494612d9a565b9050600460009054906101000a900460ff1660ff168160ff1611156124cf5780600460006101000a81548160ff021916908360ff1602179055505b600c60009054906101000a900473ffffffffffffffffffffffffffffffffffffffff1673ffffffffffffffffffffffffffffffffffffffff166323b872dd6125156130d9565b30876040518463ffffffff1660e01b815260040161253593929190613c8b565b602060405180830381600087803b15801561254f57600080fd5b505af1158015612563573d6000803e3d6000fd5b505050506040513d601f19601f820116820180604052508101906125879190613489565b5083601060006125956130d9565b73ffffffffffffffffffffffffffffffffffffffff1673ffffffffffffffffffffffffffffffffffffffff1681526020019081526020016000206000600460009054906101000a900460ff1660ff1660ff16815260200190815260200160002060008282540192505081905550600460009054906101000a900460ff1660ff1661261d6130d9565b73ffffffffffffffffffffffffffffffffffffffff167fd6f9eeaa8eb9168b187679e07e8014cb2ed1df85d3e443a48384b396b193044d866040516126629190613f99565b60405180910390a350505050565b6126786130d9565b6000600b60009054906101000a900473ffffffffffffffffffffffffffffffffffffffff1673ffffffffffffffffffffffffffffffffffffffff16634258416683600060028111156126c657fe5b6040518363ffffffff1660e01b81526004016126e3929190613ceb565b60206040518083038186803b1580156126fb57600080fd5b505afa15801561270f573d6000803e3d6000fd5b505050506040513d601f19601f820116820180604052508101906127339190613489565b905080612775576040517f08c379a000000000000000000000000000000000000000000000000000000000815260040161276c90613f1e565b60405180910390fd5b600283116127b8576040517f08c379a00000000000000000000000000000000000000000000000000000000081526004016127af90613f3e565b60405180910390fd5b600d60009054906101000a900473ffffffffffffffffffffffffffffffffffffffff1673ffffffffffffffffffffffffffffffffffffffff1663c7f0631342856128006130d9565b600e600061280c6130d9565b73ffffffffffffffffffffffffffffffffffffffff1673ffffffffffffffffffffffffffffffffffffffff1681526020019081526020016000206006016040518563ffffffff1660e01b8152600401612868949392919061403c565b602060405180830381600087803b15801561288257600080fd5b505af1158015612896573d6000803e3d6000fd5b505050506040513d601f19601f820116820180604052508101906128ba91906134b2565b50505050565b60085481565b600660009054906101000a900460ff1681565b60008060009054906101000a900473ffffffffffffffffffffffffffffffffffffffff16905090565b61290a6130d9565b6000600b60009054906101000a900473ffffffffffffffffffffffffffffffffffffffff1673ffffffffffffffffffffffffffffffffffffffff166342584166836000600281111561295857fe5b6040518363ffffffff1660e01b8152600401612975929190613ceb565b60206040518083038186803b15801561298d57600080fd5b505afa1580156129a1573d6000803e3d6000fd5b505050506040513d601f19601f820116820180604052508101906129c59190613489565b905080612a07576040517f08c379a00000000000000000000000000000000000000000000000000000000081526004016129fe90613f1e565b60405180910390fd5b600d60009054906101000a900473ffffffffffffffffffffffffffffffffffffffff1673ffffffffffffffffffffffffffffffffffffffff1663524c027a84612a4e6130d9565b6040518363ffffffff1660e01b8152600401612a6b929190613fb4565b602060405180830381600087803b158015612a8557600080fd5b505af1158015612a99573d6000803e3d6000fd5b505050506040513d601f19601f82011682018060405250810190612abd9190613489565b612afc576040517f08c379a0000000000000000000000000000000000000000000000000000000008152600401612af390613ede565b60405180910390fd5b60155460146000600460009054906101000a900460ff1660ff1660ff1681526020019081526020016000206000612b316130d9565b73ffffffffffffffffffffffffffffffffffffffff1673ffffffffffffffffffffffffffffffffffffffff168152602001908152602001600020541115612bad576040517f08c379a0000000000000000000000000000000000000000000000000000000008152600401612ba490613e5e565b60405180910390fd5b600060146000600460009054906101000a900460ff1660ff1660ff1681526020019081526020016000206000612be16130d9565b73ffffffffffffffffffffffffffffffffffffffff1673ffffffffffffffffffffffffffffffffffffffff168152602001908152602001600020549050600060146000600460009054906101000a900460ff1660ff1660ff1681526020019081526020016000206000612c526130d9565b73ffffffffffffffffffffffffffffffffffffffff1673ffffffffffffffffffffffffffffffffffffffff1681526020019081526020016000208190555080601560008282540392505081905550600c60009054906101000a900473ffffffffffffffffffffffffffffffffffffffff1673ffffffffffffffffffffffffffffffffffffffff16636161eb1830836040518363ffffffff1660e01b8152600401612cfd929190613d14565b600060405180830381600087803b158015612d1757600080fd5b505af1158015612d2b573d6000803e3d6000fd5b505050507fe80c8b490c4c971de833ac047f72f9c82c6d3fec94ce2b3bc0f2e51e54972c43612d586130d9565b82604051612d67929190613cc2565b60405180910390a150505050565b6014602052816000526040600020602052806000526040600020600091509150505481565b6000600c601e6018603c80426003540381612db157fe5b0481612db957fe5b0481612dc157fe5b0481612dc957fe5b0460ff1681612dd457fe5b06905090565b612de2613341565b60126000838152602001908152602001600020604051806080016040529081600082015481526020016001820160009054906101000a900462ffffff1662ffffff1662ffffff1681526020016001820160039054906101000a900460ff1660ff1660ff1681526020016002820154815250509050919050565b60075481565b612e696130d9565b6000600b60009054906101000a900473ffffffffffffffffffffffffffffffffffffffff1673ffffffffffffffffffffffffffffffffffffffff1663425841668360006002811115612eb757fe5b6040518363ffffffff1660e01b8152600401612ed4929190613ceb565b60206040518083038186803b158015612eec57600080fd5b505afa158015612f00573d6000803e3d6000fd5b505050506040513d601f19601f82011682018060405250810190612f249190613489565b905080612f66576040517f08c379a0000000000000000000000000000000000000000000000000000000008152600401612f5d90613f1e565b60405180910390fd5b600d60009054906101000a900473ffffffffffffffffffffffffffffffffffffffff1673ffffffffffffffffffffffffffffffffffffffff1663c7f063134260146000600460009054906101000a900460ff1660ff1660ff1681526020019081526020016000206000612fd76130d9565b73ffffffffffffffffffffffffffffffffffffffff1673ffffffffffffffffffffffffffffffffffffffff1681526020019081526020016000205461301a6130d9565b600e60006130266130d9565b73ffffffffffffffffffffffffffffffffffffffff1673ffffffffffffffffffffffffffffffffffffffff1681526020019081526020016000206006016040518563ffffffff1660e01b81526004016130829493929190613fdd565b602060405180830381600087803b15801561309c57600080fd5b505af11580156130b0573d6000803e3d6000fd5b505050506040513d601f19601f820116820180604052508101906130d491906134b2565b505050565b600060186000369050101580156130f557506130f433611ce2565b5b1561310957601436033560601c9050613111565b339050613112565b5b90565b6000808284019050600a811161312f576001915050613155565b600a81118015613140575060148111155b1561314f576002915050613155565b60039150505b92915050565b600080601e6018603c80600e60008873ffffffffffffffffffffffffffffffffffffffff1673ffffffffffffffffffffffffffffffffffffffff168152602001908152602001600020600501544203816131b157fe5b04816131b957fe5b04816131c157fe5b04816131c957fe5b049050600060018201600e60008673ffffffffffffffffffffffffffffffffffffffff1673ffffffffffffffffffffffffffffffffffffffff168152602001908152602001600020600401548161321c57fe5b04905080600e60008673ffffffffffffffffffffffffffffffffffffffff1673ffffffffffffffffffffffffffffffffffffffff168152602001908152602001600020600801819055508092505050919050565b828054600181600116156101000203166002900490600052602060002090601f016020900481019282601f106132b157805160ff19168380011785556132df565b828001600101855582156132df579182015b828111156132de5782518255916020019190600101906132c3565b5b5090506132ec9190613371565b5090565b60405180610120016040528060608152602001606081526020016000815260200160008152602001600081526020016000815260200160608152602001600062ffffff168152602001600081525090565b604051806080016040528060008152602001600062ffffff168152602001600060ff168152602001600081525090565b5b8082111561338a576000816000905550600101613372565b5090565b60008135905061339d816142b4565b92915050565b6000815190506133b2816142cb565b92915050565b6000815190506133c7816142e2565b92915050565b600082601f8301126133de57600080fd5b81356133f16133ec826140e3565b6140b6565b9150808252602083016020830185838301111561340d57600080fd5b613418838284614254565b50505092915050565b600081359050613430816142f9565b92915050565b60008135905061344581614310565b92915050565b60008135905061345a81614327565b92915050565b60006020828403121561347257600080fd5b60006134808482850161338e565b91505092915050565b60006020828403121561349b57600080fd5b60006134a9848285016133a3565b91505092915050565b6000602082840312156134c457600080fd5b60006134d2848285016133b8565b91505092915050565b600080600080600060a086880312156134f357600080fd5b600086013567ffffffffffffffff81111561350d57600080fd5b613519888289016133cd565b955050602086013567ffffffffffffffff81111561353657600080fd5b613542888289016133cd565b945050604061355388828901613436565b935050606061356488828901613436565b925050608086013567ffffffffffffffff81111561358157600080fd5b61358d888289016133cd565b9150509295509295909350565b600080604083850312156135ad57600080fd5b60006135bb85828601613421565b92505060206135cc8582860161344b565b9150509250929050565b6000602082840312156135e857600080fd5b60006135f684828501613436565b91505092915050565b6000806040838503121561361257600080fd5b600061362085828601613436565b925050602061363185828601613436565b9150509250929050565b60006020828403121561364d57600080fd5b600061365b8482850161344b565b91505092915050565b6000806040838503121561367757600080fd5b60006136858582860161344b565b92505060206136968582860161338e565b9150509250929050565b600080604083850312156136b357600080fd5b60006136c18582860161344b565b92505060206136d285828601613421565b9150509250929050565b60006136e88383613bfe565b60208301905092915050565b6136fd8161420c565b82525050565b61370c8161418b565b82525050565b61371b81614179565b82525050565b600061372c82614134565b6137368185614157565b93506137418361410f565b8060005b8381101561377257815161375988826136dc565b97506137648361414a565b925050600181019050613745565b5085935050505092915050565b6137888161419d565b82525050565b6137978161421e565b82525050565b60006137a88261413f565b6137b28185614168565b93506137c2818560208601614263565b6137cb81614296565b840191505092915050565b6000815460018116600081146137f357600181146138195761385d565b607f60028304166138048187614168565b955060ff19831686526020860193505061385d565b600282046138278187614168565b95506138328561411f565b60005b8281101561385457815481890152600182019150602081019050613835565b80880195505050505b505092915050565b6000613872601583614168565b91507f596f7520617265206e6f742061207761746368657200000000000000000000006000830152602082019050919050565b60006138b2600c83614168565b91507f636f6d70656e736174696f6e00000000000000000000000000000000000000006000830152602082019050919050565b60006138f2601883614168565b91507f4e6f7420656e6f75676820616d6f756e7420696e20706f7400000000000000006000830152602082019050919050565b6000613932601683614168565b91507f596f7520617265206e6f7420617574686f7269736564000000000000000000006000830152602082019050919050565b6000613972600c83614168565b91507f636f6e747269627574696e6700000000000000000000000000000000000000006000830152602082019050919050565b60006139b2601583614168565b91507f596f7520617265206e6f74206120456e61626c657200000000000000000000006000830152602082019050919050565b60006139f2601683614168565b91507f596f752073686f756c64207374616b65206669727374000000000000000000006000830152602082019050919050565b6000613a32601e83614168565b91507f4f5450206973206569746865722065787069726564206f722077726f6e6700006000830152602082019050919050565b6000613a72601983614168565b91507f6164647265737320616c7265616479206f6e626f6172646564000000000000006000830152602082019050919050565b6000613ab2601483614168565b91507f596f7520617265206e6f742061206d656d6265720000000000000000000000006000830152602082019050919050565b6000613af2601383614168565b91507f416d6f756e74203e2032207265717569726564000000000000000000000000006000830152602082019050919050565b6000613b32602383614168565b91507f596f7572207374616b6520616d6f756e74206973206e6f74207375666669636960008301527f656e7400000000000000000000000000000000000000000000000000000000006020830152604082019050919050565b608082016000820151613ba16000850182613bfe565b506020820151613bb46020850182613be0565b506040820151613bc76040850182613c1c565b506060820151613bda6060850182613bfe565b50505050565b613be9816141e6565b82525050565b613bf8816141e6565b82525050565b613c07816141f5565b82525050565b613c16816141f5565b82525050565b613c25816141ff565b82525050565b613c34816141ff565b82525050565b6000602082019050613c4f6000830184613712565b92915050565b6000602082019050613c6a60008301846136f4565b92915050565b6000602082019050613c856000830184613703565b92915050565b6000606082019050613ca060008301866136f4565b613cad6020830185613712565b613cba6040830184613c0d565b949350505050565b6000604082019050613cd760008301856136f4565b613ce46020830184613c0d565b9392505050565b6000604082019050613d006000830185613712565b613d0d602083018461378e565b9392505050565b6000604082019050613d296000830185613712565b613d366020830184613c0d565b9392505050565b60006020820190508181036000830152613d578184613721565b905092915050565b6000602082019050613d74600083018461377f565b92915050565b60006020820190508181036000830152613d94818461379d565b905092915050565b6000610120820190508181036000830152613db7818c61379d565b90508181036020830152613dcb818b61379d565b9050613dda604083018a613c0d565b613de76060830189613c0d565b613df46080830188613c0d565b613e0160a0830187613c0d565b81810360c0830152613e13818661379d565b9050613e2260e0830185613bef565b613e30610100830184613c0d565b9a9950505050505050505050565b60006020820190508181036000830152613e5781613865565b9050919050565b60006020820190508181036000830152613e77816138e5565b9050919050565b60006020820190508181036000830152613e9781613925565b9050919050565b60006020820190508181036000830152613eb7816139a5565b9050919050565b60006020820190508181036000830152613ed7816139e5565b9050919050565b60006020820190508181036000830152613ef781613a25565b9050919050565b60006020820190508181036000830152613f1781613a65565b9050919050565b60006020820190508181036000830152613f3781613aa5565b9050919050565b60006020820190508181036000830152613f5781613ae5565b9050919050565b60006020820190508181036000830152613f7781613b25565b9050919050565b6000608082019050613f936000830184613b8b565b92915050565b6000602082019050613fae6000830184613c0d565b92915050565b6000604082019050613fc96000830185613c0d565b613fd660208301846136f4565b9392505050565b600060a082019050613ff26000830187613c0d565b613fff6020830186613c0d565b8181036040830152614010816138a5565b905061401f60608301856136f4565b818103608083015261403181846137d6565b905095945050505050565b600060a0820190506140516000830187613c0d565b61405e6020830186613c0d565b818103604083015261406f81613965565b905061407e60608301856136f4565b818103608083015261409081846137d6565b905095945050505050565b60006020820190506140b06000830184613c2b565b92915050565b6000604051905081810181811067ffffffffffffffff821117156140d957600080fd5b8060405250919050565b600067ffffffffffffffff8211156140fa57600080fd5b601f19601f8301169050602081019050919050565b6000819050602082019050919050565b60008190508160005260206000209050919050565b600081519050919050565b600081519050919050565b6000602082019050919050565b600082825260208201905092915050565b600082825260208201905092915050565b6000614184826141c6565b9050919050565b6000614196826141c6565b9050919050565b60008115159050919050565b6000819050919050565b60008190506141c1826142a7565b919050565b600073ffffffffffffffffffffffffffffffffffffffff82169050919050565b600062ffffff82169050919050565b6000819050919050565b600060ff82169050919050565b600061421782614230565b9050919050565b6000614229826141b3565b9050919050565b600061423b82614242565b9050919050565b600061424d826141c6565b9050919050565b82818337600083830152505050565b60005b83811015614281578082015181840152602081019050614266565b83811115614290576000848401525b50505050565b6000601f19601f8301169050919050565b600381106142b157fe5b50565b6142bd81614179565b81146142c857600080fd5b50565b6142d48161419d565b81146142df57600080fd5b50565b6142eb816141a9565b81146142f657600080fd5b50565b614302816141e6565b811461430d57600080fd5b50565b614319816141f5565b811461432457600080fd5b50565b614330816141ff565b811461433b57600080fd5b5056fea2646970667358221220dbb88b82e02b597454710a4306e6aa18b7bde369c9d52dcf4a50dd3c3bd53f5064736f6c634300060c0033",
  "immutableReferences": {},
  "source": "// SPDX-License-Identifier: MIT\n\npragma solidity >0.6.0 <=0.7.1;\npragma experimental ABIEncoderV2;\n\nimport {User} from \"./User.sol\";\nimport {RUP} from \"./token/RUP.sol\";\nimport {OTPGeneratorAndVerifier} from \"./otp/OTPGeneratorAndVerifier.sol\";\n\nimport \"@opengsn/gsn/contracts/BaseRelayRecipient.sol\";\nimport \"@opengsn/gsn/contracts/interfaces/IKnowForwarderAddress.sol\";\n\ncontract MachuPicchu is BaseRelayRecipient, IKnowForwarderAddress {\n    string public override versionRecipient = \"2.0.0\";\n\n    address payable public owner;\n    uint256 public startTime;\n\n    uint8 public currentMonth;\n    uint256 public assessmentId;\n    uint8 public totalGroups = 3;\n    uint256 public group1Loss = 0;\n    uint256 public group2Loss = 0;\n    uint256 public group3Loss = 0;\n\n    //Considering MTBF of the community as 48 months = 4 years\n    uint256 MTBF = 2;\n\n    User userContract;\n    RUP tokenContract;\n    OTPGeneratorAndVerifier otpContract;\n\n    constructor(\n        address payable _userContract,\n        address _tokenContract,\n        address _otpContract\n    ) public {\n        assessmentId = 0;\n        startTime = block.timestamp;\n        currentMonth = 0;\n        userContract = User(_userContract);\n        tokenContract = RUP(_tokenContract);\n        otpContract = OTPGeneratorAndVerifier(_otpContract);\n        owner = msg.sender;\n        trustedForwarder = address(0x0842Ad6B8cb64364761C7c170D0002CC56b1c498);\n    }\n\n    /* Represent the information stored for each member */\n    struct Member {\n        string name;\n        string village;\n        uint256 lat;\n        uint256 lng;\n        uint256 contribution;\n        uint256 onboardingDate;\n        string mobileNo;\n        uint24 groupId;\n        uint256 merit;\n    }\n\n    struct Assessment {\n        uint256 id;\n        uint24 groupId;\n        uint8 all;\n        uint256 time;\n    }\n\n    /* Public mapping between a member address to the member's details */\n    mapping(address => Member) public members;\n    address[] public membersAddresses;\n    mapping(address => mapping(uint8 => uint256)) Stakes;\n    mapping(uint8 => mapping(uint24 => uint256[])) groupAssessments;\n    mapping(uint256 => Assessment) Assessments;\n    mapping(uint8 => mapping(address => uint256[])) watcherAssessments;\n    mapping(uint8 => mapping(address => uint256)) public compensationAmount;\n\n    /* Public total amount of the pot (sum of all contributions) */\n    uint256 public pot;\n\n    modifier registeredMember(address _user) {\n        bool temp = userContract.checkUserRole(_user, User.UserType(0));\n        require(temp, \"You are not a member\");\n        _;\n    }\n\n    modifier registeredWatcher(address _user) {\n        bool temp = userContract.checkUserRole(_user, User.UserType(1));\n        require(temp, \"You are not a watcher\");\n        _;\n    }\n\n    modifier registeredEnabler(address _user) {\n        bool temp = userContract.checkUserRole(_user, User.UserType(2));\n        require(temp, \"You are not a Enabler\");\n        _;\n    }\n\n    /* Event emitted at each onboarded member */\n    event NewMember(address memberAddress);\n\n    /* Event emitted at each contribution */\n    event NewContribution(address memberAddress, uint256 amount);\n\n    event watcherStakedForMonth(address indexed, uint8 indexed, uint256);\n\n    event watcherAssessedGroup(address indexed, uint24 indexed);\n\n    //Defining an event post Compensation amount Transfer\n    event CompensationTransfer(address member, uint256 amount);\n\n    /*\n    Register a new member.\n    Revert if:\n      - msg.sender is already registered  \n  */\n    function onboardMember(\n        string memory _name,\n        string memory _village,\n        uint256 _lat,\n        uint256 _lng,\n        string memory _mobileNo\n    ) public registeredMember(_msgSender()) {\n        // Verifies that the address has never been registered\n        require(\n            members[_msgSender()].onboardingDate == 0,\n            \"address already onboarded\"\n        );\n        // Stores member data\n        members[_msgSender()].name = _name;\n        members[_msgSender()].village = _village;\n        members[_msgSender()].lat = _lat;\n        members[_msgSender()].lng = _lng;\n        members[_msgSender()].onboardingDate = block.timestamp;\n        members[_msgSender()].mobileNo = _mobileNo;\n        members[_msgSender()].groupId = getGroupId(_lat, _lng);\n        membersAddresses.push(_msgSender());\n        // Emit event\n        emit NewMember(_msgSender());\n    }\n\n    /*\n    Record new contribution.\n    Revert if: \n      - msg.sender is not registered\n      - no ETH is sent with the transaction\n  */\n    function contribute(uint256 otp, uint256 amount)\n        public\n        registeredMember(_msgSender())\n    {\n        // OTP validation has to be done\n        require(\n            otpContract.verifyOTP(otp, _msgSender()),\n            \"OTP is either expired or wrong\"\n        );\n        // transfer tokens to this contract after minting on behalf of _msgSender()\n        tokenContract._mint(address(this), (amount));\n        // Increments member's balance and pot\n        // TODO: should use SafeMath lib here\n        members[_msgSender()].contribution += amount;\n        pot += amount;\n\n        emit NewContribution(_msgSender(), amount);\n    }\n\n    function preContributeVerification(uint256 amount)\n        public\n        registeredMember(_msgSender())\n    {\n        require(amount > 2, \"Amount > 2 required\");\n        otpContract.generateOTP(\n            block.timestamp,\n            amount,\n            \"contributing\",\n            _msgSender(),\n            members[_msgSender()].mobileNo\n        );\n    }\n\n    function getGroupId(uint256 _lat, uint256 _lng)\n        private\n        pure\n        returns (uint24)\n    {\n        // on the basis of _lat and _lng we will have to allot a groupId\n        uint256 t = _lat + _lng;\n        if (t <= 10) {\n            return 1;\n        } else if (t > 10 && t <= 20) {\n            return 2;\n        } else {\n            return 3;\n        }\n    }\n\n    /**\n     * To perform Assessment by a watcher for a particular group(group of fields) for the current month\n     * @param groupId Groupid alloted in User contract\n     * @param _all The final result by watcher\n     *  Before calling this, check if assessment done by this watcher for this group already\n     **/\n    function doAssessmentForAGroup(uint24 groupId, uint8 _all)\n        public\n        registeredWatcher(_msgSender())\n    {\n        // check for nextMonth\n        uint8 nextMonth = getCurrentMonth();\n        if (nextMonth > currentMonth) {\n            currentMonth = nextMonth;\n        }\n        // require minimum amount staked\n        require(\n            Stakes[_msgSender()][currentMonth] > 20,\n            \"You should stake first\"\n        );\n        //\n        // make Assessment object\n        Assessment memory asmt = Assessment({\n            id: assessmentId,\n            groupId: groupId,\n            all: _all,\n            time: block.timestamp\n        });\n        // add to Assessments list\n        Assessments[assessmentId] = asmt;\n        // add to groupAssessments list\n        groupAssessments[currentMonth][groupId].push(assessmentId);\n        // add to watcherAssessments list\n        watcherAssessments[currentMonth][_msgSender()].push(assessmentId);\n        // event\n        emit watcherAssessedGroup(_msgSender(), groupId);\n        // increment assessmentId by 1\n        assessmentId += 1;\n    }\n\n    /**\n     * To get assessment of a group of a particular month\n     * @param monthId month-id\n     * @param groupId group-id\n     * @return array of assessment ids\n     *\n     **/\n    function getAssessmentsOfAGroup(uint8 monthId, uint24 groupId)\n        public\n        view\n        returns (uint256[] memory)\n    {\n        return groupAssessments[monthId][groupId];\n    }\n\n    /**\n     * To get assessment of a watcher of a particular month\n     * @param monthId month-id\n     * @return array of assessment ids\n     *\n     **/\n    function getAssessmentsDoneByAWatcher(uint8 monthId)\n        public\n        view\n        registeredWatcher(_msgSender())\n        returns (uint256[] memory)\n    {\n        return watcherAssessments[monthId][_msgSender()];\n    }\n\n    /**\n     * To get detail of a particular assessment\n     * @param _id assessment-id\n     * @return Assessment struct\n     *\n     **/\n    function getAssessmentDetail(uint256 _id)\n        public\n        view\n        returns (Assessment memory)\n    {\n        return Assessments[_id];\n    }\n\n    /**\n     * To stake/increment in stake for the currentMonth by a watcher\n     *\n     **/\n    function stake(uint256 amount) public registeredWatcher(_msgSender()) {\n        require(amount > 20, \"Your stake amount is not sufficient\");\n        // check for nextMonth\n        uint8 nextMonth = getCurrentMonth();\n        if (nextMonth > currentMonth) {\n            currentMonth = nextMonth;\n        }\n        tokenContract.transferFrom(_msgSender(), address(this), amount);\n        Stakes[_msgSender()][currentMonth] += amount;\n        emit watcherStakedForMonth(_msgSender(), currentMonth, amount);\n    }\n\n    /**\n     * To get total staked anount of a watcher\n     * @return total amount\n     *\n     **/\n    function getTotalStakeAmounts()\n        public\n        view\n        registeredWatcher(_msgSender())\n        returns (uint256)\n    {\n        mapping(uint8 => uint256) storage temp = Stakes[_msgSender()];\n        uint256 totakStakedAmount = 0;\n        for (uint8 i = 1; i <= 12; i++) {\n            totakStakedAmount += temp[i];\n        }\n        return totakStakedAmount;\n    }\n\n    /**\n     * To get total staked anount of a watcher in a particular month\n     * @param monthId month-id\n     * @return total amount\n     *\n     **/\n    function getStakedAmountInAMonth(uint8 monthId)\n        public\n        view\n        registeredWatcher(_msgSender())\n        returns (uint256)\n    {\n        mapping(uint8 => uint256) storage temp = Stakes[_msgSender()];\n        return temp[monthId];\n    }\n\n    /**\n     * To get current month\n     * @return current month\n     *\n     **/\n    function getCurrentMonth() public view returns (uint8) {\n        return uint8((startTime - block.timestamp) / 60 / 60 / 24 / 30) % 12;\n    }\n\n    function monthlyLossCalculation() public {\n        // aim to make it automatic on detect of month change\n        // right now owner of the contract can only do it\n        require(_msgSender() == owner, \"You are not authorised\");\n\n\n            mapping(uint24 => uint256[]) storage assessments\n         = groupAssessments[currentMonth];\n        uint256 group1LossTotal;\n        uint256 group2LossTotal;\n        uint256 group3LossTotal;\n\n        for (uint256 i = 0; i < assessments[1].length; i++) {\n            group1LossTotal += Assessments[assessments[1][i]].all;\n        }\n\n        for (uint256 i = 0; i < assessments[2].length; i++) {\n            group2LossTotal += Assessments[assessments[2][i]].all;\n        }\n\n        for (uint256 i = 0; i < assessments[3].length; i++) {\n            group3LossTotal += Assessments[assessments[3][i]].all;\n        }\n\n        group1Loss = group1LossTotal / assessments[1].length;\n        group2Loss = group2LossTotal / assessments[2].length;\n        group3Loss = group3LossTotal / assessments[3].length;\n\n        // check watchers data and reward/punish them remaining\n    }\n\n    //Calculate merit of member based on Avg monthly contribution\n    function calcMerit(address _member) private returns (uint256) {\n        uint256 totalMonth = (block.timestamp -\n            members[_member].onboardingDate) /\n            60 /\n            60 /\n            24 /\n            30;\n        uint256 merit = members[_member].contribution / (totalMonth + 1);\n        members[_member].merit = merit;\n        return merit;\n    }\n\n    //Calculate Compensation of partiucualr member & transfer to member account\n    function calcCompensation() public registeredEnabler(_msgSender()) {\n        //Below value will come from Watcher smart contract\n        for (uint256 i = 0; i < membersAddresses.length; i++) {\n            Member memory m = members[membersAddresses[i]];\n            uint256 lossPercent = 0;\n\n            if (m.groupId == 1) {\n                lossPercent = group1Loss;\n            } else if (m.groupId == 2) {\n                lossPercent = group2Loss;\n            } else if (m.groupId == 3) {\n                lossPercent = group3Loss;\n            }\n\n            uint256 memberMerit = calcMerit(membersAddresses[i]);\n            uint256 compAmount = (lossPercent * memberMerit * MTBF) / 100;\n            compensationAmount[currentMonth][membersAddresses[i]] = compAmount;\n        }\n\n        group1Loss = 0;\n        group2Loss = 0;\n        group3Loss = 0;\n    }\n\n    function payoutCompensation(uint256 otp)\n        public\n        registeredMember(_msgSender())\n    {\n        // OTP validation has to be done\n        require(\n            otpContract.verifyOTP(otp, _msgSender()),\n            \"OTP is either expired or wrong\"\n        );\n        require(\n            compensationAmount[currentMonth][_msgSender()] <= pot,\n            \"Not enough amount in pot\"\n        );\n        uint256 amount = compensationAmount[currentMonth][_msgSender()];\n        compensationAmount[currentMonth][_msgSender()] = 0;\n        pot -= amount;\n        tokenContract._burn(address(this), amount);\n        emit CompensationTransfer(_msgSender(), amount);\n    }\n\n    function prePayoutVerification() public registeredMember(_msgSender()) {\n        otpContract.generateOTP(\n            block.timestamp,\n            compensationAmount[currentMonth][_msgSender()],\n            \"compensation\",\n            _msgSender(),\n            members[_msgSender()].mobileNo\n        );\n    }\n\n    function getTrustedForwarder() public override view returns (address) {\n        return trustedForwarder;\n    }\n}\n",
  "sourcePath": "/home/kuldeep/ETHEREUM/MachuPichu/hackathon/contracts/MachuPicchu.sol",
  "compiler": {
    "name": "solc",
    "version": "0.6.12+commit.27d51765.Emscripten.clang"
  },
  "schemaVersion": "3.2.5",
  "updatedAt": "2020-10-17T13:21:12.957Z",
  "networkType": "ethereum",
  "devdoc": {
    "kind": "dev",
    "methods": {
      "doAssessmentForAGroup(uint24,uint8)": {
        "params": {
          "_all": "The final result by watcher  Before calling this, check if assessment done by this watcher for this group already*",
          "groupId": "Groupid alloted in User contract"
        }
      },
      "getAssessmentDetail(uint256)": {
        "params": {
          "_id": "assessment-id"
        },
        "returns": {
          "_0": "Assessment struct*"
        }
      },
      "getAssessmentsDoneByAWatcher(uint8)": {
        "params": {
          "monthId": "month-id"
        },
        "returns": {
          "_0": "array of assessment ids*"
        }
      },
      "getAssessmentsOfAGroup(uint8,uint24)": {
        "params": {
          "groupId": "group-id",
          "monthId": "month-id"
        },
        "returns": {
          "_0": "array of assessment ids*"
        }
      },
      "getCurrentMonth()": {
        "returns": {
          "_0": "current month*"
        }
      },
      "getStakedAmountInAMonth(uint8)": {
        "params": {
          "monthId": "month-id"
        },
        "returns": {
          "_0": "total amount*"
        }
      },
      "getTotalStakeAmounts()": {
        "returns": {
          "_0": "total amount*"
        }
      }
    },
    "version": 1
  },
  "userdoc": {
    "kind": "user",
    "methods": {
      "doAssessmentForAGroup(uint24,uint8)": {
        "notice": "To perform Assessment by a watcher for a particular group(group of fields) for the current month"
      },
      "getAssessmentDetail(uint256)": {
        "notice": "To get detail of a particular assessment"
      },
      "getAssessmentsDoneByAWatcher(uint8)": {
        "notice": "To get assessment of a watcher of a particular month"
      },
      "getAssessmentsOfAGroup(uint8,uint24)": {
        "notice": "To get assessment of a group of a particular month"
      },
      "getCurrentMonth()": {
        "notice": "To get current month"
      },
      "getStakedAmountInAMonth(uint8)": {
        "notice": "To get total staked anount of a watcher in a particular month"
      },
      "getTotalStakeAmounts()": {
        "notice": "To get total staked anount of a watcher"
      },
      "getTrustedForwarder()": {
        "notice": "return the forwarder we trust to forward relayed transactions to us. the forwarder is required to verify the sender's signature, and verify the call is not a replay."
      },
      "isTrustedForwarder(address)": {
        "notice": "return if the forwarder is trusted to forward relayed transactions to us. the forwarder is required to verify the sender's signature, and verify the call is not a replay."
      },
      "stake(uint256)": {
        "notice": "To stake/increment in stake for the currentMonth by a watcher*"
      }
    },
    "version": 1
  }
}