{
  "contractName": "OTPGeneratorAndVerifier",
  "abi": [
    {
      "inputs": [
        {
          "internalType": "address",
          "name": "_sendotp",
          "type": "address"
        }
      ],
      "stateMutability": "nonpayable",
      "type": "constructor"
    },
    {
      "inputs": [
        {
          "internalType": "bytes32",
          "name": "",
          "type": "bytes32"
        }
      ],
      "name": "OTPRequests",
      "outputs": [
        {
          "internalType": "uint256",
          "name": "amount",
          "type": "uint256"
        },
        {
          "internalType": "string",
          "name": "action",
          "type": "string"
        },
        {
          "internalType": "address",
          "name": "userAddress",
          "type": "address"
        },
        {
          "internalType": "string",
          "name": "to",
          "type": "string"
        }
      ],
      "stateMutability": "view",
      "type": "function",
      "constant": true
    },
    {
      "inputs": [
        {
          "internalType": "address",
          "name": "",
          "type": "address"
        }
      ],
      "name": "OTPs",
      "outputs": [
        {
          "internalType": "bytes32",
          "name": "otpHash",
          "type": "bytes32"
        },
        {
          "internalType": "uint256",
          "name": "time",
          "type": "uint256"
        },
        {
          "internalType": "bool",
          "name": "used",
          "type": "bool"
        }
      ],
      "stateMutability": "view",
      "type": "function",
      "constant": true
    },
    {
      "inputs": [
        {
          "internalType": "bytes32",
          "name": "",
          "type": "bytes32"
        }
      ],
      "name": "nonces",
      "outputs": [
        {
          "internalType": "uint256",
          "name": "",
          "type": "uint256"
        }
      ],
      "stateMutability": "view",
      "type": "function",
      "constant": true
    },
    {
      "inputs": [],
      "name": "randomResult",
      "outputs": [
        {
          "internalType": "uint256",
          "name": "",
          "type": "uint256"
        }
      ],
      "stateMutability": "view",
      "type": "function",
      "constant": true
    },
    {
      "inputs": [
        {
          "internalType": "bytes32",
          "name": "requestId",
          "type": "bytes32"
        },
        {
          "internalType": "uint256",
          "name": "randomness",
          "type": "uint256"
        }
      ],
      "name": "rawFulfillRandomness",
      "outputs": [],
      "stateMutability": "nonpayable",
      "type": "function"
    },
    {
      "inputs": [
        {
          "internalType": "bytes32",
          "name": "_keyHash",
          "type": "bytes32"
        },
        {
          "internalType": "uint256",
          "name": "_fee",
          "type": "uint256"
        },
        {
          "internalType": "uint256",
          "name": "_seed",
          "type": "uint256"
        }
      ],
      "name": "requestRandomness",
      "outputs": [
        {
          "internalType": "bytes32",
          "name": "requestId",
          "type": "bytes32"
        }
      ],
      "stateMutability": "nonpayable",
      "type": "function"
    },
    {
      "inputs": [
        {
          "internalType": "uint256",
          "name": "userProvidedSeed",
          "type": "uint256"
        },
        {
          "internalType": "uint256",
          "name": "_amount",
          "type": "uint256"
        },
        {
          "internalType": "string",
          "name": "_action",
          "type": "string"
        },
        {
          "internalType": "address",
          "name": "_addr",
          "type": "address"
        },
        {
          "internalType": "string",
          "name": "_to",
          "type": "string"
        }
      ],
      "name": "generateOTP",
      "outputs": [
        {
          "internalType": "bytes32",
          "name": "requestId",
          "type": "bytes32"
        }
      ],
      "stateMutability": "nonpayable",
      "type": "function"
    },
    {
      "inputs": [
        {
          "internalType": "uint256",
          "name": "_otp",
          "type": "uint256"
        },
        {
          "internalType": "address",
          "name": "_addr",
          "type": "address"
        }
      ],
      "name": "verifyOTP",
      "outputs": [
        {
          "internalType": "bool",
          "name": "",
          "type": "bool"
        }
      ],
      "stateMutability": "nonpayable",
      "type": "function"
    }
  ],
  "bytecode": "0x60c060405234801561001057600080fd5b5060405161159a38038061159a8339818101604052602081101561003357600080fd5b810190808051906020019092919050505073dd3782915140c8f3b190b5d67eac6dc5760c46e973a36085f69e2889c224210f603d836748e7dc00888173ffffffffffffffffffffffffffffffffffffffff1660a08173ffffffffffffffffffffffffffffffffffffffff1660601b815250508073ffffffffffffffffffffffffffffffffffffffff1660808173ffffffffffffffffffffffffffffffffffffffff1660601b8152505050507f6c3699283bda56ad74f6b855546325b68d482e983852a7a82979cc4807b641f460001b60018190555067016345785d8a000060028190555080600460006101000a81548173ffffffffffffffffffffffffffffffffffffffff021916908373ffffffffffffffffffffffffffffffffffffffff1602179055505060805160601c60a05160601c61140e61018c600039806107835280610b3f52508061086f5280610b03525061140e6000f3fe608060405234801561001057600080fd5b50600436106100885760003560e01c80639e317f121161005b5780639e317f12146101af578063c7f06313146101f1578063dc6cfe101461038b578063fb44ca43146103e157610088565b8063154af6a51461008d57806342619f66146100f5578063524c027a1461011357806394985ddd14610177575b600080fd5b6100cf600480360360208110156100a357600080fd5b81019080803573ffffffffffffffffffffffffffffffffffffffff169060200190929190505050610518565b604051808481526020018381526020018215158152602001935050505060405180910390f35b6100fd61054f565b6040518082815260200191505060405180910390f35b61015f6004803603604081101561012957600080fd5b8101908080359060200190929190803573ffffffffffffffffffffffffffffffffffffffff169060200190929190505050610555565b60405180821515815260200191505060405180910390f35b6101ad6004803603604081101561018d57600080fd5b810190808035906020019092919080359060200190929190505050610781565b005b6101db600480360360208110156101c557600080fd5b8101908080359060200190929190505050610850565b6040518082815260200191505060405180910390f35b610375600480360360a081101561020757600080fd5b8101908080359060200190929190803590602001909291908035906020019064010000000081111561023857600080fd5b82018360208201111561024a57600080fd5b8035906020019184600183028401116401000000008311171561026c57600080fd5b91908080601f016020809104026020016040519081016040528093929190818152602001838380828437600081840152601f19601f820116905080830192505050505050509192919290803573ffffffffffffffffffffffffffffffffffffffff169060200190929190803590602001906401000000008111156102ef57600080fd5b82018360208201111561030157600080fd5b8035906020019184600183028401116401000000008311171561032357600080fd5b91908080601f016020809104026020016040519081016040528093929190818152602001838380828437600081840152601f19601f820116905080830192505050505050509192919290505050610868565b6040518082815260200191505060405180910390f35b6103cb600480360360608110156103a157600080fd5b81019080803590602001909291908035906020019092919080359060200190929190505050610aff565b6040518082815260200191505060405180910390f35b61040d600480360360208110156103f757600080fd5b8101908080359060200190929190505050610cf4565b60405180858152602001806020018473ffffffffffffffffffffffffffffffffffffffff16815260200180602001838103835286818151815260200191508051906020019080838360005b83811015610473578082015181840152602081019050610458565b50505050905090810190601f1680156104a05780820380516001836020036101000a031916815260200191505b50838103825284818151815260200191508051906020019080838360005b838110156104d95780820151818401526020810190506104be565b50505050905090810190601f1680156105065780820380516001836020036101000a031916815260200191505b50965050505050505060405180910390f35b60066020528060005260406000206000915090508060000154908060010154908060020160009054906101000a900460ff16905083565b60035481565b600080600660008473ffffffffffffffffffffffffffffffffffffffff1673ffffffffffffffffffffffffffffffffffffffff1681526020019081526020016000209050600081600101541415610614576040517f08c379a00000000000000000000000000000000000000000000000000000000081526004018080602001828103825260198152602001807f4f5450206e6f742067656e65726174656420666f7220796f750000000000000081525060200191505060405180910390fd5b600015158160020160009054906101000a900460ff1615151461069f576040517f08c379a00000000000000000000000000000000000000000000000000000000081526004018080602001828103825260108152602001807f4f5450207573656420616c72656164790000000000000000000000000000000081525060200191505060405180910390fd5b426078826001015401101561071c576040517f08c379a000000000000000000000000000000000000000000000000000000000815260040180806020018281038252600e8152602001807f4f5450206973206578706972656400000000000000000000000000000000000081525060200191505060405180910390fd5b836040516020018082815260200191505060405160208183030381529060405280519060200120816000015414156107755760018160020160006101000a81548160ff021916908315150217905550600191505061077b565b60009150505b92915050565b7f000000000000000000000000000000000000000000000000000000000000000073ffffffffffffffffffffffffffffffffffffffff163373ffffffffffffffffffffffffffffffffffffffff1614610842576040517f08c379a000000000000000000000000000000000000000000000000000000000815260040180806020018281038252601f8152602001807f4f6e6c7920565246436f6f7264696e61746f722063616e2066756c66696c6c0081525060200191505060405180910390fd5b61084c8282610e74565b5050565b60006020528060005260406000206000915090505481565b60006002547f000000000000000000000000000000000000000000000000000000000000000073ffffffffffffffffffffffffffffffffffffffff166370a08231306040518263ffffffff1660e01b8152600401808273ffffffffffffffffffffffffffffffffffffffff16815260200191505060206040518083038186803b1580156108f457600080fd5b505afa158015610908573d6000803e3d6000fd5b505050506040513d602081101561091e57600080fd5b810190808051906020019092919050505011610985576040517f08c379a000000000000000000000000000000000000000000000000000000000815260040180806020018281038252602b8152602001806113ae602b913960400191505060405180910390fd5b600085116109fb576040517f08c379a000000000000000000000000000000000000000000000000000000000815260040180806020018281038252600a8152602001807f416d6f756e74203e20300000000000000000000000000000000000000000000081525060200191505060405180910390fd5b6000610a0c60015460025489610aff565b9050610a166112ac565b60405180608001604052808881526020018781526020018673ffffffffffffffffffffffffffffffffffffffff1681526020018581525090508060056000848152602001908152602001600020600082015181600001556020820151816001019080519060200190610a899291906112ea565b5060408201518160020160006101000a81548173ffffffffffffffffffffffffffffffffffffffff021916908373ffffffffffffffffffffffffffffffffffffffff1602179055506060820151816003019080519060200190610aed9291906112ea565b50905050819250505095945050505050565b60007f000000000000000000000000000000000000000000000000000000000000000073ffffffffffffffffffffffffffffffffffffffff16634000aea07f000000000000000000000000000000000000000000000000000000000000000085878660405160200180838152602001828152602001925050506040516020818303038152906040526040518463ffffffff1660e01b8152600401808473ffffffffffffffffffffffffffffffffffffffff16815260200183815260200180602001828103825283818151815260200191508051906020019080838360005b83811015610bf8578082015181840152602081019050610bdd565b50505050905090810190601f168015610c255780820380516001836020036101000a031916815260200191505b50945050505050602060405180830381600087803b158015610c4657600080fd5b505af1158015610c5a573d6000803e3d6000fd5b505050506040513d6020811015610c7057600080fd5b8101908080519060200190929190505050506000610ca28584306000808a815260200190815260200160002054611187565b9050610cca6001600080888152602001908152602001600020546111eb90919063ffffffff16565b60008087815260200190815260200160002081905550610cea8582611273565b9150509392505050565b6005602052806000526040600020600091509050806000015490806001018054600181600116156101000203166002900480601f016020809104026020016040519081016040528092919081815260200182805460018160011615610100020316600290048015610da65780601f10610d7b57610100808354040283529160200191610da6565b820191906000526020600020905b815481529060010190602001808311610d8957829003601f168201915b5050505050908060020160009054906101000a900473ffffffffffffffffffffffffffffffffffffffff1690806003018054600181600116156101000203166002900480601f016020809104026020016040519081016040528092919081815260200182805460018160011615610100020316600290048015610e6a5780601f10610e3f57610100808354040283529160200191610e6a565b820191906000526020600020905b815481529060010190602001808311610e4d57829003601f168201915b5050505050905084565b6000600560008481526020019081526020016000209050610e9361136a565b6040518060600160405280620f423f8581610eaa57fe5b066040516020018082815260200191505060405160208183030381529060405280519060200120815260200142815260200160001515815250905080600660008460020160009054906101000a900473ffffffffffffffffffffffffffffffffffffffff1673ffffffffffffffffffffffffffffffffffffffff1673ffffffffffffffffffffffffffffffffffffffff168152602001908152602001600020600082015181600001556020820151816001015560408201518160020160006101000a81548160ff021916908315150217905550905050600460009054906101000a900473ffffffffffffffffffffffffffffffffffffffff1673ffffffffffffffffffffffffffffffffffffffff1663c73af3f98360000154846001018560020160009054906101000a900473ffffffffffffffffffffffffffffffffffffffff1686600301620f423f8981610ffc57fe5b066040518663ffffffff1660e01b815260040180868152602001806020018573ffffffffffffffffffffffffffffffffffffffff168152602001806020018481526020018381038352878181546001816001161561010002031660029004815260200191508054600181600116156101000203166002900480156110c15780601f10611096576101008083540402835291602001916110c1565b820191906000526020600020905b8154815290600101906020018083116110a457829003601f168201915b50508381038252858181546001816001161561010002031660029004815260200191508054600181600116156101000203166002900480156111445780601f1061111957610100808354040283529160200191611144565b820191906000526020600020905b81548152906001019060200180831161112757829003601f168201915b5050975050505050505050600060405180830381600087803b15801561116957600080fd5b505af115801561117d573d6000803e3d6000fd5b5050505050505050565b600084848484604051602001808581526020018481526020018373ffffffffffffffffffffffffffffffffffffffff1681526020018281526020019450505050506040516020818303038152906040528051906020012060001c9050949350505050565b600080828401905083811015611269576040517f08c379a000000000000000000000000000000000000000000000000000000000815260040180806020018281038252601b8152602001807f536166654d6174683a206164646974696f6e206f766572666c6f77000000000081525060200191505060405180910390fd5b8091505092915050565b60008282604051602001808381526020018281526020019250505060405160208183030381529060405280519060200120905092915050565b60405180608001604052806000815260200160608152602001600073ffffffffffffffffffffffffffffffffffffffff168152602001606081525090565b828054600181600116156101000203166002900490600052602060002090601f016020900481019282601f1061132b57805160ff1916838001178555611359565b82800160010185558215611359579182015b8281111561135857825182559160200191906001019061133d565b5b5090506113669190611390565b5090565b604051806060016040528060008019168152602001600081526020016000151581525090565b5b808211156113a9576000816000905550600101611391565b509056fe4e6f7420656e6f756768204c494e4b202d2066696c6c20636f6e7472616374207769746820666175636574a26469706673582212203e6ae01101369f34109a9311816edf980bd983533bd6f5f68cc977c7f807a09964736f6c634300060c0033",
  "immutableReferences": {
    "3968": [
      {
        "length": 32,
        "start": 2159
      },
      {
        "length": 32,
        "start": 2819
      }
    ],
    "3970": [
      {
        "length": 32,
        "start": 1923
      },
      {
        "length": 32,
        "start": 2879
      }
    ]
  },
  "source": "/** This example code is designed to quickly deploy an example contract using Remix.\n *  If you have never used Remix, try our example walkthrough: https://docs.chain.link/docs/example-walkthrough\n *  You will need testnet ETH and LINK.\n *     - Kovan ETH faucet: https://faucet.kovan.network/\n *     - Kovan LINK faucet: https://kovan.chain.link/\n */\n\npragma solidity >0.6.0 <=0.7.1;\n\nimport \"@chainlink/contracts/src/v0.6/VRFConsumerBase.sol\";\nimport {SendOTP} from \"./SendOTP.sol\";\n\ncontract OTPGeneratorAndVerifier is VRFConsumerBase {\n    bytes32 internal keyHash;\n    uint256 internal fee;\n\n    uint256 public randomResult;\n    SendOTP sendotp;\n\n    struct OTPRequest {\n        uint256 amount;\n        string action;\n        address userAddress;\n        string to;\n    }\n\n    struct OTP {\n        bytes32 otpHash;\n        uint256 time;\n        bool used;\n    }\n\n    mapping(bytes32 => OTPRequest) public OTPRequests;\n    mapping(address => OTP) public OTPs;\n\n    /**\n     * Constructor inherits VRFConsumerBase\n     *\n     * Network: Kovan\n     * Chainlink VRF Coordinator address: 0xdD3782915140c8f3b190B5D67eAc6dc5760C46E9\n     * LINK token address:                0xa36085F69e2889c224210F603D836748e7dC0088\n     * Key Hash: 0x6c3699283bda56ad74f6b855546325b68d482e983852a7a82979cc4807b641f4\n     */\n    constructor(address _sendotp)\n        public\n        VRFConsumerBase(\n            0xdD3782915140c8f3b190B5D67eAc6dc5760C46E9, // VRF Coordinator\n            0xa36085F69e2889c224210F603D836748e7dC0088 // LINK Token\n        )\n    {\n        keyHash = 0x6c3699283bda56ad74f6b855546325b68d482e983852a7a82979cc4807b641f4;\n        fee = 0.1 * 10**18; // 0.1 LINK\n        sendotp = SendOTP(_sendotp);\n    }\n\n    /**\n     * Requests randomness from a user-provided seed\n     */\n    function generateOTP(\n        uint256 userProvidedSeed,\n        uint256 _amount,\n        string memory _action,\n        address _addr,\n        string memory _to\n    ) public returns (bytes32 requestId) {\n        require(\n            LINK.balanceOf(address(this)) > fee,\n            \"Not enough LINK - fill contract with faucet\"\n        );\n        require(_amount > 0, \"Amount > 0\");\n        bytes32 r = requestRandomness(keyHash, fee, userProvidedSeed);\n        OTPRequest memory temp = OTPRequest({\n            amount: _amount,\n            action: _action,\n            userAddress: _addr,\n            to: _to\n        });\n        OTPRequests[r] = temp;\n        return r;\n    }\n\n    /**\n     * Callback function used by VRF Coordinator\n     */\n    function fulfillRandomness(bytes32 requestId, uint256 randomness)\n        internal\n        override\n    {\n        OTPRequest storage o = OTPRequests[requestId];\n        OTP memory temp = OTP({\n            otpHash: (keccak256(abi.encodePacked(randomness % 999999))),\n            time: block.timestamp,\n            used: false\n        });\n\n        OTPs[o.userAddress] = temp;\n        sendotp.sendOTP(\n            o.amount,\n            o.action,\n            o.userAddress,\n            o.to,\n            randomness % 999999\n        );\n    }\n\n    function verifyOTP(uint256 _otp, address _addr) public returns (bool) {\n        OTP storage o = OTPs[_addr];\n        require(o.time != 0, \"OTP not generated for you\");\n        require(o.used == false, \"OTP used already\");\n        require(o.time + 120 >= block.timestamp, \"OTP is expired\");\n\n        if (o.otpHash == keccak256(abi.encodePacked(_otp))) {\n            o.used = true;\n            return true;\n        }\n        return false;\n    }\n}\n",
  "sourcePath": "/home/kuldeep/ETHEREUM/MachuPichu/hackathon/contracts/otp/OTPGeneratorAndVerifier.sol",
  "compiler": {
    "name": "solc",
    "version": "0.6.12+commit.27d51765.Emscripten.clang"
  },
  "schemaVersion": "3.2.5",
  "updatedAt": "2020-10-15T15:07:34.222Z",
  "networkType": "ethereum",
  "devdoc": {
    "kind": "dev",
    "methods": {
      "requestRandomness(bytes32,uint256,uint256)": {
        "details": "See \"SECURITY CONSIDERATIONS\" above for more information on _seed.The fulfillRandomness method receives the output, once it's providedby the Oracle, and verified by the vrfCoordinator.The _keyHash must already be registered with the VRFCoordinator, andthe _fee must exceed the fee specified during registration of the_keyHash.The returned requestId can be used to distinguish responses to *concurrent requests. It is passed as the first argument tofulfillRandomness.",
        "params": {
          "_fee": "The amount of LINK to send with the request",
          "_keyHash": "ID of public key against which randomness is generated",
          "_seed": "seed mixed into the input of the VRF"
        },
        "returns": {
          "requestId": "unique ID for this request"
        }
      }
    },
    "version": 1
  },
  "userdoc": {
    "kind": "user",
    "methods": {
      "constructor": "Constructor inherits VRFConsumerBase Network: Kovan Chainlink VRF Coordinator address: 0xdD3782915140c8f3b190B5D67eAc6dc5760C46E9 LINK token address:                0xa36085F69e2889c224210F603D836748e7dC0088 Key Hash: 0x6c3699283bda56ad74f6b855546325b68d482e983852a7a82979cc4807b641f4",
      "generateOTP(uint256,uint256,string,address,string)": {
        "notice": "Requests randomness from a user-provided seed"
      },
      "requestRandomness(bytes32,uint256,uint256)": {
        "notice": "requestRandomness initiates a request for VRF output given _seed"
      }
    },
    "version": 1
  }
}