{
  "contractName": "SendOTP",
  "abi": [
    {
      "inputs": [],
      "stateMutability": "nonpayable",
      "type": "constructor"
    },
    {
      "anonymous": false,
      "inputs": [
        {
          "indexed": true,
          "internalType": "bytes32",
          "name": "id",
          "type": "bytes32"
        }
      ],
      "name": "ChainlinkCancelled",
      "type": "event"
    },
    {
      "anonymous": false,
      "inputs": [
        {
          "indexed": true,
          "internalType": "bytes32",
          "name": "id",
          "type": "bytes32"
        }
      ],
      "name": "ChainlinkFulfilled",
      "type": "event"
    },
    {
      "anonymous": false,
      "inputs": [
        {
          "indexed": true,
          "internalType": "bytes32",
          "name": "id",
          "type": "bytes32"
        }
      ],
      "name": "ChainlinkRequested",
      "type": "event"
    },
    {
      "inputs": [],
      "name": "tslaPrice",
      "outputs": [
        {
          "internalType": "uint256",
          "name": "",
          "type": "uint256"
        }
      ],
      "stateMutability": "view",
      "type": "function",
      "constant": true
    },
    {
      "inputs": [
        {
          "internalType": "uint256",
          "name": "_amount",
          "type": "uint256"
        },
        {
          "internalType": "string",
          "name": "_action",
          "type": "string"
        },
        {
          "internalType": "address",
          "name": "_addr",
          "type": "address"
        },
        {
          "internalType": "string",
          "name": "_to",
          "type": "string"
        },
        {
          "internalType": "uint256",
          "name": "_otp",
          "type": "uint256"
        }
      ],
      "name": "sendOTP",
      "outputs": [],
      "stateMutability": "nonpayable",
      "type": "function"
    },
    {
      "inputs": [
        {
          "internalType": "bytes32",
          "name": "_requestId",
          "type": "bytes32"
        },
        {
          "internalType": "uint256",
          "name": "_price",
          "type": "uint256"
        }
      ],
      "name": "recieveResponse",
      "outputs": [],
      "stateMutability": "nonpayable",
      "type": "function"
    }
  ],
  "bytecode": "0x6080604052600160045534801561001557600080fd5b506100246100b360201b60201c565b73cb65e9b36eb788ab0f94f06fb3906ecfaf4e055a600660006101000a81548173ffffffffffffffffffffffffffffffffffffffff021916908373ffffffffffffffffffffffffffffffffffffffff1602179055507f653033343764366135316136346231616266376662626461396633346131626460078190555066b1a2bc2ec5000060088190555061019c565b61015673c89bd4e1632d3a43cb03aaad5262cbe4038bc57173ffffffffffffffffffffffffffffffffffffffff166338cc48316040518163ffffffff1660e01b815260040160206040518083038186803b15801561011057600080fd5b505afa158015610124573d6000803e3d6000fd5b505050506040513d602081101561013a57600080fd5b810190808051906020019092919050505061015860201b60201c565b565b80600260006101000a81548173ffffffffffffffffffffffffffffffffffffffff021916908373ffffffffffffffffffffffffffffffffffffffff16021790555050565b61142e806101ab6000396000f3fe608060405234801561001057600080fd5b50600436106100415760003560e01c80636822285a14610046578063c73af3f91461007e578063feaf051314610204575b600080fd5b61007c6004803603604081101561005c57600080fd5b810190808035906020019092919080359060200190929190505050610222565b005b610202600480360360a081101561009457600080fd5b8101908080359060200190929190803590602001906401000000008111156100bb57600080fd5b8201836020820111156100cd57600080fd5b803590602001918460018302840111640100000000831117156100ef57600080fd5b91908080601f016020809104026020016040519081016040528093929190818152602001838380828437600081840152601f19601f820116905080830192505050505050509192919290803573ffffffffffffffffffffffffffffffffffffffff1690602001909291908035906020019064010000000081111561017257600080fd5b82018360208201111561018457600080fd5b803590602001918460018302840111640100000000831117156101a657600080fd5b91908080601f016020809104026020016040519081016040528093929190818152602001838380828437600081840152601f19601f82011690508083019250505050505050919291929080359060200190929190505050610349565b005b61020c610613565b6040518082815260200191505060405180910390f35b816005600082815260200190815260200160002060009054906101000a900473ffffffffffffffffffffffffffffffffffffffff1673ffffffffffffffffffffffffffffffffffffffff163373ffffffffffffffffffffffffffffffffffffffff16146102da576040517f08c379a00000000000000000000000000000000000000000000000000000000081526004018080602001828103825260288152602001806113d16028913960400191505060405180910390fd5b6005600082815260200190815260200160002060006101000a81549073ffffffffffffffffffffffffffffffffffffffff0219169055807f7cc135e0cebb02c3480ae5d74d377283180a2601f8f644edf7987b009316c63a60405160405180910390a281600981905550505050565b610351611326565b61036560075430636822285a60e01b610619565b90506103b96040518060400160405280600681526020017f6d656d62657200000000000000000000000000000000000000000000000000008152506103a98661064a565b8361083f9092919063ffffffff16565b61040b6040518060400160405280600681526020017f616d6f756e7400000000000000000000000000000000000000000000000000008152506103fb88610872565b8361083f9092919063ffffffff16565b61045d6040518060400160405280600381526020017f6f7470000000000000000000000000000000000000000000000000000000000081525061044d84610872565b8361083f9092919063ffffffff16565b6104a76040518060400160405280600681526020017f616374696f6e0000000000000000000000000000000000000000000000000000815250868361083f9092919063ffffffff16565b6104f16040518060400160405280600281526020017f746f000000000000000000000000000000000000000000000000000000000000815250848361083f9092919063ffffffff16565b6060600167ffffffffffffffff8111801561050b57600080fd5b5060405190808252806020026020018201604052801561053f57816020015b606081526020019060019003908161052a5790505b5090506040518060400160405280600681526020017f726573756c7400000000000000000000000000000000000000000000000000008152508160008151811061058557fe5b60200260200101819052506105da6040518060400160405280600881526020017f636f70795061746800000000000000000000000000000000000000000000000081525082846109b69092919063ffffffff16565b610609600660009054906101000a900473ffffffffffffffffffffffffffffffffffffffff1683600854610a30565b5050505050505050565b60095481565b610621611326565b610629611326565b61064085858584610cb9909392919063ffffffff16565b9150509392505050565b606080602867ffffffffffffffff8111801561066557600080fd5b506040519080825280601f01601f1916602001820160405280156106985781602001600182028036833780820191505090505b50905060005b60148110156107a35760008160130360080260020a8573ffffffffffffffffffffffffffffffffffffffff16816106d157fe5b0460f81b9050600060108260f81c60ff16816106e957fe5b0460f81b905060008160f81c6010028360f81c0360f81b905061070b82610d69565b85856002028151811061071a57fe5b60200101907effffffffffffffffffffffffffffffffffffffffffffffffffffffffffffff1916908160001a90535061075281610d69565b85600186600202018151811061076457fe5b60200101907effffffffffffffffffffffffffffffffffffffffffffffffffffffffffffff1916908160001a905350505050808060010191505061069e565b508060405160200180807f307800000000000000000000000000000000000000000000000000000000000081525060020182805190602001908083835b6020831061080357805182526020820191506020810190506020830392506107e0565b6001836020036101000a038019825116818451168082178552505050505050905001915050604051602081830303815290604052915050919050565b610856828460800151610d9d90919063ffffffff16565b61086d818460800151610d9d90919063ffffffff16565b505050565b606060008214156108ba576040518060400160405280600181526020017f300000000000000000000000000000000000000000000000000000000000000081525090506109b1565b600082905060005b600082146108e4578080600101915050600a82816108dc57fe5b0491506108c2565b60608167ffffffffffffffff811180156108fd57600080fd5b506040519080825280601f01601f1916602001820160405280156109305781602001600182028036833780820191505090505b50905060006001830390505b600086146109a957600a868161094e57fe5b0660300160f81b8282806001900393508151811061096857fe5b60200101907effffffffffffffffffffffffffffffffffffffffffffffffffffffffffffff1916908160001a905350600a86816109a157fe5b04955061093c565b819450505050505b919050565b6109cd828460800151610d9d90919063ffffffff16565b6109da8360800151610dc2565b60005b8151811015610a1d57610a108282815181106109f557fe5b60200260200101518560800151610d9d90919063ffffffff16565b80806001019150506109dd565b50610a2b8360800151610dd0565b505050565b600030600454604051602001808373ffffffffffffffffffffffffffffffffffffffff1660601b815260140182815260200192505050604051602081830303815290604052805190602001209050600454836060018181525050836005600083815260200190815260200160002060006101000a81548173ffffffffffffffffffffffffffffffffffffffff021916908373ffffffffffffffffffffffffffffffffffffffff160217905550807fb5e6e01e79f91267dc17b4e6314d5d4d03593d2ceee0fbb452b750bd70ea5af960405160405180910390a2600260009054906101000a900473ffffffffffffffffffffffffffffffffffffffff1673ffffffffffffffffffffffffffffffffffffffff16634000aea08584610b5287610dde565b6040518463ffffffff1660e01b8152600401808473ffffffffffffffffffffffffffffffffffffffff16815260200183815260200180602001828103825283818151815260200191508051906020019080838360005b83811015610bc3578082015181840152602081019050610ba8565b50505050905090810190601f168015610bf05780820380516001836020036101000a031916815260200191505b50945050505050602060405180830381600087803b158015610c1157600080fd5b505af1158015610c25573d6000803e3d6000fd5b505050506040513d6020811015610c3b57600080fd5b8101908080519060200190929190505050610ca1576040517f08c379a00000000000000000000000000000000000000000000000000000000081526004018080602001828103825260238152602001806113ae6023913960400191505060405180910390fd5b60016004600082825401925050819055509392505050565b610cc1611326565b610cd18560800151610100610f5f565b508385600001818152505082856020019073ffffffffffffffffffffffffffffffffffffffff16908173ffffffffffffffffffffffffffffffffffffffff16815250508185604001907bffffffffffffffffffffffffffffffffffffffffffffffffffffffff191690817bffffffffffffffffffffffffffffffffffffffffffffffffffffffff191681525050849050949350505050565b6000600a8260f81c60ff161015610d8b5760308260f81c0160f81b9050610d98565b60578260f81c0160f81b90505b919050565b610daa8260038351610fb3565b610dbd81836110f890919063ffffffff16565b505050565b610dcd81600461111a565b50565b610ddb81600761111a565b50565b6060634042994660e01b60008084600001518560200151866040015187606001516001896080015160000151604051602401808973ffffffffffffffffffffffffffffffffffffffff1681526020018881526020018781526020018673ffffffffffffffffffffffffffffffffffffffff168152602001857bffffffffffffffffffffffffffffffffffffffffffffffffffffffff1916815260200184815260200183815260200180602001828103825283818151815260200191508051906020019080838360005b83811015610ec2578082015181840152602081019050610ea7565b50505050905090810190601f168015610eef5780820380516001836020036101000a031916815260200191505b509950505050505050505050604051602081830303815290604052907bffffffffffffffffffffffffffffffffffffffffffffffffffffffff19166020820180517bffffffffffffffffffffffffffffffffffffffffffffffffffffffff83818316178352505050509050919050565b610f67611393565b600060208381610f7357fe5b0614610f8c5760208281610f8357fe5b06602003820191505b81836020018181525050604051808452600081528281016020016040525082905092915050565b60178111610fe057610fda8160058460ff16901b60ff16178461113c90919063ffffffff16565b506110f3565b60ff811161102257611005601860058460ff16901b178461113c90919063ffffffff16565b5061101c8160018561115c9092919063ffffffff16565b506110f2565b61ffff811161106557611048601960058460ff16901b178461113c90919063ffffffff16565b5061105f8160028561115c9092919063ffffffff16565b506110f1565b63ffffffff81116110aa5761108d601a60058460ff16901b178461113c90919063ffffffff16565b506110a48160048561115c9092919063ffffffff16565b506110f0565b67ffffffffffffffff81116110ef576110d6601b60058460ff16901b178461113c90919063ffffffff16565b506110ed8160088561115c9092919063ffffffff16565b505b5b5b5b5b505050565b611100611393565b6111128384600001515184855161117e565b905092915050565b611137601f60058360ff16901b178361113c90919063ffffffff16565b505050565b611144611393565b6111548384600001515184611237565b905092915050565b611164611393565b611175848560000151518585611285565b90509392505050565b611186611393565b825182111561119457600080fd5b846020015182850111156111bf576111be8560026111b888602001518887016112e6565b02611302565b5b6000808651805187602083010193508088870111156111de5787860182525b60208701925050505b6020841061120a57805182526020820191506020810190506020840393506111e7565b60006001856020036101000a03905080198251168184511681811785525050879350505050949350505050565b61123f611393565b8360200151831061125c5761125b846002866020015102611302565b5b8351805160208583010184815381861415611278576001820183525b5050508390509392505050565b61128d611393565b846020015184830111156112ab576112aa85600286850102611302565b5b60006001836101000a03905085518386820101858319825116178152815185880111156112d85784870182525b505085915050949350505050565b6000818311156112f8578290506112fc565b8190505b92915050565b6060826000015190506113158383610f5f565b5061132083826110f8565b50505050565b6040518060a0016040528060008019168152602001600073ffffffffffffffffffffffffffffffffffffffff16815260200160007bffffffffffffffffffffffffffffffffffffffffffffffffffffffff191681526020016000815260200161138d611393565b81525090565b60405180604001604052806060815260200160008152509056fe756e61626c6520746f207472616e73666572416e6443616c6c20746f206f7261636c65536f75726365206d75737420626520746865206f7261636c65206f66207468652072657175657374a264697066735822122093b21dddae79bda9e810ceffe740330a5fe4de2d081755343534622bd48a825164736f6c634300060c0033",
  "immutableReferences": {},
  "source": "/** This example code is designed to quickly deploy an example contract using Remix.\n *  If you have never used Remix, try our example walkthrough: https://docs.chain.link/docs/example-walkthrough\n *  You will need testnet ETH and LINK.\n *     - Kovan ETH faucet: https://faucet.kovan.be/\n *     - Kovan LINK faucet: https://kovan.chain.link/\n \n */\n\npragma solidity >0.6.0 <=0.7.1;\n\nimport \"@chainlink/contracts/src/v0.6/ChainlinkClient.sol\";\n\ncontract SendOTP is ChainlinkClient {\n    address private oracle;\n    bytes32 private jobId;\n    uint256 private fee;\n\n    uint256 public tslaPrice;\n\n    constructor() public {\n        setPublicChainlinkToken();\n        oracle = 0xcb65E9b36eB788Ab0F94f06FB3906EcfAF4e055A; // oracle address\n        jobId = \"e0347d6a51a64b1abf7fbbda9f34a1bd\"; //job id\n        fee = 0.05 * 10**18; // 0.1 LINK\n    }\n\n    /**\n     * Make initial request\n     */\n    function sendOTP(\n        uint256 _amount,\n        string memory _action,\n        address _addr,\n        string memory _to,\n        uint256 _otp\n    ) public {\n        Chainlink.Request memory req = buildChainlinkRequest(\n            jobId,\n            address(this),\n            this.recieveResponse.selector\n        );\n        req.add(\"member\", toAsciiString(_addr));\n        req.add(\"amount\", uint2str(_amount));\n        req.add(\"otp\", uint2str(_otp));\n        req.add(\"action\", _action);\n        req.add(\"to\", _to);\n        string[] memory copyPath = new string[](1);\n        copyPath[0] = \"result\";\n        req.addStringArray(\"copyPath\", copyPath);\n        sendChainlinkRequestTo(oracle, req, fee);\n    }\n\n    /**\n     * Callback function\n     */\n    function recieveResponse(bytes32 _requestId, uint256 _price)\n        public\n        recordChainlinkFulfillment(_requestId)\n    {\n        tslaPrice = _price;\n    }\n\n    // Helper functino - convert address to string\n    function toAsciiString(address x) private pure returns (string memory) {\n        bytes memory s = new bytes(40);\n        for (uint256 i = 0; i < 20; i++) {\n            bytes1 b = bytes1(uint8(uint256(x) / (2**(8 * (19 - i)))));\n            bytes1 hi = bytes1(uint8(b) / 16);\n            bytes1 lo = bytes1(uint8(b) - 16 * uint8(hi));\n            s[2 * i] = char(hi);\n            s[2 * i + 1] = char(lo);\n        }\n        return string(abi.encodePacked(\"0x\", string(s)));\n    }\n\n    function char(bytes1 b) private pure returns (bytes1 c) {\n        if (uint8(b) < 10) return bytes1(uint8(b) + 0x30);\n        else return bytes1(uint8(b) + 0x57);\n    }\n\n    function uint2str(uint256 _i)\n        internal\n        pure\n        returns (string memory _uintAsString)\n    {\n        if (_i == 0) {\n            return \"0\";\n        }\n        uint256 j = _i;\n        uint256 len;\n        while (j != 0) {\n            len++;\n            j /= 10;\n        }\n        bytes memory bstr = new bytes(len);\n        uint256 k = len - 1;\n        while (_i != 0) {\n            bstr[k--] = bytes1(uint8(48 + (_i % 10)));\n            _i /= 10;\n        }\n        return string(bstr);\n    }\n}\n",
  "sourcePath": "/home/kuldeep/ETHEREUM/MachuPichu/hackathon/contracts/otp/SendOTP.sol",
  "compiler": {
    "name": "solc",
    "version": "0.6.12+commit.27d51765.Emscripten.clang"
  },
  "schemaVersion": "3.2.5",
  "updatedAt": "2020-10-19T18:40:41.822Z",
  "networkType": "ethereum",
  "devdoc": {
    "kind": "dev",
    "methods": {},
    "version": 1
  },
  "userdoc": {
    "kind": "user",
    "methods": {
      "recieveResponse(bytes32,uint256)": {
        "notice": "Callback function"
      },
      "sendOTP(uint256,string,address,string,uint256)": {
        "notice": "Make initial request"
      }
    },
    "version": 1
  }
}