{
  "contractName": "User",
  "abi": [
    {
      "inputs": [
        {
          "internalType": "address",
          "name": "_tokenContract",
          "type": "address"
        }
      ],
      "stateMutability": "nonpayable",
      "type": "constructor"
    },
    {
      "inputs": [
        {
          "internalType": "address",
          "name": "forwarder",
          "type": "address"
        }
      ],
      "name": "isTrustedForwarder",
      "outputs": [
        {
          "internalType": "bool",
          "name": "",
          "type": "bool"
        }
      ],
      "stateMutability": "view",
      "type": "function",
      "constant": true
    },
    {
      "inputs": [],
      "name": "trustedForwarder",
      "outputs": [
        {
          "internalType": "address",
          "name": "",
          "type": "address"
        }
      ],
      "stateMutability": "view",
      "type": "function",
      "constant": true
    },
    {
      "inputs": [],
      "name": "versionRecipient",
      "outputs": [
        {
          "internalType": "string",
          "name": "",
          "type": "string"
        }
      ],
      "stateMutability": "view",
      "type": "function",
      "constant": true
    },
    {
      "inputs": [
        {
          "internalType": "uint256",
          "name": "",
          "type": "uint256"
        }
      ],
      "name": "watchersAddresses",
      "outputs": [
        {
          "internalType": "address",
          "name": "",
          "type": "address"
        }
      ],
      "stateMutability": "view",
      "type": "function",
      "constant": true
    },
    {
      "stateMutability": "payable",
      "type": "receive",
      "payable": true
    },
    {
      "inputs": [
        {
          "internalType": "enum User.UserType",
          "name": "_usertype",
          "type": "uint8"
        }
      ],
      "name": "register",
      "outputs": [],
      "stateMutability": "nonpayable",
      "type": "function"
    },
    {
      "inputs": [
        {
          "internalType": "address",
          "name": "_user",
          "type": "address"
        }
      ],
      "name": "getUserRole",
      "outputs": [
        {
          "internalType": "enum User.UserType",
          "name": "",
          "type": "uint8"
        }
      ],
      "stateMutability": "view",
      "type": "function",
      "constant": true
    },
    {
      "inputs": [
        {
          "internalType": "address",
          "name": "_user",
          "type": "address"
        },
        {
          "internalType": "enum User.UserType",
          "name": "_usertype",
          "type": "uint8"
        }
      ],
      "name": "checkUserRole",
      "outputs": [
        {
          "internalType": "bool",
          "name": "",
          "type": "bool"
        }
      ],
      "stateMutability": "view",
      "type": "function",
      "constant": true
    },
    {
      "inputs": [],
      "name": "getTrustedForwarder",
      "outputs": [
        {
          "internalType": "address",
          "name": "",
          "type": "address"
        }
      ],
      "stateMutability": "view",
      "type": "function",
      "constant": true
    },
    {
      "inputs": [
        {
          "internalType": "uint256",
          "name": "index",
          "type": "uint256"
        }
      ],
      "name": "getWatcherAddress",
      "outputs": [
        {
          "internalType": "address",
          "name": "",
          "type": "address"
        }
      ],
      "stateMutability": "nonpayable",
      "type": "function"
    }
  ],
  "bytecode": "0x60806040526040518060400160405280600581526020017f322e302e30000000000000000000000000000000000000000000000000000000815250600190805190602001906200005192919062000121565b503480156200005f57600080fd5b5060405162001071380380620010718339818101604052810190620000859190620001de565b80600560006101000a81548173ffffffffffffffffffffffffffffffffffffffff021916908373ffffffffffffffffffffffffffffffffffffffff160217905550730842ad6b8cb64364761c7c170d0002cc56b1c4986000806101000a81548173ffffffffffffffffffffffffffffffffffffffff021916908373ffffffffffffffffffffffffffffffffffffffff1602179055505062000258565b828054600181600116156101000203166002900490600052602060002090601f016020900481019282601f106200016457805160ff191683800117855562000195565b8280016001018555821562000195579182015b828111156200019457825182559160200191906001019062000177565b5b509050620001a49190620001a8565b5090565b5b80821115620001c3576000816000905550600101620001a9565b5090565b600081519050620001d8816200023e565b92915050565b600060208284031215620001f157600080fd5b60006200020184828501620001c7565b91505092915050565b600062000217826200021e565b9050919050565b600073ffffffffffffffffffffffffffffffffffffffff82169050919050565b62000249816200020a565b81146200025557600080fd5b50565b610e0980620002686000396000f3fe60806040526004361061008a5760003560e01c8063572b6c0511610059578063572b6c051461017857806361d689fa146101b55780637da0a877146101de578063c4d4b36814610209578063ce1b815f1461024657610091565b8063278208511461009657806342584166146100d3578063486ff0cd146101105780634f86d0591461013b57610091565b3661009157005b600080fd5b3480156100a257600080fd5b506100bd60048036038101906100b891906109dc565b610271565b6040516100ca9190610bf6565b60405180910390f35b3480156100df57600080fd5b506100fa60048036038101906100f59190610a05565b61038d565b6040516101079190610bdb565b60405180910390f35b34801561011c57600080fd5b506101256104d4565b6040516101329190610c11565b60405180910390f35b34801561014757600080fd5b50610162600480360381019061015d9190610a6a565b610572565b60405161016f9190610b97565b60405180910390f35b34801561018457600080fd5b5061019f600480360381019061019a91906109dc565b6105b3565b6040516101ac9190610bdb565b60405180910390f35b3480156101c157600080fd5b506101dc60048036038101906101d79190610a41565b61060c565b005b3480156101ea57600080fd5b506101f36108ba565b6040516102009190610b97565b60405180910390f35b34801561021557600080fd5b50610230600480360381019061022b9190610a6a565b6108de565b60405161023d9190610b97565b60405180910390f35b34801561025257600080fd5b5061025b61091a565b6040516102689190610b97565b60405180910390f35b6000600360008373ffffffffffffffffffffffffffffffffffffffff1673ffffffffffffffffffffffffffffffffffffffff16815260200190815260200160002060009054906101000a900460ff166102ff576040517f08c379a00000000000000000000000000000000000000000000000000000000081526004016102f690610c53565b60405180910390fd5b61030761097f565b600260008473ffffffffffffffffffffffffffffffffffffffff1673ffffffffffffffffffffffffffffffffffffffff1681526020019081526020016000206040518060200160405290816000820160009054906101000a900460ff16600281111561036f57fe5b600281111561037a57fe5b8152505090508060000151915050919050565b6000600360008473ffffffffffffffffffffffffffffffffffffffff1673ffffffffffffffffffffffffffffffffffffffff16815260200190815260200160002060009054906101000a900460ff1661041b576040517f08c379a000000000000000000000000000000000000000000000000000000000815260040161041290610c53565b60405180910390fd5b61042361097f565b600260008573ffffffffffffffffffffffffffffffffffffffff1673ffffffffffffffffffffffffffffffffffffffff1681526020019081526020016000206040518060200160405290816000820160009054906101000a900460ff16600281111561048b57fe5b600281111561049657fe5b8152505090508260028111156104a857fe5b816000015160028111156104b857fe5b14156104c85760019150506104ce565b60009150505b92915050565b60018054600181600116156101000203166002900480601f01602080910402602001604051908101604052809291908181526020018280546001816001161561010002031660029004801561056a5780601f1061053f5761010080835404028352916020019161056a565b820191906000526020600020905b81548152906001019060200180831161054d57829003601f168201915b505050505081565b60006004828154811061058157fe5b9060005260206000200160009054906101000a900473ffffffffffffffffffffffffffffffffffffffff169050919050565b60008060009054906101000a900473ffffffffffffffffffffffffffffffffffffffff1673ffffffffffffffffffffffffffffffffffffffff168273ffffffffffffffffffffffffffffffffffffffff16149050919050565b600015156003600061061c610943565b73ffffffffffffffffffffffffffffffffffffffff1673ffffffffffffffffffffffffffffffffffffffff16815260200190815260200160002060009054906101000a900460ff161515146106a6576040517f08c379a000000000000000000000000000000000000000000000000000000000815260040161069d90610c33565b60405180910390fd5b6106ae61097f565b60405180602001604052808360028111156106c557fe5b81525090506001600360006106d8610943565b73ffffffffffffffffffffffffffffffffffffffff1673ffffffffffffffffffffffffffffffffffffffff16815260200190815260200160002060006101000a81548160ff0219169083151502179055508060026000610736610943565b73ffffffffffffffffffffffffffffffffffffffff1673ffffffffffffffffffffffffffffffffffffffff16815260200190815260200160002060008201518160000160006101000a81548160ff0219169083600281111561079457fe5b0217905550905050600160028111156107a957fe5b8260028111156107b557fe5b14156108b657600560009054906101000a900473ffffffffffffffffffffffffffffffffffffffff1673ffffffffffffffffffffffffffffffffffffffff16634e6ec247610801610943565b60646040518363ffffffff1660e01b8152600401610820929190610bb2565b600060405180830381600087803b15801561083a57600080fd5b505af115801561084e573d6000803e3d6000fd5b505050506004339080600181540180825580915050600190039060005260206000200160009091909190916101000a81548173ffffffffffffffffffffffffffffffffffffffff021916908373ffffffffffffffffffffffffffffffffffffffff1602179055505b5050565b60008054906101000a900473ffffffffffffffffffffffffffffffffffffffff1681565b600481815481106108eb57fe5b906000526020600020016000915054906101000a900473ffffffffffffffffffffffffffffffffffffffff1681565b60008060009054906101000a900473ffffffffffffffffffffffffffffffffffffffff16905090565b6000601860003690501015801561095f575061095e336105b3565b5b1561097357601436033560601c905061097b565b33905061097c565b5b90565b60405180602001604052806000600281111561099757fe5b81525090565b6000813590506109ac81610d95565b92915050565b6000813590506109c181610dac565b92915050565b6000813590506109d681610dbc565b92915050565b6000602082840312156109ee57600080fd5b60006109fc8482850161099d565b91505092915050565b60008060408385031215610a1857600080fd5b6000610a268582860161099d565b9250506020610a37858286016109b2565b9150509250929050565b600060208284031215610a5357600080fd5b6000610a61848285016109b2565b91505092915050565b600060208284031215610a7c57600080fd5b6000610a8a848285016109c7565b91505092915050565b610a9c81610cea565b82525050565b610aab81610c8f565b82525050565b610aba81610ca1565b82525050565b610ac981610cfc565b82525050565b610ad881610d0e565b82525050565b6000610ae982610c73565b610af38185610c7e565b9350610b03818560208601610d44565b610b0c81610d77565b840191505092915050565b6000610b24601b83610c7e565b91507f596f75206861766520616c7265616479207265676973746572656400000000006000830152602082019050919050565b6000610b64601383610c7e565b91507f55736572206e6f742072656769737465726564000000000000000000000000006000830152602082019050919050565b6000602082019050610bac6000830184610aa2565b92915050565b6000604082019050610bc76000830185610a93565b610bd46020830184610acf565b9392505050565b6000602082019050610bf06000830184610ab1565b92915050565b6000602082019050610c0b6000830184610ac0565b92915050565b60006020820190508181036000830152610c2b8184610ade565b905092915050565b60006020820190508181036000830152610c4c81610b17565b9050919050565b60006020820190508181036000830152610c6c81610b57565b9050919050565b600081519050919050565b600082825260208201905092915050565b6000610c9a82610cc0565b9050919050565b60008115159050919050565b6000819050610cbb82610d88565b919050565b600073ffffffffffffffffffffffffffffffffffffffff82169050919050565b6000819050919050565b6000610cf582610d20565b9050919050565b6000610d0782610cad565b9050919050565b6000610d1982610ce0565b9050919050565b6000610d2b82610d32565b9050919050565b6000610d3d82610cc0565b9050919050565b60005b83811015610d62578082015181840152602081019050610d47565b83811115610d71576000848401525b50505050565b6000601f19601f8301169050919050565b60038110610d9257fe5b50565b610d9e81610c8f565b8114610da957600080fd5b50565b60038110610db957600080fd5b50565b610dc581610ce0565b8114610dd057600080fd5b5056fea26469706673582212203ecb01ca007bc70894545e2c36e20a4cd75094f87cb05633b44d576eb6d6936b64736f6c634300060c0033",
  "immutableReferences": {},
  "source": "// SPDX-License-Identifier: MIT\n\npragma solidity >0.6.0 <=0.7.1;\npragma experimental ABIEncoderV2;\nimport {RUP} from \"./token/RUP.sol\";\nimport \"@opengsn/gsn/contracts/BaseRelayRecipient.sol\";\nimport \"@opengsn/gsn/contracts/interfaces/IKnowForwarderAddress.sol\";\n\ncontract User is BaseRelayRecipient, IKnowForwarderAddress {\n    string public override versionRecipient = \"2.0.0\";\n\n    enum UserType {member, watcher, enabler}\n\n    struct user {\n        UserType usertype;\n    }\n\n    mapping(address => user) Users;\n    mapping(address => bool) registerList;\n    address[] public watchersAddresses;\n    RUP tokenContract;\n\n    constructor(address _tokenContract) public {\n        tokenContract = RUP(_tokenContract);\n        trustedForwarder = address(0x0842Ad6B8cb64364761C7c170D0002CC56b1c498);\n    }\n\n    function register(UserType _usertype) public {\n        // require address not registered already\n        require(\n            registerList[_msgSender()] == false,\n            \"You have already registered\"\n        );\n\n        user memory u = user({usertype: _usertype});\n\n        registerList[_msgSender()] = true;\n        Users[_msgSender()] = u;\n\n        // initially mint 100 tokens for a watcher to staker - later he will either burrow or swap\n        if (_usertype == UserType.watcher) {\n            tokenContract._mint(_msgSender(), (100));\n            watchersAddresses.push(msg.sender);\n        }\n\n        // give some ether to user for demo purposes\n        // _msgSender().transfer(0.05 ether);\n    }\n\n    function getUserRole(address _user) public view returns (UserType) {\n        require(registerList[_user], \"User not registered\");\n        user memory u = Users[_user];\n        return u.usertype;\n    }\n\n    function checkUserRole(address _user, UserType _usertype)\n        public\n        view\n        returns (bool)\n    {\n        require(registerList[_user], \"User not registered\");\n        user memory u = Users[_user];\n        if ((u.usertype) == _usertype) {\n            return true;\n        }\n        return false;\n    }\n\n    receive() external payable {\n        uint256 i = 0;\n        // React to receiving ether\n    }\n\n    function getTrustedForwarder() public override view returns (address) {\n        return trustedForwarder;\n    }\n\n    function getWatcherAddress(uint256 index) public returns (address) {\n        return watchersAddresses[index];\n    }\n}\n",
  "sourcePath": "/home/kuldeep/ETHEREUM/MachuPichu/hackathon/contracts/User.sol",
  "compiler": {
    "name": "solc",
    "version": "0.6.12+commit.27d51765.Emscripten.clang"
  },
  "schemaVersion": "3.2.5",
  "updatedAt": "2020-10-19T18:40:41.722Z",
  "networkType": "ethereum",
  "devdoc": {
    "kind": "dev",
    "methods": {},
    "version": 1
  },
  "userdoc": {
    "kind": "user",
    "methods": {
      "getTrustedForwarder()": {
        "notice": "return the forwarder we trust to forward relayed transactions to us. the forwarder is required to verify the sender's signature, and verify the call is not a replay."
      },
      "isTrustedForwarder(address)": {
        "notice": "return if the forwarder is trusted to forward relayed transactions to us. the forwarder is required to verify the sender's signature, and verify the call is not a replay."
      }
    },
    "version": 1
  }
}