{
  "contractName": "User",
  "abi": [
    {
      "inputs": [
        {
          "internalType": "address",
          "name": "_tokenContract",
          "type": "address"
        }
      ],
      "stateMutability": "nonpayable",
      "type": "constructor"
    },
    {
      "inputs": [
        {
          "internalType": "address",
          "name": "forwarder",
          "type": "address"
        }
      ],
      "name": "isTrustedForwarder",
      "outputs": [
        {
          "internalType": "bool",
          "name": "",
          "type": "bool"
        }
      ],
      "stateMutability": "view",
      "type": "function",
      "constant": true
    },
    {
      "inputs": [],
      "name": "trustedForwarder",
      "outputs": [
        {
          "internalType": "address",
          "name": "",
          "type": "address"
        }
      ],
      "stateMutability": "view",
      "type": "function",
      "constant": true
    },
    {
      "inputs": [],
      "name": "versionRecipient",
      "outputs": [
        {
          "internalType": "string",
          "name": "",
          "type": "string"
        }
      ],
      "stateMutability": "view",
      "type": "function",
      "constant": true
    },
    {
      "stateMutability": "payable",
      "type": "receive",
      "payable": true
    },
    {
      "inputs": [
        {
          "internalType": "enum User.UserType",
          "name": "_usertype",
          "type": "uint8"
        }
      ],
      "name": "register",
      "outputs": [],
      "stateMutability": "nonpayable",
      "type": "function"
    },
    {
      "inputs": [
        {
          "internalType": "address",
          "name": "_user",
          "type": "address"
        }
      ],
      "name": "getUserRole",
      "outputs": [
        {
          "internalType": "enum User.UserType",
          "name": "",
          "type": "uint8"
        }
      ],
      "stateMutability": "view",
      "type": "function",
      "constant": true
    },
    {
      "inputs": [
        {
          "internalType": "address",
          "name": "_user",
          "type": "address"
        },
        {
          "internalType": "enum User.UserType",
          "name": "_usertype",
          "type": "uint8"
        }
      ],
      "name": "checkUserRole",
      "outputs": [
        {
          "internalType": "bool",
          "name": "",
          "type": "bool"
        }
      ],
      "stateMutability": "view",
      "type": "function",
      "constant": true
    },
    {
      "inputs": [],
      "name": "getTrustedForwarder",
      "outputs": [
        {
          "internalType": "address",
          "name": "",
          "type": "address"
        }
      ],
      "stateMutability": "view",
      "type": "function",
      "constant": true
    }
  ],
  "bytecode": "0x60806040526040518060400160405280600581526020017f322e302e30000000000000000000000000000000000000000000000000000000815250600190805190602001906200005192919062000121565b503480156200005f57600080fd5b5060405162000eac38038062000eac8339818101604052810190620000859190620001de565b80600460006101000a81548173ffffffffffffffffffffffffffffffffffffffff021916908373ffffffffffffffffffffffffffffffffffffffff160217905550730842ad6b8cb64364761c7c170d0002cc56b1c4986000806101000a81548173ffffffffffffffffffffffffffffffffffffffff021916908373ffffffffffffffffffffffffffffffffffffffff1602179055505062000258565b828054600181600116156101000203166002900490600052602060002090601f016020900481019282601f106200016457805160ff191683800117855562000195565b8280016001018555821562000195579182015b828111156200019457825182559160200191906001019062000177565b5b509050620001a49190620001a8565b5090565b5b80821115620001c3576000816000905550600101620001a9565b5090565b600081519050620001d8816200023e565b92915050565b600060208284031215620001f157600080fd5b60006200020184828501620001c7565b91505092915050565b600062000217826200021e565b9050919050565b600073ffffffffffffffffffffffffffffffffffffffff82169050919050565b62000249816200020a565b81146200025557600080fd5b50565b610c4480620002686000396000f3fe6080604052600436106100745760003560e01c8063572b6c051161004e578063572b6c051461012557806361d689fa146101625780637da0a8771461018b578063ce1b815f146101b65761007b565b8063278208511461008057806342584166146100bd578063486ff0cd146100fa5761007b565b3661007b57005b600080fd5b34801561008c57600080fd5b506100a760048036038101906100a29190610857565b6101e1565b6040516100b49190610a48565b60405180910390f35b3480156100c957600080fd5b506100e460048036038101906100df9190610880565b6102fd565b6040516100f19190610a2d565b60405180910390f35b34801561010657600080fd5b5061010f610444565b60405161011c9190610a63565b60405180910390f35b34801561013157600080fd5b5061014c60048036038101906101479190610857565b6104e2565b6040516101599190610a2d565b60405180910390f35b34801561016e57600080fd5b50610189600480360381019061018491906108bc565b61053b565b005b34801561019757600080fd5b506101a0610786565b6040516101ad91906109e9565b60405180910390f35b3480156101c257600080fd5b506101cb6107aa565b6040516101d891906109e9565b60405180910390f35b6000600360008373ffffffffffffffffffffffffffffffffffffffff1673ffffffffffffffffffffffffffffffffffffffff16815260200190815260200160002060009054906101000a900460ff1661026f576040517f08c379a000000000000000000000000000000000000000000000000000000000815260040161026690610aa5565b60405180910390fd5b61027761080f565b600260008473ffffffffffffffffffffffffffffffffffffffff1673ffffffffffffffffffffffffffffffffffffffff1681526020019081526020016000206040518060200160405290816000820160009054906101000a900460ff1660028111156102df57fe5b60028111156102ea57fe5b8152505090508060000151915050919050565b6000600360008473ffffffffffffffffffffffffffffffffffffffff1673ffffffffffffffffffffffffffffffffffffffff16815260200190815260200160002060009054906101000a900460ff1661038b576040517f08c379a000000000000000000000000000000000000000000000000000000000815260040161038290610aa5565b60405180910390fd5b61039361080f565b600260008573ffffffffffffffffffffffffffffffffffffffff1673ffffffffffffffffffffffffffffffffffffffff1681526020019081526020016000206040518060200160405290816000820160009054906101000a900460ff1660028111156103fb57fe5b600281111561040657fe5b81525050905082600281111561041857fe5b8160000151600281111561042857fe5b141561043857600191505061043e565b60009150505b92915050565b60018054600181600116156101000203166002900480601f0160208091040260200160405190810160405280929190818152602001828054600181600116156101000203166002900480156104da5780601f106104af576101008083540402835291602001916104da565b820191906000526020600020905b8154815290600101906020018083116104bd57829003601f168201915b505050505081565b60008060009054906101000a900473ffffffffffffffffffffffffffffffffffffffff1673ffffffffffffffffffffffffffffffffffffffff168273ffffffffffffffffffffffffffffffffffffffff16149050919050565b600015156003600061054b6107d3565b73ffffffffffffffffffffffffffffffffffffffff1673ffffffffffffffffffffffffffffffffffffffff16815260200190815260200160002060009054906101000a900460ff161515146105d5576040517f08c379a00000000000000000000000000000000000000000000000000000000081526004016105cc90610a85565b60405180910390fd5b6105dd61080f565b60405180602001604052808360028111156105f457fe5b81525090506001600360006106076107d3565b73ffffffffffffffffffffffffffffffffffffffff1673ffffffffffffffffffffffffffffffffffffffff16815260200190815260200160002060006101000a81548160ff02191690831515021790555080600260006106656107d3565b73ffffffffffffffffffffffffffffffffffffffff1673ffffffffffffffffffffffffffffffffffffffff16815260200190815260200160002060008201518160000160006101000a81548160ff021916908360028111156106c357fe5b0217905550905050600160028111156106d857fe5b8260028111156106e457fe5b141561078257600460009054906101000a900473ffffffffffffffffffffffffffffffffffffffff1673ffffffffffffffffffffffffffffffffffffffff16634e6ec2476107306107d3565b60646040518363ffffffff1660e01b815260040161074f929190610a04565b600060405180830381600087803b15801561076957600080fd5b505af115801561077d573d6000803e3d6000fd5b505050505b5050565b60008054906101000a900473ffffffffffffffffffffffffffffffffffffffff1681565b60008060009054906101000a900473ffffffffffffffffffffffffffffffffffffffff16905090565b600060186000369050101580156107ef57506107ee336104e2565b5b1561080357601436033560601c905061080b565b33905061080c565b5b90565b60405180602001604052806000600281111561082757fe5b81525090565b60008135905061083c81610be7565b92915050565b60008135905061085181610bfe565b92915050565b60006020828403121561086957600080fd5b60006108778482850161082d565b91505092915050565b6000806040838503121561089357600080fd5b60006108a18582860161082d565b92505060206108b285828601610842565b9150509250929050565b6000602082840312156108ce57600080fd5b60006108dc84828501610842565b91505092915050565b6108ee81610b3c565b82525050565b6108fd81610ae1565b82525050565b61090c81610af3565b82525050565b61091b81610b4e565b82525050565b61092a81610b60565b82525050565b600061093b82610ac5565b6109458185610ad0565b9350610955818560208601610b96565b61095e81610bc9565b840191505092915050565b6000610976601b83610ad0565b91507f596f75206861766520616c7265616479207265676973746572656400000000006000830152602082019050919050565b60006109b6601383610ad0565b91507f55736572206e6f742072656769737465726564000000000000000000000000006000830152602082019050919050565b60006020820190506109fe60008301846108f4565b92915050565b6000604082019050610a1960008301856108e5565b610a266020830184610921565b9392505050565b6000602082019050610a426000830184610903565b92915050565b6000602082019050610a5d6000830184610912565b92915050565b60006020820190508181036000830152610a7d8184610930565b905092915050565b60006020820190508181036000830152610a9e81610969565b9050919050565b60006020820190508181036000830152610abe816109a9565b9050919050565b600081519050919050565b600082825260208201905092915050565b6000610aec82610b12565b9050919050565b60008115159050919050565b6000819050610b0d82610bda565b919050565b600073ffffffffffffffffffffffffffffffffffffffff82169050919050565b6000819050919050565b6000610b4782610b72565b9050919050565b6000610b5982610aff565b9050919050565b6000610b6b82610b32565b9050919050565b6000610b7d82610b84565b9050919050565b6000610b8f82610b12565b9050919050565b60005b83811015610bb4578082015181840152602081019050610b99565b83811115610bc3576000848401525b50505050565b6000601f19601f8301169050919050565b60038110610be457fe5b50565b610bf081610ae1565b8114610bfb57600080fd5b50565b60038110610c0b57600080fd5b5056fea264697066735822122028846d136f493a657364e7826a1e00cb2ddddd80748d79afcd1fdf9c78e81edf64736f6c634300060c0033",
  "immutableReferences": {},
  "source": "// SPDX-License-Identifier: MIT\n\npragma solidity >0.6.0 <=0.7.1;\npragma experimental ABIEncoderV2;\nimport {RUP} from \"./token/RUP.sol\";\nimport \"@opengsn/gsn/contracts/BaseRelayRecipient.sol\";\nimport \"@opengsn/gsn/contracts/interfaces/IKnowForwarderAddress.sol\";\n\ncontract User is BaseRelayRecipient, IKnowForwarderAddress {\n    string public override versionRecipient = \"2.0.0\";\n\n    enum UserType {member, watcher, enabler}\n\n    struct user {\n        UserType usertype;\n    }\n\n    mapping(address => user) Users;\n    mapping(address => bool) registerList;\n    RUP tokenContract;\n\n    constructor(address _tokenContract) public {\n        tokenContract = RUP(_tokenContract);\n        trustedForwarder = address(0x0842Ad6B8cb64364761C7c170D0002CC56b1c498);\n    }\n\n    function register(UserType _usertype) public {\n        // require address not registered already\n        require(\n            registerList[_msgSender()] == false,\n            \"You have already registered\"\n        );\n\n        user memory u = user({usertype: _usertype});\n\n        registerList[_msgSender()] = true;\n        Users[_msgSender()] = u;\n\n        // initially mint 100 tokens for a watcher to staker - later he will either burrow or swap\n        if (_usertype == UserType.watcher) {\n            tokenContract._mint(_msgSender(), (100));\n        }\n\n        // give some ether to user for demo purposes\n        // _msgSender().transfer(0.05 ether);\n    }\n\n    function getUserRole(address _user) public view returns (UserType) {\n        require(registerList[_user], \"User not registered\");\n        user memory u = Users[_user];\n        return u.usertype;\n    }\n\n    function checkUserRole(address _user, UserType _usertype)\n        public\n        view\n        returns (bool)\n    {\n        require(registerList[_user], \"User not registered\");\n        user memory u = Users[_user];\n        if ((u.usertype) == _usertype) {\n            return true;\n        }\n        return false;\n    }\n\n    receive() external payable {\n        uint256 i = 0;\n        // React to receiving ether\n    }\n\n    function getTrustedForwarder() public override view returns (address) {\n        return trustedForwarder;\n    }\n}\n",
  "sourcePath": "/home/kuldeep/ETHEREUM/MachuPichu/hackathon/contracts/User.sol",
  "compiler": {
    "name": "solc",
    "version": "0.6.12+commit.27d51765.Emscripten.clang"
  },
  "schemaVersion": "3.2.5",
  "updatedAt": "2020-10-18T07:21:12.968Z",
  "networkType": "ethereum",
  "devdoc": {
    "kind": "dev",
    "methods": {},
    "version": 1
  },
  "userdoc": {
    "kind": "user",
    "methods": {
      "getTrustedForwarder()": {
        "notice": "return the forwarder we trust to forward relayed transactions to us. the forwarder is required to verify the sender's signature, and verify the call is not a replay."
      },
      "isTrustedForwarder(address)": {
        "notice": "return if the forwarder is trusted to forward relayed transactions to us. the forwarder is required to verify the sender's signature, and verify the call is not a replay."
      }
    },
    "version": 1
  }
}