{
  "contractName": "User",
  "abi": [
    {
      "inputs": [
        {
          "internalType": "address",
          "name": "_tokenContract",
          "type": "address"
        }
      ],
      "stateMutability": "payable",
      "type": "constructor",
      "payable": true
    },
    {
      "stateMutability": "payable",
      "type": "receive",
      "payable": true
    },
    {
      "inputs": [
        {
          "internalType": "enum User.UserType",
          "name": "_usertype",
          "type": "uint8"
        }
      ],
      "name": "register",
      "outputs": [],
      "stateMutability": "nonpayable",
      "type": "function"
    },
    {
      "inputs": [
        {
          "internalType": "address",
          "name": "_user",
          "type": "address"
        }
      ],
      "name": "getUserRole",
      "outputs": [
        {
          "internalType": "enum User.UserType",
          "name": "",
          "type": "uint8"
        }
      ],
      "stateMutability": "view",
      "type": "function",
      "constant": true
    },
    {
      "inputs": [
        {
          "internalType": "address",
          "name": "_user",
          "type": "address"
        },
        {
          "internalType": "enum User.UserType",
          "name": "_usertype",
          "type": "uint8"
        }
      ],
      "name": "checkUserRole",
      "outputs": [
        {
          "internalType": "bool",
          "name": "",
          "type": "bool"
        }
      ],
      "stateMutability": "view",
      "type": "function",
      "constant": true
    }
  ],
  "bytecode": "0x6080604052604051610a26380380610a2683398181016040528101906100259190610081565b80600260006101000a81548173ffffffffffffffffffffffffffffffffffffffff021916908373ffffffffffffffffffffffffffffffffffffffff160217905550506100f3565b60008151905061007b816100dc565b92915050565b60006020828403121561009357600080fd5b60006100a18482850161006c565b91505092915050565b60006100b5826100bc565b9050919050565b600073ffffffffffffffffffffffffffffffffffffffff82169050919050565b6100e5816100aa565b81146100f057600080fd5b50565b610924806101026000396000f3fe6080604052600436106100385760003560e01c80632782085114610044578063425841661461008157806361d689fa146100be5761003f565b3661003f57005b600080fd5b34801561005057600080fd5b5061006b6004803603810190610066919061060b565b6100e7565b6040516100789190610799565b60405180910390f35b34801561008d57600080fd5b506100a860048036038101906100a39190610634565b610202565b6040516100b5919061077e565b60405180910390f35b3480156100ca57600080fd5b506100e560048036038101906100e09190610670565b610348565b005b6000600160008373ffffffffffffffffffffffffffffffffffffffff1673ffffffffffffffffffffffffffffffffffffffff16815260200190815260200160002060009054906101000a900460ff16610175576040517f08c379a000000000000000000000000000000000000000000000000000000000815260040161016c906107d4565b60405180910390fd5b61017d6105c3565b6000808473ffffffffffffffffffffffffffffffffffffffff1673ffffffffffffffffffffffffffffffffffffffff1681526020019081526020016000206040518060200160405290816000820160009054906101000a900460ff1660028111156101e457fe5b60028111156101ef57fe5b8152505090508060000151915050919050565b6000600160008473ffffffffffffffffffffffffffffffffffffffff1673ffffffffffffffffffffffffffffffffffffffff16815260200190815260200160002060009054906101000a900460ff16610290576040517f08c379a0000000000000000000000000000000000000000000000000000000008152600401610287906107d4565b60405180910390fd5b6102986105c3565b6000808573ffffffffffffffffffffffffffffffffffffffff1673ffffffffffffffffffffffffffffffffffffffff1681526020019081526020016000206040518060200160405290816000820160009054906101000a900460ff1660028111156102ff57fe5b600281111561030a57fe5b81525050905082600281111561031c57fe5b8160000151600281111561032c57fe5b141561033c576001915050610342565b60009150505b92915050565b60001515600160003373ffffffffffffffffffffffffffffffffffffffff1673ffffffffffffffffffffffffffffffffffffffff16815260200190815260200160002060009054906101000a900460ff161515146103db576040517f08c379a00000000000000000000000000000000000000000000000000000000081526004016103d2906107b4565b60405180910390fd5b6103e36105c3565b60405180602001604052808360028111156103fa57fe5b815250905060018060003373ffffffffffffffffffffffffffffffffffffffff1673ffffffffffffffffffffffffffffffffffffffff16815260200190815260200160002060006101000a81548160ff021916908315150217905550806000803373ffffffffffffffffffffffffffffffffffffffff1673ffffffffffffffffffffffffffffffffffffffff16815260200190815260200160002060008201518160000160006101000a81548160ff021916908360028111156104b957fe5b0217905550905050600160028111156104ce57fe5b8260028111156104da57fe5b141561057157600260009054906101000a900473ffffffffffffffffffffffffffffffffffffffff1673ffffffffffffffffffffffffffffffffffffffff16634e6ec2473360646040518363ffffffff1660e01b815260040161053e929190610755565b600060405180830381600087803b15801561055857600080fd5b505af115801561056c573d6000803e3d6000fd5b505050505b3373ffffffffffffffffffffffffffffffffffffffff166108fc66b1a2bc2ec500009081150290604051600060405180830381858888f193505050501580156105be573d6000803e3d6000fd5b505050565b6040518060200160405280600060028111156105db57fe5b81525090565b6000813590506105f0816108c7565b92915050565b600081359050610605816108de565b92915050565b60006020828403121561061d57600080fd5b600061062b848285016105e1565b91505092915050565b6000806040838503121561064757600080fd5b6000610655858286016105e1565b9250506020610666858286016105f6565b9150509250929050565b60006020828403121561068257600080fd5b6000610690848285016105f6565b91505092915050565b6106a281610860565b82525050565b6106b181610817565b82525050565b6106c081610872565b82525050565b6106cf81610884565b82525050565b60006106e2601b836107f4565b91507f596f75206861766520616c7265616479207265676973746572656400000000006000830152602082019050919050565b60006107226013836107f4565b91507f55736572206e6f742072656769737465726564000000000000000000000000006000830152602082019050919050565b600060408201905061076a6000830185610699565b61077760208301846106c6565b9392505050565b600060208201905061079360008301846106a8565b92915050565b60006020820190506107ae60008301846106b7565b92915050565b600060208201905081810360008301526107cd816106d5565b9050919050565b600060208201905081810360008301526107ed81610715565b9050919050565b600082825260208201905092915050565b600061081082610836565b9050919050565b60008115159050919050565b6000819050610831826108ba565b919050565b600073ffffffffffffffffffffffffffffffffffffffff82169050919050565b6000819050919050565b600061086b82610896565b9050919050565b600061087d82610823565b9050919050565b600061088f82610856565b9050919050565b60006108a1826108a8565b9050919050565b60006108b382610836565b9050919050565b600381106108c457fe5b50565b6108d081610805565b81146108db57600080fd5b50565b600381106108eb57600080fd5b5056fea2646970667358221220cdd8827ab3860f7b73c879e236a09214add428fae0fcff336a52cc7aee8bd8f464736f6c63430007000033",
  "immutableReferences": {},
  "source": "// SPDX-License-Identifier: MIT\n\npragma solidity >0.6.0 <=0.7.1;\npragma experimental ABIEncoderV2;\nimport {RUP} from \"./token/RUP.sol\";\n\ncontract User {\n    enum UserType {member, watcher, enabler}\n\n    struct user {\n        UserType usertype;\n    }\n\n    mapping(address => user) Users;\n    mapping(address => bool) registerList;\n    RUP tokenContract;\n\n    constructor(address _tokenContract) public payable {\n        tokenContract = RUP(_tokenContract);\n    }\n\n    function register(UserType _usertype) public {\n        // require address not registered already\n        require(\n            registerList[msg.sender] == false,\n            \"You have already registered\"\n        );\n\n        user memory u = user({usertype: _usertype});\n\n        registerList[msg.sender] = true;\n        Users[msg.sender] = u;\n\n        // initially mint 100 tokens for a watcher to staker - later he will either burrow or swap\n        if (_usertype == UserType.watcher) {\n            tokenContract._mint(msg.sender, (100));\n        }\n\n        // give some ether to user for demo purposes\n        msg.sender.transfer(0.05 ether);\n    }\n\n    function getUserRole(address _user) public view returns (UserType) {\n        require(registerList[_user], \"User not registered\");\n        user memory u = Users[_user];\n        return u.usertype;\n    }\n\n    function checkUserRole(address _user, UserType _usertype)\n        public\n        view\n        returns (bool)\n    {\n        require(registerList[_user], \"User not registered\");\n        user memory u = Users[_user];\n        if ((u.usertype) == _usertype) {\n            return true;\n        }\n        return false;\n    }\n\n    receive() external payable {\n        uint i = 0;\n            // React to receiving ether\n    }\n}",
  "sourcePath": "/home/kuldeep/ETHEREUM/MachuPichu/hackathon/contracts/User.sol",
  "compiler": {
    "name": "solc",
    "version": "0.7.0+commit.9e61f92b.Emscripten.clang"
  },
  "schemaVersion": "3.2.5",
  "updatedAt": "2020-10-10T12:32:12.575Z",
  "networkType": "ethereum",
  "devdoc": {
    "kind": "dev",
    "methods": {},
    "version": 1
  },
  "userdoc": {
    "kind": "user",
    "methods": {},
    "version": 1
  }
}